:100000000004002091120000E51000008D12000095
:100010008D1200008D1200008D1200008D12000064
:100020000000000000000000000000008D12000031
:100030008D120000000000008D1200008D120000E3
:1000400049090000E50900008D0A0000750B000059
:100050000348044B834202D0034B03B11847704757
:1000600084A2000184A2000100000000064B0749A1
:10007000C91A891048BF0131491003D0044B0BB194
:1000800001481847704700BF84A2000184A2000104
:100090000000000010B5064C237843B9FFF7D8FFE5
:1000A000044B13B10448AFF300800123237010BD4B
:1000B0001C0400200000000084A2000108B5054BCC
:1000C0001BB105490548AFF30080BDE80840FFF7C4
:1000D000CDBF00BF000000002004002084A200016A
:1000E0002DE9F041D0E902850446A8EB05074068F8
:1000F00097422844154408D80E463A46A5EB080511
:1001000001F066F92A466068F11901F061F9BFF360
:100110005F8FE560BDE8F0812DE9F8434FF00009FD
:10012000064688461746D0E902243369151B9C42CF
:1001300003F1FF3125BF03F1FF339B180B1B1B1B82
:10014000BD4228BF3D469D4228BF1D4670684146BE
:100150002A46204401F03CF9B2682C44A24208BF70
:100160000024A944A8447F1BBFF35F8FF460002FD5
:10017000DBD14846BDE8F883F8B5164CA82200212B
:10018000204601F01DF94FF40066002303214020B2
:10019000114A124F124D21616161A261E76126622D
:1001A000A3626362E36222666566A0662367E36614
:1001B0006367BFF35F8F0B4B9C46A3F11000ACEB62
:1001C000030213F9011D8342A154F8D1BFF35F8FDD
:1001D000F8BD00BF780C0020EC130000780400206C
:1001E000380400206817000038B5214B00EB4004AC
:1001F00003EBC40EDEF82C40013000EB4000012C74
:100200008C46154603EBC00015D0022C0FD034BB32
:10021000DEF82830DEF8242093429CBFDEF8201060
:100220005B18013B9A1A95421CD9204638BDBDE89F
:100230003840FFF771BFDEF82830DEF82440A342D3
:100240009CBFDEF820105B18013B1C1B944228BFAA
:10025000144661462246FFF743FF204638BD00247E
:10026000204638BD2A466146FFF73AFF2C46DCE7B8
:10027000780C0020F8B50B4B04461B780D46532B29
:10028000164601D0FFF778FFEFF311874FF02001FA
:1002900081F31188324629462046FFF7A5FF87F3F0
:1002A0001188F8BD780C0020D0E9013210B5044661
:1002B000501C984207D8236899540246E168636845
:1002C0000131C4E902019A4200D010BD21682069C1
:1002D000FFF7D0FFA368984215BF4FF0FF3300230C
:1002E000E360A36010BD00BF2DE9F84F91420F46B7
:1002F000DDE90A94154683461E4668D30B464FF047
:100300000108B3FBF5F39D4208F10108F9D9B045A6
:1003100038BFB04614F0010A02D1B9F1000F3DD147
:10032000DBF80C30002B29DB012402E005FB04F490
:10033000013E012EFAD8B7FBF4F39D4205D805FB28
:1003400004F4B7FBF4F39D42F9D9224E06E0AC4227
:10035000B4FBF5F30CD31C46B7FBF3F3F156584648
:1003600004FB1377FFF7A0FFDBF80C30002BEEDA6D
:10037000BAF1000F02D0B9F1000F09D1BDE8F88F32
:1003800020215846FFF790FFDBF80C30002BF5DBFF
:10039000C14509F1FF39F3D8BDE8F88FA30711D49F
:1003A00020240CE021465846FFF77EFFDBF80C3096
:1003B00009F1FF39002BE1DBB9F1000FB2D0C145E3
:1003C000F0D8ADE7002E0CBF30242024F7E74FF023
:1003D00001089CE76C1700002DE9F04F0023402432
:1003E0009BB00DF12809CDE9049480460C461746D0
:1003F000CDE90633089006E004A8FFF755FF079BF8
:10040000002BC0F2AE8014F9011B002900F0A1807E
:100410002529F1D10026234613F9011BA1F123025E
:100420000D2A08D8DFE802F080070707070707074B
:100430007C0784070778A1F13002D2B2092A4FF075
:10044000000501D90EE0013305EB850501EB4505FB
:1004500093F900101C46A1F13002D2B2092AA5F18D
:100460003005F0D92E2900F080800022924694F9C0
:10047000001021F00403682B04F101045CD025294D
:10048000BAD05839CBB2202BB9D82029B7D801A37C
:1004900053F821F0B9050000FF030000FF0300003E
:1004A000FF030000FF030000FF030000FF03000044
:1004B000FF030000FF030000FF030000FF03000034
:1004C000D50500005D060000FF030000FF030000EB
:1004D000FF030000FF030000FF030000FF03000014
:1004E000FF030000FF030000FF030000FF03000004
:1004F000FF0300003F060000FF030000FF030000B1
:1005000003060000FF030000E9050000FF030000F0
:10051000FF030000B90500001C4646F002067AE71A
:100520001C4646F0040676E71C4646F0080672E7CD
:100530001C4646F001066EE714F9011B21F0040386
:10054000682B9CD114F9011B21F00403682B96D170
:10055000F2E7079B002B04DD069C002C40F0B280E4
:10056000234418461BB0BDE8F08F94F901102A29E6
:1005700009D13B684FF0010A1A1D3A6094F9021044
:100580001A68023475E7A1F13003DBB2092B4FF092
:10059000000204F1010400F2E18002EB820201EBAF
:1005A000420214F9011F303AA1F13003DBB2092BEA
:1005B000F3D94FF0010A5CE713461022386801684E
:1005C0000430CDE9005638600DEB0200FFF78CFED9
:1005D000079B15E73B6804A81A1D93F900103A60C1
:1005E000FFF762FE079B0BE738681346016804308B
:1005F000CDE900560A22386004A8FFF775FE079B74
:10060000FEE63B68191D39601D68002D00F08D80E5
:100610000132AE1815F9011B00293FF4F0AEBAF112
:10062000000F02D0B5423FF4EAAE04A8FFF73CFE4B
:10063000079B002BEEDA18461BB0BDE8F08F0823AD
:10064000102200253868016804303860CDE9003593
:100650000DEB0200FFF748FE079BD1E63B684FF029
:10066000010AD3F800B004333B608BEAEB73A3EBD1
:10067000EB73092B09DD4A481946A0FB03C3632924
:100680000AF1010A4FEAD303F6DC924538BF9246DD
:100690000DBB079900250B460029FFF662AFBBF1A1
:1006A000000F46DB730752D406F00303022B57D02A
:1006B000134659460A22CDE9005604A8FFF714FE56
:1006C000079B9DE62246494640460393FFF7D2FD2D
:1006D000039B234445E7BBF1000F06F002031BDB3D
:1006E000710719D4002B53D09AB1F3070FD510E03E
:1006F000202104A80392FFF7D7FD0799039A002948
:100700000B4605F1FF35FFF62CAF002DC4D0AA45EE
:10071000EED307990B46BFE7013D0BB1002AF8D095
:10072000F107F6D4002DF2D1B3E74FF0000A1D4DCA
:100730006EE72D2104A80392FFF7B6FD039ACBF1D3
:10074000000B079900290B46FFF60BAFACE72B21F6
:1007500004A80392FFF7A8FD039AF2E7924688E601
:10076000002AA5D1002DA3D0554517D9302104A8C2
:100770000392FFF799FD0799013D00290B46FFF60B
:10078000F0AE039A002DEFD10029FFF6EAAE8FE715
:10079000F007BCD5079B002B8ADAE2E60B46F3E7AD
:1007A000CDCCCCCCF81300000EB400B582B003ABB6
:1007B00053F8041B01AA0193FFF70EFE02B05DF887
:1007C00004EB03B0704700BF30B5002485B01F4D67
:1007D00003A8039400F02EFC29462046FFF7E4FF0F
:1007E00020461B49FFF7E0FF20461A4A1A49FFF747
:1007F000DBFF9DF80D209DF80E30009220469DF8FD
:100800000F201649FFF7D0FF29462046FFF7CCFFFF
:1008100020461349FFF7C8FF20461249FFF7C4FFDF
:1008200020461149FFF7C0FF20461049FFF7BCFFE3
:1008300020460F49FFF7B8FF20460E49FFF7B4FFE7
:1008400020460D49FFF7B0FF05B030BD0014000091
:10085000481400009014000094140000D814000004
:1008600024150000A4150000BC160000DC160000D2
:10087000041700002817000044170000022800D0C9
:1008800070470249024800F0B5BA00BF7C1700006B
:10089000200D002008B5FFF797FF002008BD00BF1E
:1008A00042684369517A126A19B912B1127B012A5E
:1008B00024D0C269511E99420FD09A420CD081684F
:1008C000C26832B190F820C0BCF10F0F0DD952F8B8
:1008D00023204A6001334361704781680A8A22F00D
:1008E00080021204120C0A82EAE7BCF1070F95BFDE
:1008F000D25C32F813200A718A80EBE78268D278E2
:100900009206E9D5D5E700BF30B5836A85B00446C5
:100910008C4601ADABB193E8070085E8070062683B
:100920001846117883F804C0E26A19609A60636A15
:100930009847A36A1BB195E8070083E8070005B054
:1009400030BD2B46EBE700BF10B4EFF30383103B41
:10095000214A5BB203F1C00152F8210020F480303B
:1009600042F8210052F821201C4A52F82330D3E9E2
:1009700006218A421CD018699C6838B393F820C0BD
:10098000BCF10F0F0AD9616840F82210D969013211
:100990008A429A610CD05DF8044B7047BCF1070F96
:1009A00016D821798154D96901328A429A61F2D1EB
:1009B0005B6893F90330012203F01F0008495B09CB
:1009C000824041F823205DF8044B70476068DEE701
:1009D000A48820F81240DAE7006000406C0D002087
:1009E00000E100E0EFF30383103B254A5BB203F123
:1009F000C00152F8210020F4803042F8210052F862
:100A00002110204951F8230041680B6A13B15B782B
:100A1000012B01D0FFF744BF10B4C46904F1FF3CBF
:100A2000446964450FD00A694AB191F90320164917
:100A300002F01F0C03FA0CF3520941F822305DF862
:100A4000044BFFF72DBF91F9031001F1C00C52F8D0
:100A50002C4024F4803442F82C4052F82C20BFF370
:100A60005F8F4A09920001F01F0102F1604203FA10
:100A700001F102F56142C2F880111160DFE700BFA9
:100A8000006000406C0D002000E100E030B4EFF3A6
:100A90000382103A344953B203F1C00051F82040A8
:100AA00002F0FF0224F4803441F8204051F8201075
:100AB0002E4951F823008168C978890705D5416816
:100AC000497A012901D030BC70470121284C5B09CB
:100AD00002F01F02203301FA02F244F82320BFF390
:100AE0004F8FBFF36F8F436893F90230002B32DBD7
:100AF0005A0903F01F0301FA03F3203244F82230AD
:100B0000BFF34F8FBFF36F8FD0E90124237892F9A1
:100B1000022023F04003002A237018DB124B02F15D
:100B2000C00453F8245025F4803543F8245053F87A
:100B30002430BFF35F8F53099B0002F01F0203F1C3
:100B40006043914003F56143C3F8801119600121AE
:100B500030BCFFF7D9BE8268012130BC137823F086
:100B600040031370FFF7D0BE006000406C0D002002
:100B700000E100E070B5EFF30383364A103B5CB24E
:100B800052F82460736893F90230002B49DB01208E
:100B900031495A0903F01F03203200FA03F341F8E8
:100BA0002230BFF34F8FBFF36F8FD6E9013293F935
:100BB00002301178002B21F04001117019DB274A17
:100BC00003F1C00152F8215025F4803542F821503C
:100BD00052F82120BFF35F8F03F01F025B099B00D7
:100BE00003F16043904003F56143C3F8800118604E
:100BF000B2680021D378D1701A07DDB224D4EB0794
:100C000015D405F01405142D19D0144A04F1C003AD
:100C100052F8231021F4803142F8231052F8233087
:100C200070BDB268137823F040031370E1E704212C
:100C3000304605F01405FFF767FE142DE5D10821B5
:100C40003046FFF761FEE0E705213046FFF75CFE26
:100C5000D5E700BF6C0D002000E100E0006000401F
:100C60002DE9F84F0388DBB182464FF0000B4FF0BF
:100C70000109DFF8D0800024304D4FEACB07DAF8C5
:100C8000043035F8022BD919898891420AD00134F1
:100C9000032CF4D1BAF800300BF1010B5B45EAD814
:100CA000BDE8F88FDB5909FA04F603F0B853B3F145
:100CB000807FF6B298F8BB3413D0334231D1204A4A
:100CC00004F1200612F81630DB09E0D012F81630D5
:100CD000012123F08003C82002F8163000F0BCF98F
:100CE000D5E7334211D0164A04F1200112F8113031
:100CF000DB09CCD112F81130C82043F0800302F890
:100D00001130012100F0A8F9C1E7012000F094FAA8
:100D100098F8BB340120334388F8BB3400F05CFA08
:100D2000E1E7012000F088FA98F8BB34012023EABB
:100D3000060388F8BB3400F04FFAC0E7E019000062
:100D40000030084000E00140F8B50446FFF788FF96
:100D5000EFF31082012383F31088234F3B681BB904
:100D60002249CB704023CB703B6801333B6082F358
:100D7000108823882BB361681D4C01EBC30E06E07D
:100D80001B01083113448E4544F8230019D008682C
:100D90008A88C5034FEA1223D2B2F1D502EB031CB5
:100DA00054F82C601B01083120F4803526F480367D
:100DB00013448E4544F82C6044F82C5044F823002A
:100DC000E5D1EFF31082012383F310883B6813B160
:100DD0003B68013B3B603B681BB980200349CB70FB
:100DE000C87082F31088F8BD680D0020000D08401F
:100DF0000008084098B191B14A6808B503464AB165
:100E0000094A186890420CD008461A60FFF79CFF08
:100E1000002008BD0A88002AF2D0012008BD012068
:100E200070470E2008BD00BF54524F50064B074973
:100E300093F826001A6A51F82030C2F3026204497E
:100E4000D3400B60704700BF00E001400004002069
:100E5000880D0020704700BF4AF20350012340492B
:100E6000404A2DE9F041A1F8FE03A2F80431B2F89E
:100E700004319BB2002BFAD101254FF400474FF00B
:100E8000090E394C3948DFF8F8C0394E34496660EC
:100E9000E0606061A2F80051CCF80850CCF8005036
:100EA00091F826202060A7602761086A54F8222064
:100EB000304EC0F30260C240326081F8133481F8D2
:100EC000A2E091F880341BB991F881349A0741D09F
:100ED000234D95F8803493B30022214B83F881246D
:100EE00083F8802400231E4A82F8363092F83C3082
:100EF000DB07FBD54FF0000C4FF0F10801254FF058
:100F0000F00E4FF425471C4B136282F826C092F86E
:100F10002610106A54F82110184BC0F30260C1402B
:100F2000316083F80C8083F808C083F80CE082F805
:100F3000305082F85250A2F8FE73BDE8F0810121D2
:100F4000C82085F8801400F087F895F88034012BCC
:100F5000FBD1C1E74FF47A70FFF77CFFC2E700BF17
:100F600000E0014000C0014000040020002D3101DC
:100F700000127A00880D002020110120002000407E
:100F80000070004038B50025284C0121C82084F8A5
:100F9000285000F061F884F8245094F82430002B95
:100FA000FBD194F82430214943F0020384F8243023
:100FB00091F82430C3F340009B07F9D41B4A81F811
:100FC000220092F8223003F0FF00002BF9D192F8B2
:100FD0004030164960F3C71382F8403091F8403032
:100FE000DB09FBD191F84200104A63F3C71081F886
:100FF000420092F84230DB09FBD192F844000B49E1
:1010000063F3C71082F8440091F84430C3F3C0146E
:10101000DB09F9D1012000F00FF9054B012083F81D
:10102000BB44BDE8384000F0D7B800BF00300840EE
:1010300000E00140034618B1024A00201A607047E0
:101040000120704700000506704700BFA0F10100B5
:101050000028FBD1704700BF1F4B204A1B6800FBD4
:1010600001F1934213D302F1854202F5071203F511
:10107000741302F6834203F6FF03A2FB03231B0D46
:10108000A3FB01314FF0FF30F9B1FFF7DFBF4FF4A1
:101090007A7210B4A1FB02C41148B0FBF3F34FF015
:1010A000FF3044B9BCFBF3FC4FEA9C0088B15DF80B
:1010B000044BFFF7CBBF9B00B1FBF3F1A1FB021286
:1010C000002AF4D1084620B1F1E71846002BDCD104
:1010D00070475DF8044B7047880D002000127A00BD
:1010E00000CA9A3B70B500240B4B0C4EB3F820217C
:1010F000B3F84051ADB2154025FA04F3DB0704D52F
:1011000056F82430E0B203B198470134102CF3D1E3
:10111000014BA3F8305170BD00600040280D002045
:1011200070B5032084B000F087F86FF0FF054FF032
:10113000FF31254A254C13885088002BA5640BBF2E
:10114000002601260B466FF00103CDE90111039142
:1011500038B3918823F0020359B3D28823F00403F3
:1011600022BB019319491A4A0B67C2F88032029BCD
:1011700003204B67C2F88432039B164C8B67C2F87E
:10118000883200F029F800230F4931F8022B03F1CF
:10119000C00001330AB144F82020042BF5D104B07B
:1011A00070BD90880028D8D1D28842B123F00803BE
:1011B000D7E7D288002AD4D023F00803D1E7002E45
:1011C000CFD10B46CEE700BFD81900000080004009
:1011D00000E100E000600040EFF31081012383F3A1
:1011E0001088124B33F8102092B22AB133F8102035
:1011F000013A92B223F8102033F810309BB293B921
:101200000B4A10B4B2F8FE330A4C9BB234F810000B
:1012100043F4254323EA0003A2F8FE3381F3108848
:101220005DF8044B704781F3108870477C0D0020F7
:1012300000E00140C01A000030B4EFF31081012338
:1012400083F310880E4A32F810309BB26BB90D4C04
:101250000D4DB4F8FE3335F810C09BB243EA0C03D1
:1012600043F425439BB2A4F8FE3332F81030013327
:101270009BB222F8103081F3108830BC704700BF59
:101280007C0D002000E00140C01A000000BE704745
:1012900008B500F035F8FFF7FDFAFEE7F8B5174F8F
:1012A00005463E68A6B17C6806EB460604EB86065A
:1012B00002E00C34B4420BD0637AAB42F9D1D4E9EA
:1012C00000020021121A0C3400F07AF8B442F3D173
:1012D000BE6896B1FC6804EB061602E01034A64224
:1012E0000BD0637BAB42F9D1D4E90002A168121A9A
:1012F000103400F06DF8A642F3D1F8BDE8190000F3
:101300004FF47001274B284A70B50020C3F88810AD
:101310009A60FFF7B3FAFFF79FFD0120FFF7AEFADF
:10132000224B83F30A880020FFF7B8FFFFF77EFD0A
:10133000FFF728FE0320FFF77FFF00234FF6FF7023
:101340001B4903F1080201330C2B21F81200F8D1DC
:1013500000240320FFF740FF0320FFF76DFF154B2C
:1013600003205C609C60DC601C61FFF735FF01209E
:10137000FFF794FF104D114B5B1BA3424FEAA306EE
:1013800005DD55F8043B01349847A642F9DC0220FC
:10139000FFF774FAFFF7C4FEBDE870400020FFF7C6
:1013A00053BE00BF00ED00E0000000000000002080
:1013B000000D084000000E40241B0000281B000008
:1013C00002440346934200D1704703F8011BF9E73A
:1013D0000A44431E914200D1704710B511F8014BE9
:1013E000914203F8014FF9D110BD00005465726DB0
:1013F000696E616C00000000284E554C4C290000BD
:101400000D0A2A2A2A2A2A2A2A2A2A2A2A2A2A2A79
:101410002A2A2A2A2A2A2A2A2A2A2A2A2A2A2A2A2C
:101420002A2A2A2A2A2A2A2A2A2A2A2A2A2A2A2A1C
:101430002A2A2A2A2A2A2A2A2A2A2A2A2A2A2A2A0C
:101440002A2A2A2A000000000D0A2A20202052659C
:101450006E6573617320465350204578616D706CE2
:10146000652050726F6A65637420666F7220725FC8
:10147000737069204D6F64756C65202020202020DA
:1014800020202020202020202020202A00000000D2
:10149000312E30000D0A2A2020204578616D706CB5
:1014A000652050726F6A6563742056657273696F48
:1014B0006E20257320202020202020202020202086
:1014C000202020202020202020202020202020201C
:1014D00020202020202000002A0D0A2A202020463B
:1014E0006C657820536F6674776172652050616314
:1014F0006B2056657273696F6E202025642E2564FB
:101500002E25642020202020202020202020202084
:101510002020202020202020202020202020202AC1
:10152000000000000D0A526566657220746F20721B
:101530006561646D652E7478742066696C652066DB
:101540006F72206D6F72652064657461696C7320C1
:101550006F6E204578616D706C652050726F6A65A2
:10156000637420616E640D0A465350205573657292
:101570002773204D616E75616C20666F72206D6FF0
:10158000726520696E666F726D6174696F6E20613D
:10159000626F757420725F7370692064726976651A
:1015A000720D0A000D0A5468652070726F6A6563D7
:1015B0007420696E697469616C697A65732053502F
:1015C000492064726976657220616E6420636F6E73
:1015D0006669677572657320535049206368616E50
:1015E0006E656C7320696E204D6173746572206145
:1015F0006E6420536C617665206D6F64652E0D0AF4
:10160000416674657220696E697469616C697A619A
:1016100074696F6E2C206D617374657220616E64E5
:1016200020736C6176652063616E207472616E73E5
:101630006D697420616E64207265636569766520EA
:1016400064617461206261736564206F6E207468E8
:101650006520636F6D6D616E64732066726F6D20BF
:10166000757365722E0D0A526566657220746F205F
:10167000746865204D43552055736572204D616E29
:1016800075616C20666F722076616C696420626996
:101690007420726174657320616E6420636F72726E
:1016A0006573706F6E64696E6720636C6F636B2027
:1016B00073657474696E67732E0D0A000D0A202A13
:1016C0002A2053504920494E4954205355434345FD
:1016D000535346554C202A2A200D0A000D0A536503
:1016E0006C6563742066726F6D2074686520626536
:1016F0006C6F77204D656E75206F7074696F6E73B7
:101700000D0A00000D0A5072657373203120666F58
:1017100072205772697465282920616E64205265B1
:1017200061642829000000000D0A5072657373205F
:101730003220666F72205772697465526561642841
:10174000290000000D0A5072657373203320746FF6
:1017500020457869740D0A00000000000000545410
:101760005220524547474553000000003031323384
:101770003435363738394142434445464A00000043
:10178000881700000000000000800000000000003A
:101790000080000001000000008000000200000046
:1017A0000080000003000000004000000400000072
:1017B00000400000050000000400000006000000DA
:1017C0000400000007000000040000000800000002
:1017D000008000000E000000008000000F000000EC
:1017E0000008011C000100000008011C01010000AC
:1017F0000008011C020100000008011C0301000098
:101800000008011C040100000008011C0501000083
:101810000008011C060100000008011C070100006F
:101820000000010008010000000C01030B01000092
:10183000040C00000C010000000000000D0100007D
:10184000000000000E010000000000000F01000079
:10185000040C00000702000000000100000300006B
:10186000040C000003030000000C0111050300003C
:10187000000C011106030000000C01110703000019
:10188000000C011108030000000C01110903000005
:10189000000C01110A030000040C00000B030000FF
:1018A0001040000000040000050C000003040000CC
:1018B000040C000004040000000000000604000006
:1018C000000C011307040000040C000008040000D1
:1018D0001040000009040000000C01060A0400008A
:1018E000000C01060B040000000C01060C040000B3
:1018F000000C01070E040000000C01070F0400009B
:10190000000C011300050000000C0113010500008C
:10191000400C010405050000400C01040605000010
:10192000000C01070B050000000C01070C0500006E
:101930000008011C000600000008011C0106000050
:101940000000011C02060000040C00000806000054
:101950000000000009060000000000000A06000068
:10196000000000000B060000000001050D0600004D
:10197000000001050E060000040000000F06000034
:10198000000001060007000000000106010700003A
:10199000000001060207000000000000030700002D
:1019A00000000000040700000040000006070000DF
:1019B00000000114070700000000000000080000FC
:1019C0001040000005090000000C0114000B00008D
:1019D000000C0114010B0000C401C501C801C701BE
:1019E000020403040404000004000000901A000034
:1019F00008000000101A000002000000001A000099
:101A000000000068000000680000002000000020C6
:101A100000000068000000680000006000010C0881
:101A20000000006800000068000000700001090864
:101A300000000068000000680000000800010208C3
:101A4000000000680000006850000000000101086C
:101A500000000020000000200000006000010C03D6
:101A600000000020000000200000007000010903B9
:101A70000000002000000020000000080000020319
:101A800000000020000000205000000000000103C2
:101A90000000006800000068000100080000006805
:101AA0000000006800010008000000200000002085
:101AB000000000031C0400208C0D00200000000327
:101AC0000100020008001000200000004275696C4F
:101AD0007420776974682052656E65736173204164
:101AE0006476616E63656420466C657869626C65D6
:101AF00020536F667477617265205061636B616714
:101B0000652076657273696F6E20362E352E300033
:0C1B1000362E352E3000000000000506C7
:041B1C00F8B500BF59
:041B2000F8B500BF55
:041B2400BD00000000
:041B28009500000024
:020000040100F9
:04A10000FFFFFFFF5F
:04A20000FFFDFFFF60
:04A28000F8F8FFFFEC
:040000030000129156
:00000001FF
