:1000000020040020C93A000041390000C53A000030
:10001000C53A0000C53A0000C53A0000C53A0000E4
:10002000000000000000000000000000C53A0000D1
:10003000C53A000000000000C53A0000C53A0000C3
:10004000852E0000212F0000C92F0000B1300000D4
:10005000E9320000E131000099330000E133000093
:040060004001F0006B
:100068000348044B834202D0034B03B1184770473F
:10007800040000200400002000000000064B07498F
:10008800C91A891048BF0131491003D0044B0BB17C
:1000980001481847704700BF0400002004000020F2
:1000A8000000000010B5064C237843B9FFF7D8FFCD
:1000B800044B13B10448AFF300800123237010BD33
:1000C800400400200000000084A2000108B5054B90
:1000D8001BB105490548AFF30080BDE80840FFF7AC
:1000E800CDBF00BF000000004404002084A200012E
:1000F80070B50C4E33787BB9054600F0D3FA044648
:1001080008B1204670BD284600F016FB044630B9F9
:1001180001232046337070BD0E24204670BD00F0C8
:1001280015FBEEE75C040020054B1A782AB1072876
:1001380001D800F0D7BA032070470720704700BFE6
:100148005C04002010B5054C237823B100F0FEFABA
:1001580000B9207010BD072010BD00BF5C0400204E
:10016800064A137843B9012110B4054C1846237088
:1001780011705DF8044B70470E2070475E04002034
:100188005D040020074B1B7853B1012110B5064CC4
:100198000648217001F016FA08B10023237010BD3B
:1001A800072070475E0400205D040020243C000006
:1001B800044B1B7823B10023034A18461370704779
:1001C800072070475E0400205D04002070B580257C
:1001D80000264FF0010E144C294489B262F30F0631
:1001E80004EB410462F31F462246042304E0013B6A
:1001F800591C02F104020DD001780EFA03FC1CEA26
:10020800010FF4D0013B591C1660C2F8806002F15E
:100218000402F1D18035B5F5806F04F5807400F1E2
:100228000100E1D170BD00BF6004002000000000A3
:10023800F0B50728054683B070D8012345F62F325C
:100248003B498340097842F22F660B40002B12BFCE
:1002580001270027164634A1D1E90001354C234671
:1002680004F5B452E3E802019342FBD13246002F71
:1002780045D015213048FFF7A9FF324621212F48E4
:10028800FFF7A4FF4FF4006242F2CA1C2C49A1F107
:100298004C0323F802CF8B42FBD14032B2F5286FD2
:1002A80003F18001F3D1002F0CBF4FF0120E4FF075
:1002B8002E0E6FF004020EF5006E04EB4E0E6FF07A
:1002C800040302FB02FC03FB03C11929D8BF2EF863
:1002D80013600133062BF6D10132062A0EF1800E87
:1002E800EDD1184805EB450500EB850041892D2324
:1002F80040220094008901F0EFF803B0F0BD0F210F
:100308000D48FFF763FF32461B210F48FFF75EFFDA
:10031800324627210C48FFF759FFB3E7002745F677
:100328002F3698E7AFF30080491149114911491157
:10033800E21A002060040020349402002C94020089
:10034800C41400203C9402002494020010B501213A
:10035800144882B001F036F9044610B1204602B0C4
:1003680010BDE0B2FFF764FF0134B0B9082CF8D132
:100378004FF6E0740C4B0D4A1B78009403EB4303D3
:1003880002EB830132F82300CB888A88498800F081
:10039800B9FF0446204602B010BD0446204602B00C
:1003A80010BD00BF9C940200E31A00203C94020098
:1003B8002DE9F04F324F01283D7883B010D0022844
:1003C8000AD0042805F003033BD1002B37D10024C1
:1003D800204603B0BDE8F08FAB08F8D1043502E041
:1003E800032DF4D9043D4FF6E074264E05EB450283
:1003F80006EB820336F82280B3F80290B3F804A023
:10040800B3F806B0009452465B464946404600F0B1
:1004180079FF04460028DBD140F6A5043B78009418
:1004280003EB430306EB830136F823008A88CB8865
:10043800498800F067FF044648B93D70C7E7013DA9
:10044800D1E70828C3D1032BC1D00135CBE740F64B
:10045800A50352464946009340465B4600F052FFCA
:100468004FF6E0723B78009203EB430306EB8301FF
:1004780036F823008A88CB88498800F043FFA7E72D
:10048800E31A00203C94020030B40F4C2278BAB929
:10049800034678B107C80D4D85E80700197A002092
:1004A80001230B4A237011700A490B4A0870107017
:1004B80030BC7047054A0146C2E900001072EEE7F9
:1004C8000E2030BC704700BFE11A0020E41A00205B
:1004D800E21A0020E31A0020E01A002038B5084B81
:1004E8001B7853B100250123064A074C1570237069
:1004F800FFF72CFF00B1257038BD072038BD00BFBD
:10050800E11A0020E31A0020E01A0020114B1B78A2
:10051800E3B107281CD8012310B40F4C834022787C
:10052800DBB249B922EA03030C4A237013784BB9AA
:1005380018465DF8044B70471343084A2370137834
:10054800002BF5D05DF8044BFFF772BE072070470B
:1005580003207047E11A0020E21A0020E01A002068
:1005680021B338B50023294A0B7012789AB1284A6A
:10057800147884B110F0400C0FD1830611D4C5064D
:1005880016D4C4072ED4810731D4420734D40307C4
:1005980037D4002038BD072038BD022013700870FA
:1005A800F7E7012382F800C00B70F2E703207047D9
:1005B800184D2878072807D80123174A834012784E
:1005C80013420CBF01240024144A13682BB121469E
:1005D800526898470028DDD128782146BDE8384080
:1005E800FFF794BF0120BDE83840FFF7E1BE0220C5
:1005F800BDE83840FFF7DCBE0420BDE83840FFF70F
:10060800D7BE0820BDE83840FFF7D2BEE11A002067
:10061800E01A0020E31A0020E21A0020E41A002061
:10062800044B1B7823B10023034A18461370704704
:1006380007207047E11A0020E01A00202DE9F84F42
:1006480000244FF0010B0646DFF85090DFF850A069
:10065800104F11E0354014BF012200220E4839F82E
:10066800021F02F087FF80B93A7885B148EA020292
:100678000134082C3A7008D09AF800200BFA04F5D7
:100688005FFA85F8002AE5D10720BDE8F88F22EA4D
:100698000802EDE7F11A00208C2500209AEC0400EE
:1006A800F01A0020F8B50B4F3B788BB90A4C0B4D6C
:1006B80004F110060022284634F8021F02F05AFFFF
:1006C80028B9B442F6D10123054A3B701070F8BD31
:1006D8000E20F8BDF01A00209AEC04008C250020AA
:1006E800F11A002038B5104B1B78B3B1072804461F
:1006F80011D80E4B0D460A4633F810100C4802F07C
:1007080039FF38B901230B4AA3401178DBB235B160
:100718000B43137038BD032038BD072038BD21EACC
:100728000301117038BD00BFF01A00209CEC0400D2
:100738008C250020F11A0020034B1B780BB1FFF722
:100748007DBF0720704700BFF01A002010B5054C88
:1007580023782BB10020FFF771FF00B9207010BD7E
:10076800072010BDF01A002010B51049104802F0FB
:10077800D1F9044648B9024640F206410D4802F054
:10078800F9FE044648B9204610BD0B4B0B4A0C49EC
:10079800002002F033F8204610BD0A4B074A0849EA
:1007A800002002F02BF8204610BD00BFC448070007
:1007B800942500208C250020ACEC0400ACED04004E
:1007C800DCEC0400F8EC0400E0B10A46D1B14FF0CB
:1007D800000C38B50C4D0D4C014607230C4885F824
:1007E80000C084F800C002F035F918B138BD23788C
:1007F8001BB900BF2B78002BF9D02378002B18BF2A
:10080800122038BD03207047F31A0020F21A002086
:100818009425002070B5B1F5807F0D460C4628BFA1
:100828004FF48075ADF5007D49B16B46020A03EBC4
:100838004501C0B21A70587002339942FAD10122A8
:1008480040F20371124802F095FE10B10DF5007DDB
:1008580070BD024640F206410D4802F08BFE0028AA
:10086800F4D15CB1A5422E4628BF264668467100E1
:10087800FFF7AAFF0028E9D1A41BF3D1012240F217
:100888000641034802F076FE0DF5007D70BD00BFFD
:100898008C25002010B50022044682B040F2037176
:1008A8000F4802F067FE08B102B010BD024640F2E0
:1008B80006410B4802F05EFE0028F5D101210DF13A
:1008C80007008DF80740FFF77FFF0028ECD10122D1
:1008D80040F20641024802B0BDE8104002F04ABEAC
:1008E8008C25002010B50122044682B040F2037125
:1008F8000F4802F03FFE08B102B010BD024640F2B8
:1009080006410B4802F036FE0028F5D101210DF111
:1009180007008DF80740FFF757FF0028ECD10122A8
:1009280040F20641024802B0BDE8104002F022BE83
:100938008C250020F8B507462A200C4616461D4689
:10094800FFF7A8FF00B1F8BD380AFFF7CBFF002872
:10095800F9D1F8B2FFF7C6FF0028F4D1300AFFF743
:10096800C1FF0028EFD1F0B2FFF7BCFF0028EAD1A1
:100978002B20FFF78FFF0028E5D1200AFFF7B2FFF1
:100988000028E0D1E0B2FFF7ADFF0028DBD1280A4C
:10099800FFF7A8FF0028D6D1E8B2FFF7A3FF002889
:1009A800D1D1BDE8F8402C20FFF774BF10B5012263
:1009B80040F20641124802F0DDFD044608B1204627
:1009C80010BD024640F204710D4802F0D3FD044602
:1009D8000028F4D14FF47A71C82002F067FF012291
:1009E80040F20471064802F0C5FD04460028E6D12D
:1009F8004FF47A71C82002F059FF204610BD00BF9D
:100A08008C250020032801D903207047034670B5C0
:100A18000C490D4C0D4A3620E45C31F8136032F86D
:100A28001350FFF737FF60B901204FF47A7102F0D5
:100A38003DFF2046FFF756FF18B9054A054B1680BB
:100A48001D8070BDA0ED0400A8ED040098ED040021
:100A5800000000200200002008B5FFF785FE0346CD
:100A680008B1184608BD012240F20471D14802F0CD
:100A780081FD03460028F4D1FFF798FF03460028BC
:100A8800EFD10120FFF706FF03460028E9D14FF414
:100A98007A71084602F00AFFCB20FFF7FBFE0346F7
:100AA8000028DED13920FFF71DFF03460028D8D1E2
:100AB8002C20FFF717FF03460028D2D1FFF712FFBB
:100AC80003460028CDD13420FFF70CFF0346002849
:100AD800C7D10220FFF706FF03460028C1D1CF2067
:100AE800FFF7D8FE03460028BBD1FFF7FBFE0346FD
:100AF8000028B6D1C120FFF7F5FE03460028B0D183
:100B08003020FFF7EFFE03460028AAD1E820FFF7C0
:100B1800C1FE03460028A4D18520FFF7E3FE034663
:100B280000289ED1FFF7DEFE0346002899D17820E1
:100B3800FFF7D8FE0346002893D1EA20FFF7AAFE64
:100B4800034600288DD1FFF7CDFE0346002888D143
:100B58000020FFF7C7FE0346002882D1ED20FFF7EB
:100B680099FE034600287FF47CAF6420FFF7BAFEA5
:100B7800034600287FF475AF0320FFF7B3FE034652
:100B880000287FF46EAF1220FFF7ACFE0346002862
:100B98007FF467AF8120FFF7A5FE034600287FF4A6
:100BA80060AFF720FFF776FE034600287FF459AFC1
:100BB8002020FFF797FE034600287FF452AFC0209D
:100BC800FFF768FE034600287FF44BAF2320FFF7AA
:100BD80089FE034600287FF444AFC120FFF75AFE80
:100BE800034600287FF43DAF1020FFF77BFE034645
:100BF80000287FF436AFC520FFF74CFE03460028D7
:100C08007FF42FAF3E20FFF76DFE034600287FF4E8
:100C180028AF2820FFF766FE034600287FF421AF9F
:100C2800C720FFF737FE034600287FF41AAF862057
:100C3800FFF758FE034600287FF413AF3620FFF76E
:100C480029FE034600287FF40CAF4820FFF74AFE30
:100C5800034600287FF405AF3A20FFF71BFE034642
:100C680000287FF4FEAE5520FFF73CFE034600281F
:100C78007FF4F7AEB120FFF70DFE034600287FF49E
:100C8800F0AEFFF72FFE034600287FF4EAAE1820E7
:100C9800FFF728FE034600287FF4E3AEB620FFF7EF
:100CA800F9FD034600287FF4DCAE0820FFF71AFEA2
:100CB800034600287FF4D5AE8220FFF713FE0346D3
:100CC80000287FF4CEAE2720FFF70CFE034600284D
:100CD8007FF4C7AEF220FFF7DDFD034600287FF45E
:100CE800C0AEFFF7FFFD034600287FF4BAAE26200A
:100CF800FFF7D0FD034600287FF4B3AE0120FFF7CD
:100D0800F1FD034600287FF4ACAEE020FFF7C2FDFA
:100D1800034600287FF4A5AE0F20FFF7E3FD034646
:100D280000287FF49EAE3120FFF7DCFD0346002843
:100D38007FF497AE2B20FFF7D5FD034600287FF4FC
:100D480090AE0C20FFF7CEFD034600287FF489AE55
:100D58000E20FFF7C7FD034600287FF482AE082067
:100D6800FFF7C0FD034600287FF47BAE4E20FFF757
:100D7800B9FD034600287FF474AEF120FFF7B2FDF9
:100D8800034600287FF46DAE3720FFF7ABFD03461E
:100D980000287FF466AE0720FFF7A4FD034600286D
:100DA8007FF45FAE1020FFF79DFD034600287FF417
:100DB80058AE01E08C2500200320FFF793FD034681
:100DC80000287FF44EAE0E20FFF78CFD0346002866
:100DD8007FF447AE0920FFF785FD034600287FF41E
:100DE80040AEFFF77FFD034600287FF43AAEE120CE
:100DF800FFF750FD034600287FF433AEFFF772FD7E
:100E0800034600287FF42DAE0E20FFF76BFD034646
:100E180000287FF426AE1420FFF764FD034600285F
:100E28007FF41FAE0320FFF75DFD034600287FF423
:100E380018AE1120FFF756FD034600287FF411AEC7
:100E48000720FFF74FFD034600287FF40AAE312044
:100E5800FFF748FD034600287FF403AEC120FFF7E3
:100E680041FD034600287FF4FCAD4820FFF73AFD1A
:100E7800034600287FF4F5AD0820FFF733FD03464D
:100E880000287FF4EEAD0F20FFF72CFD0346002865
:100E98007FF4E7AD0C20FFF725FD034600287FF41B
:100EA800E0AD3120FFF71EFD034600287FF4D9ADE1
:100EB8003620FFF717FD034600287FF4D2AD0F2038
:100EC800FFF710FD034600287FF4CBAD1120FFF794
:100ED800E1FC034600287FF4C4AD4FF47A71782012
:100EE80002F0E4FC2920FFF7D5FC034600287FF434
:100EF800B8ADBDE80840FFF785BD00BF70B5114D1E
:100F08002B889BB2E3B1104E33889BB2C3B100214A
:100F18002A883388013A013B04469BB2084692B2BC
:100F2800FFF708FD68B92988338889B29BB203FBAB
:100F380001F030B101462046BDE87040FFF76ABCB9
:100F4800032070BD00000020020000208D4B1B888C
:100F58009BB2834240F213818B4B70B51B880C46C1
:100F68009BB28B4284B040F207810646154640F298
:100F780003710022854802F0FDFA08B104B070BD83
:100F8800024640F20641814802F0F4FA0028F5D101
:100F98002A23012103A88DF80C30FFF715FC00283F
:100FA800ECD14FF47A71012002F080FC012240F26A
:100FB8000371764802F0DEFA0028DFD1012240F200
:100FC8000641724802F0D6FA0028D7D1024640F20C
:100FD80006416E4802F0CEFA0028CFD1330A63F3F7
:100FE8000700F2B2731C62F30F201B1263F3174061
:100FF800013262F31F600290042102A8FFF7E4FBAC
:101008000028BBD14FF47A71012002F04FFC012275
:1010180040F206415D4802F0ADFA0028AED1002248
:1010280040F20371594802F0A5FA0028A6D10246F9
:1010380040F20641554802F09DFA00289ED12B2324
:10104800012103A88DF80C30FFF7BEFB002895D1CD
:101058004FF47A71012002F029FC012240F2037159
:101068004A4802F087FA002888D1012240F2064156
:10107800464802F07FFA002880D1024640F2064135
:10108800424802F077FA00287FF478AF0346260A30
:10109800E1B2621C66F3070361F30F2312120131F8
:1010A80062F3174361F31F6303A804210393FFF757
:1010B8008BFB00287FF462AF4FF47A71012002F0B5
:1010C800F5FB012240F20641304802F053FA0028AD
:1010D8007FF454AF024640F203712C4802F04AFAFA
:1010E80000287FF44BAF024640F20641274802F041
:1010F80041FA00287FF442AF2C23012101A88DF882
:101108000430FFF761FB00287FF438AF4FF47A71A1
:10111800012002F0CBFB012240F203711B4802F0D0
:1011280029FA00287FF42AAF012240F20641174825
:1011380002F020FA00287FF421AF024640F206416F
:10114800124802F017FA00287FF418AF6DBA02218E
:1011580001A8ADF80450FFF737FB00287FF40EAF65
:101168004FF47A71012002F0A1FB012240F20641FE
:10117800064802F0FFF901E7032004B070BD032020
:10118800704700BF00000020020000208C250020CE
:10119800F8B51B4FBDF81860B7F800C01FFA8CFCF3
:1011A800844527D91446174A1D4613889BB28B429B
:1011B80020D9FCB1F5B13B881B1A9BB2A34202D2DD
:1011C8003C88241AA4B213885B1A9BB2AB4213D38F
:1011D8004B1E421E2B4422449BB292B2FFF7AAFB3D
:1011E80048B905FB04F030B101463046BDE8F84087
:1011F800FFF710BB0320F8BD15886D1AADB2E7E7FD
:101208000000002002000020F8B5184FB7F800C011
:101218001FFA8CFC844519D91646154A1D461288B2
:101228000B4692B28A4211D986B13A880446121AFC
:1012380092B2B2420CD23E88B6B2721E92B2FFF798
:1012480079FB10B9361BB0B250B9F8BD0320F8BD10
:10125800721E024492B2FFF76DFB0028F5D13046AA
:1012680001462846BDE8F840FFF7D4BA0000002040
:101278000200002070B5194CB4F800E01FFA8EFE89
:10128800864519D91646164A1D4613880C469BB240
:101298008B4211D986B113885B1A9BB2B3420DD227
:1012A80016880246B6B2731E9BB2FFF743FB10B90D
:1012B800361BB0B258B970BD032070BD731E0B4405
:1012C80002469BB2FFF736FB0028F4D130460146B0
:1012D8002846BDE87040FFF79DBA00BF0000002017
:1012E8000200002010B10379012B03D00122034B27
:1012F8001A707047024A1370704700BFF21A002034
:10130800F31A00202DE9F0471C468242904638BF68
:1013180080468242154628BF05468C42264628BF8D
:101328000E4608F1010ABDF82070AAEB050A1FFA5B
:101338008AFA89463B46524631462846FFF764FFFB
:10134800B8B94C4538BF4C46A64206D052463B4633
:1013580021462846FFF758FF58B90134A41BA4B208
:101368003B46224631462846FFF784FF08B94545E3
:1013780001D1BDE8F0873B46224631464046BDE8EC
:10138800F047FFF777BF00BF2DE9F04F89B0BDF8F0
:101398004870BDF84C400293002F67D00094C4B247
:1013A800202C204638BF202088461146A0F1200472
:1013B800314DE4B204EB440455F8140005EB440540
:1013C8000690A88807EB47025200FB00ADF81C0006
:1013D80092B240469BB20391FFF7DAFE0646A8BBDD
:1013E800C3464FF0010A464603990DF1180C0590C3
:1013F8000C460D464FF000091CF8018BCDE903C1DE
:101408000AFA09F218EA020F0AD0012F22D002992B
:101418003B4600913A4621463046FFF7B9FE00BBED
:1014280009F1010901353C44B9F1080FADB2A4B284
:10143800E6D1DDE903C10DF11E030BF1010EF2192E
:101448009C451FFA8EFB96B2D2D1059E304609B054
:10145800BDE8F08F29465846029AFFF777FD002825
:10146800DED00646304609B0BDE8F08F0326304688
:1014780009B0BDE8F08F00BFC0ED04002DE9F047CA
:1014880082B0BDF82890BDF82CA000B3054690F9AD
:101498000000C0B109EB490676000C46174698468D
:1014A800F6B203E015F9010FE4B260B121464346F4
:1014B8003A46CDE9009AFFF767FF34440028F1D097
:1014C80002B0BDE8F087002002B0BDE8F087012037
:1014D80002B0BDE8F08700BF2DE9F043ADF5017D0E
:1014E800889D002D5ED01646002A5BD01C46002B36
:1014F80058D0B0F5A07F55D2EF2953D8C0F5A072C7
:1015080092B2B2424ED3C1F1F00292B29A4249D39A
:101518004B1E421E234432449BB292B2FFF70AFA92
:10152800074600283FD1012240F20371244802F007
:1015380021F80746B8BB024640F20641204802F0AF
:1015480019F8074678BB4FF0000804FB06F9B9F50F
:10155800807F4E4628BF4FF48076EE46374405EB31
:10156800080471004FEA470805EB470334F802CB3B
:101578000EF1020E0EF801CCA3424FEA1C2C0EF815
:1015880002CCF3D16846FFF71FF9044680B9B9EBDE
:101598000609DCD1012240F20641094801F0EAFFC0
:1015A800074600E0032738460DF5017DBDE8F083C6
:1015B800012240F20641024801F0DCFF2746F2E72B
:1015C8008C2500202DE9F043ADF5017D002800F0C1
:1015D800E0808146032900F21781DFE801F0165206
:1015E8008E020320FFF70EFA074648B9EF2340F2B0
:1015F8003F120146FFF79EF90746002800F0CF800A
:1016080038460DF5017DBDE8F0830020FFF7FAF9B3
:1016180007460028F4D140F23F13EF220146FFF7B6
:1016280089F907460028EBD1012240F20371774877
:1016380001F0A0FF07460028E2D1024640F2064129
:10164800724801F097FF07460028D9D16E46ADF1E0
:1016580004057FAC09F516382B464A4652F8041B98
:1016680043F8041FA342F9D14FF400713046FFF745
:10167800ABF807460028C3D109F50079C145EBD17D
:101688007BE00120FFF7BEF907460028B8D1EF2319
:1016980040F23F120146FFF74DF907460028AFD147
:1016A800012240F20371594801F064FF07460028FF
:1016B800A6D1024640F20641544801F05BFF0746B6
:1016C80000289DD16E46ADF104057FAC09F51638AA
:1016D8002B464A4652F8041B43F8041F9C42F9D192
:1016E8004FF400713046FFF76FF80746002887D19E
:1016F80009F50079C845EBD13FE00220FFF782F9F0
:10170800074600287FF47CAF40F23F13EF220146E2
:10171800FFF710F9074600287FF472AF012240F264
:1017280003713A4801F026FF074600287FF468AFA6
:10173800024640F20641354801F01CFF07460028E2
:101748007FF45EAF6E46ADF104057FAC09F516383F
:101758002B464A4652F8041B43F8041F9C42F9D111
:101768004FF400713046FFF72FF8074600287FF442
:1017780047AF09F50079C145EAD1012240F2064197
:10178800224801F0F7FE074600287FF439AF00270A
:1017980036E7012738460DF5017DBDE8F0830122C3
:1017A80040F20371194801F0E5FE074600287FF46E
:1017B80027AF024640F20641144801F0DBFE074617
:1017C80000287FF41DAF6E46ADF104057FAC09F526
:1017D80016382B464A4652F8041B43F8041F9C420D
:1017E800F9D14FF400713046FEF7EEFF074620B9F5
:1017F80009F50079C145ECD1BFE7012240F2064165
:10180800024801F0B7FEFBE60327F9E68C25002025
:1018180010B5864600F10C043EF802CF734603E08B
:101828001A808B1E834213D033F8022C1946624566
:10183800F6D87445A1F800C0EED18388C188008924
:10184800064A0B441844A2FB0020C0F34F0010BD09
:1018580001467445A1F800C0DED1EEE7ABAAAAAAFA
:10186800F0B5002410252746134E83B0012240F21C
:101878000B11304601F07EFE002240F20B1130467B
:1018880001F078FE4FF4857130460DF107028DF8AE
:10189800077001F055FE6400A4B26B1E28B99DF8CC
:1018A8000720012A04BF0134A4B213F0FF05DDD1DB
:1018B800204603B0F0BD00BF8C25002070B5002283
:1018C800044640F20B11104801F054FE08250E4E54
:1018D80023064CBF0122002240F20911304601F0D4
:1018E80049FE012240F20B113046944001F042FEBD
:1018F800002240F20B11304601F03CFE6B1E13F043
:10190800FF05E4B2E4D170BD8C250020002800F06A
:10191800AF802DE9F043054600248BB0012240F248
:101928000B1154482C6001F025FE012240F20911E8
:10193800504801F01FFE01224FF486714D4801F016
:1019480019FE40F201314B4806AA8DF8184001F003
:10195800F7FD18B99DF81830012B34D000224FF448
:101968008671444801F006FE4FF00008414F0DF122
:1019780016040DF106060DF1240910E09020FFF77A
:101988009DFFFFF76DFF0346D02024F8023FFFF7C5
:1019980095FFFFF765FF4C4526F8020F17D040F278
:1019A800013138460DF107028DF8078001F0C8FDB6
:1019B8000028E3D19DF80720012ADFD14FF4867172
:1019C8002C4801F0D7FD00200BB0BDE8F0830122C0
:1019D8004FF48671274801F0CDFD002340F2013114
:1019E80024480DF107028DF8073001F0A9FD18B958
:1019F8009DF80730012BE6D002A8FFF709FF04463F
:101A080006A8FFF705FF034664425B42A4B29BB2F7
:101A180007EE104A06EE903ADFED173A9FED174AA7
:101A2800B8EE477AF8EE666AC7EE234AB2EE0E5A67
:101A380086EE847ADFED127A9FED126AF2EE0A5A88
:101A480077EEE47A37EE457A77EEE57A27EE067A8E
:101A580067EE867ABCEEC77AFCEEE77A17EE103AA4
:101A680001206B8017EE903A2B800BB0BDE8F08315
:101A7800002070478C2500200080884300004C43DC
:101A880000007043E17A943F002300B583B040F230
:101A980001310A480DF107028DF8073001F050FDB9
:101AA80038B99DF80700013818BF012003B05DF868
:101AB80004FB012003B05DF804FB00BF8C25002067
:101AC800072801D8FEF730BB03207047F0B54FF068
:101AD800010E4CF6FE660F4D0F4CC0EBC0000544DE
:101AE80004EB410401F1BD072046042315F801CB9E
:101AF8000EFA03F21CEA020F03F1FF3318BF068047
:101B08005A1C00F10200F3D11B31B94204F136042A
:101B1800EAD1F0BD00F00400041B002041F271215D
:101B280030B5244B83B003F5BD7223F8021F9342EE
:101B3800FBD1214B1C78632C06D820480021A0FB40
:101B48000430C008FFF7C2FF1C4D0621A5FB042383
:101B5800DB0803EB8303A4EB4300C0B2FFF7B6FF37
:101B6800174B1C78632C05D8A5FB04301021C0083E
:101B7800FFF7ACFF114B1621A3FB0423DB0803EB93
:101B88008303A4EB4300C0B2FFF7A0FF4CF6FE6C42
:101B98000C4C072300941B220921A4F886C0A4F842
:101BA800BCC0A4F828C1A4F85EC1EC20FFF794FCDF
:101BB80003B030BD021B00207F1C0020CDCCCCCC54
:101BC8007E1C0020041B002010B5012182B00E48A5
:101BD800FFF7F8FC08B102B010BDFFF79FFF00281F
:101BE800F9D14FF6E074094B094A1B78009403EBCE
:101BF800830302EB430132F81300CB888A884988B3
:101C0800FFF780FB02B010BDA0F004008E1C00207E
:101C180064F004002DE9F043A34D85B00446FFF7B6
:101C280033FF2B78032B00F2B981DFE803F02B3167
:101C38003802012844D09D4B1A681D2A2BD822440B
:101C48001D2A1A6027D89A4D9A4E2B680021E01851
:101C58002860337806E0D3B23B2B4FF00101A0F5A2
:101C68007A7023D8B0F57A7F03F10102F3D229B153
:101C7800914A337013782860002B39D0002005B0C2
:101C8800BDE8F0830128DED1884B28701C60DAE7B4
:101C980001281BD0854B00222A701A60D3E701283F
:101CA800D1D00323814A14602B70CCE70023834CE6
:101CB80022780A44D2B2632A227088BF2370D1E7FF
:101CC80002210022794B29701A60BCE7774A136811
:101CD800132B03D82344132B1360B4D903A8FFF79D
:101CE80015FE012809D0764A136801331360AAE764
:101CF80005B0BDE8F043FFF711BF40F23F12BDF851
:101D08000C60BDF80E70EF2E28BFEF26BA4228BF30
:101D18003A4602206B4B6C49C6F1EF0C1A801FFA49
:101D28008CFE6A4BA1F800E019682870624D0131F9
:101D380019602B78A3B1032B43D0BCF1C70F82D90C
:101D48009F2F40F28C80062B00F08E800022604B83
:101D58001A70FFF739FF002891D100232B7072E722
:101D6800DFF88081414608884F8890428E88B1F814
:101D780006C001F10A0120D8B2421ED8BE451CD3C4
:101D8800E6451AD8524A137003EB830308EB43085D
:101D980098F80860032E00F0A780062E00F0F58062
:101DA8004C4A1368002B00F0A880304651689847C9
:101DB80000287FF464AF2E7045E70133062BD2D19B
:101DC80041E7BCF1C70F09D99F2F50D8FEF728FC6F
:101DD800FFF7FAFE00287FF452AFBEE7083A93B245
:101DE800B3F5987FBFF42FAFAEF11E0EBEF1A00F72
:101DF8003FF629AF3849C6F1D1035B00A1FB0313B5
:101E08003649C2F39B02A1FB0215354EDB09376840
:101E180005EB83054FEA95084FEA9709C14529D292
:101E280003A9FEF79DFB00287FF429AF07F00307FD
:101E380005F0030847452AD2082003A9FEF790FBBE
:101E4800013700287FF41BAFB845F5D1102003A94E
:101E58003560FEF785FB00283FF4F5AE0FE7062B4B
:101E6800B6D1FEF7A5F9B3E7FEF7A2F96EE7FEF7DC
:101E7800D7FB6BE702D8D9E7C845D7D0012003A91B
:101E8800FEF76EFB09F1FF390028F5D0F7E6DDD93A
:101E9800042003A9FEF764FB013F00287FF4EFAE9E
:101EA800B845F5D1D2E700BF8C1C0020881C002063
:101EB800801C00207E1C00208F1C00207F1C00201E
:101EC800F41A0020FE1A0020FC1A0020F81A00203C
:101ED8008E1C0020901C0020C12787CB5F43790D02
:101EE800841C002064F00400FEF7F8FA00287FF450
:101EF800C6AE2D4B2E701860A5E6731E052B4BD869
:101F080040F6A500FEF7FAFF00287FF4B8AE40F6C9
:101F1800A50C02274FF6FF732A225221CDE9007C37
:101F28002248FFF7ABFA00287FF4A9AE022340F657
:101F3800A5071F4ACDE9003752F8260040F2FF7383
:101F48005C224C21FFF79AFA00287FF498AE4FF0F4
:101F580001084FF6FF73AE223E2116480197CDF8CF
:101F68000080FFF78BFA00287FF489AE4FF6FF73E5
:101F7800C222462110480197CDF80080FFF77EFA6B
:101F880000287FF47CAE2E705DE6FEF7FBF8002893
:101F98007FF475AE2E7056E6032070E60023074ADC
:101FA8002B7013604FE600BF841C002020ED040056
:101FB80048F004002CED04003CED0400881C0020CF
:101FC800F0B53E4D85B02B78002B44D13C4EE8B19E
:101FD80084463446BCE80F000FC4DCF800301746CE
:101FE8002360002A67D0FEF737FD044658B9D6E9C2
:101FF8000212337C01A8CDE901128DF80C30FEF7EE
:1020080043FA044658B3204605B0F0BD0346C6E976
:102018000000C6E9020030741846FEF769F8044665
:102028000028F0D1FEF718FD044678B9254A337C1C
:1020380001A8CDE901248DF80C30FEF725FA0446F5
:1020480020B9FEF78DF80446002832D0FEF77AF85A
:10205800204605B0F0BD0E24204605B0F0BDFEF7C1
:102068007FF804460028CED10123002614222B70C5
:10207800154B16491E70164B0E701E70154B1E60C0
:10208800154B1E60154B1E60154B1E70154B1A70B4
:10209800154A164B16801E80154A164B16601E6090
:1020A800FFF792FD04460028ADD02E70002FAAD16C
:1020B800CCE70746D8E7337CAEE700BF8D1C00208D
:1020C800901C0020C91A00008E1C00208F1C0020C4
:1020D8008C1C0020881C0020841C0020801C0020F0
:1020E8007F1C00207E1C0020FE1A0020FC1A002005
:1020F800F81A0020F41A002038B50020FFF760FF16
:102108000A4D286068B90A4C4FF47A710A2001F028
:10211800CDFB237833B10A20FFF77CFD0028F3D0EC
:10212800286038BD07202860FBE700BF001B00209F
:102138008D1C00202DE9F041D0E902850446A8EB6A
:102148000507406897422844154408D80E463A4681
:10215800A5EB080501F054FD2A466068F11901F065
:102168004FFDBFF35F8FE560BDE8F0812DE9F843CF
:102178004FF00009064688461746D0E9022433691D
:10218800151B9C4203F1FF3125BF03F1FF339B1858
:102198000B1B1B1BBD4228BF3D469D4228BF1D4649
:1021A800706841462A46204401F02AFDB2682C4452
:1021B800A24208BF0024A944A8447F1BBFF35F8F35
:1021C800F460002FDBD14846BDE8F883F8B5164C1B
:1021D800A8220021204601F00BFD4FF400660023E1
:1021E80003214020114A124F124D21616161A26101
:1021F800E7612662A3626362E36222666566A0669F
:102208002367E3666367BFF35F8F0B4B9C46A3F1BD
:102218001000ACEB030213F9011D8342A154F8D15D
:10222800BFF35F8FF8BD00BFE424002084ED0400F5
:10223800E41C0020A41C0020B048070038B5214B3E
:1022480000EB400403EBC40EDEF82C40013000EB39
:102258004000012C8C46154603EBC00015D0022C1B
:102268000FD034BBDEF82830DEF8242093429CBF20
:10227800DEF820105B18013B9A1A95421CD92046BB
:1022880038BDBDE83840FFF771BFDEF82830DEF80A
:102298002440A3429CBFDEF820105B18013B1C1BA6
:1022A800944228BF144661462246FFF743FF204662
:1022B80038BD0024204638BD2A466146FFF73AFF5C
:1022C8002C46DCE7E4240020F8B50B4B04461B78C9
:1022D8000D46532B164601D0FFF778FFEFF3118711
:1022E8004FF0200181F31188324629462046FFF736
:1022F800A5FF87F31188F8BDE4240020D0E9013256
:1023080010B50446501C984207D8236899540246D1
:10231800E16863680131C4E902019A4200D010BD46
:1023280021682069FFF7D0FFA368984215BF4FF0D6
:10233800FF330023E360A36010BD00BF2DE9F84F11
:1023480091420F46DDE90A94154683461E4668D336
:102358000B464FF00108B3FBF5F39D4208F1010865
:10236800F9D9B04538BFB04614F0010A02D1B9F125
:10237800000F3DD1DBF80C30002B29DB012402E0F3
:1023880005FB04F4013E012EFAD8B7FBF4F39D4295
:1023980005D805FB04F4B7FBF4F39D42F9D9224EA6
:1023A80006E0AC42B4FBF5F30CD31C46B7FBF3F3E1
:1023B800F156584604FB1377FFF7A0FFDBF80C3003
:1023C800002BEEDABAF1000F02D0B9F1000F09D1F3
:1023D800BDE8F88F20215846FFF790FFDBF80C3056
:1023E800002BF5DBC14509F1FF39F3D8BDE8F88FBB
:1023F800A30711D420240CE021465846FFF77EFF9E
:10240800DBF80C3009F1FF39002BE1DBB9F1000FE3
:10241800B2D0C145F0D8ADE7002E0CBF302420243F
:10242800F7E74FF001089CE7B44807002DE9F04FA3
:10243800002340249BB00DF12809CDE9049480467F
:102448000C461746CDE90633089006E004A8FFF7C6
:1024580055FF079B002BC0F2AE8014F9011B002921
:1024680000F0A1802529F1D10026234613F9011B8C
:10247800A1F123020D2A08D8DFE802F08007070738
:10248800070707077C0784070778A1F13002D2B253
:10249800092A4FF0000501D90EE0013305EB850547
:1024A80001EB450593F900101C46A1F13002D2B2A8
:1024B800092AA5F13005F0D92E2900F080800022E4
:1024C800924694F9001021F00403682B04F10104EA
:1024D8005CD02529BAD05839CBB2202BB9D82029BD
:1024E800B7D801A353F821F0152600005B2400009B
:1024F8005B2400005B2400005B2400005B240000D8
:102508005B2400005B2400005B2400005B240000C7
:102518005B24000031260000B92600005B2400007F
:102528005B2400005B2400005B2400005B240000A7
:102538005B2400005B2400005B2400005B24000097
:102548005B2400005B2400009B2600005B24000045
:102558005B2400005F2600005B2400004526000085
:102568005B2400005B240000152600001C4646F092
:1025780002067AE71C4646F0040676E71C4646F053
:10258800080672E71C4646F001066EE714F9011BBF
:1025980021F00403682B9CD114F9011B21F00403DA
:1025A800682B96D1F2E7079B002B04DD069C002CD4
:1025B80040F0B280234418461BB0BDE8F08F94F970
:1025C80001102A2909D13B684FF0010A1A1D3A6007
:1025D80094F902101A68023475E7A1F13003DBB2EE
:1025E800092B4FF0000204F1010400F2E18002EB34
:1025F800820201EB420214F9011F303AA1F13003C3
:10260800DBB2092BF3D94FF0010A5CE7134610221D
:10261800386801680430CDE9005638600DEB0200D7
:10262800FFF78CFE079B15E73B6804A81A1D93F972
:1026380000103A60FFF762FE079B0BE73868134605
:1026480001680430CDE900560A22386004A8FFF773
:1026580075FE079BFEE63B68191D39601D68002D55
:1026680000F08D800132AE1815F9011B00293FF4E6
:10267800F0AEBAF1000F02D0B5423FF4EAAE04A8BA
:10268800FFF73CFE079B002BEEDA18461BB0BDE8AF
:10269800F08F08231022002538680168043038605C
:1026A800CDE900350DEB0200FFF748FE079BD1E6A8
:1026B8003B684FF0010AD3F800B004333B608BEA63
:1026C800EB73A3EBEB73092B09DD4A481946A0FB12
:1026D80003C363290AF1010A4FEAD303F6DC9245E2
:1026E80038BF92460DBB079900250B460029FFF617
:1026F80062AFBBF1000F46DB730752D406F0030349
:10270800022B57D0134659460A22CDE9005604A891
:10271800FFF714FE079B9DE6224649464046039371
:10272800FFF7D2FD039B234445E7BBF1000F06F0FA
:1027380002031BDB710719D4002B53D09AB1F3079E
:102748000FD510E0202104A80392FFF7D7FD0799C1
:10275800039A00290B4605F1FF35FFF62CAF002D33
:10276800C4D0AA45EED307990B46BFE7013D0BB18C
:10277800002AF8D0F107F6D4002DF2D1B3E74FF0D4
:10278800000A1D4D6EE72D2104A80392FFF7B6FD40
:10279800039ACBF1000B079900290B46FFF60BAF04
:1027A800ACE72B2104A80392FFF7A8FD039AF2E7F0
:1027B800924688E6002AA5D1002DA3D0554517D901
:1027C800302104A80392FFF799FD0799013D0029DC
:1027D8000B46FFF6F0AE039A002DEFD10029FFF665
:1027E800EAAE8FE7F007BCD5079B002B8ADAE2E652
:1027F8000B46F3E7CDCCCCCC90ED04000EB400B57D
:1028080082B003AB53F8041B01AA0193FFF70EFE35
:1028180002B05DF804EB03B0704700BF08B5FFF7DE
:102828006BFCFEE7022800D070470249024800F01E
:1028380015BF00BFF84807008C25002008B5FFF732
:10284800EDFF002008BD00BF2DE9F04184B09DF8E0
:102858002870002800F0CB8090461D4602687A4B0D
:1028680004469A4240F0C7800E46002900F0BB801B
:10287800002D00F0BC806268536963B19A681868DB
:102888006946D3699847002840F0B280029BAB4262
:10289800C0F0AD80626813695BB19A6818686946D0
:1028A800D3699847002840F0A380029BAB42C0F050
:1028B8009E80062F40F29B800F2F06D97B1C9B071A
:1028C80040F095801B2F00F09280A268137813F0D7
:1028D800400340F09480C4E90533636884F82070AD
:1028E8005869C4E90368E56118B343680F2F19688C
:1028F800A56100F28680FB1F18BF01234A881B03CD
:1029080022F4405243F0080322F00C0213434B8098
:10291800ABB2CB81C1F80880B8F1000F7CD08368D6
:1029280000685B689847002862D1636894F8207053
:10293800A268D3F810C0BCF1000F2CD0DCF804104A
:102948000F2F096865615ED8072F94BF002001200A
:10295800CF78000127F03C0740F008003843C870E2
:10296800587A1F6AABB218B917B1387B012861D001
:10297800CB814E60002E56D01378DCF8085023F037
:102988002003DCF800006D681370A84780BBA268BC
:1029980094F820706368D17A0F2FC8B2118A89B26F
:1029A80033D9013720F04000BF08053F40F0200030
:1029B8005D7A21F470611B6A41EA072155B94BB170
:1029C8001B7B012B06D1E369012B14BF41F0800169
:1029D80021F0800189B2D07211821378002043F06F
:1029E8006003137004E0B8F1000F7FF441AF0120D9
:1029F80004B0BDE8F081072004B0BDE8F0810820EC
:102A0800F6E702237AE70220A2E7072F94BF40F0F7
:102A1800400000F09F00CBE78B7868F383038B704E
:102A28000A4B8B607BE7CB7866F38303CB70084B4C
:102A38004B60A1E7E06901289AD0581E013D83B296
:102A48006561CB8195E700BF49505352C8250020E6
:102A5800C425002010B594461C4682B00022634667
:102A68000094FFF7F1FE02B010BD00BF4268436951
:102A7800517A126A19B912B1127B012A24D0C2699B
:102A8800511E99420FD09A420CD08168C26832B167
:102A980090F820C0BCF10F0F0DD952F823204A60DE
:102AA80001334361704781680A8A22F08002120468
:102AB800120C0A82EAE7BCF1070F95BFD25C32F824
:102AC80013200A718A80EBE78268D2789206E9D5EA
:102AD800D5E700BF30B5836A85B004468C4601ADA2
:102AE800ABB193E8070085E80700626818461178DB
:102AF80083F804C0E26A19609A60636A9847A36A17
:102B08001BB195E8070083E8070005B030BD2B46E8
:102B1800EBE700BF2DE9F04F83B000284BD0B84B4E
:102B2800026804469A4200F052810D46002942D0BC
:102B38008B69002B3FD00A6A002A3CD00B78012B06
:102B480000F23F8191F90310002934DB95F9041054
:102B5800002930DB697A012900F03E8119B9117B1F
:102B6800012900F05981DFF8AC822F691B029844D3
:102B780067B14FF00062796838680B681A60C3F86B
:102B88000880BB681B6898470646A8B96B69BBB143
:102B9800D3E901124FF4002618680B6812681E600A
:102BA800C3F804809047064650B12FB1BB68386817
:102BB8001B6A984700E00126304603B0BDE8F08F55
:102BC8000022D5E90613C4E90A2365606162287802
:102BD80000F5800303F58D531B02A3606F7A002F65
:102BE80000F000811146B02694466B7B95F80BE007
:102BF8002A6A1B03AD7A43EA4E032B431578002D4E
:102C080040F0FB8001218140890704D0B7FA87F1A1
:102C1800490943EAC11392F801E090784FEA4E114E
:102C280026EACE1641EA4E0123F070053143D378E7
:102C3800167998401B011EB1022E0CBF30262026A3
:102C480092F805E0BEF1000F06D0BEF1010F14BFE7
:102C58004CF0010C4CF0030C92F808E092F8068056
:102C68000EF0030E43EA8E032B43002F40F0C18081
:102C7800957A92F809A0D77A43F460430195EFF367
:102C880010894FF0010E8EF3108865682D78C5F114
:102C980013050EFA05FE5B4DD5F804B02BEA0E0BB2
:102CA800C5F804B06D6889F310884FF0000EA56868
:102CB800C9B2C0B295F8039085F803E0297068702E
:102CC800AE70D1799BB2A97201995FFA8CFC85F834
:102CD8000CA06973AF7385F80FC02B82636885F801
:102CE8002080597A002940F08280127B012A0CBF8B
:102CF8001222102285F8212093F90220002A80F25E
:102D08009080414893F90120002A26DB5B7902F183
:102D180060411B01DBB201F5614181F800333B4B97
:102D280002F1C00140F8224053F8215025F48035C3
:102D380043F8215053F82130BFF35F8F0121530925
:102D48009B0002F01F0203F1604303F5614301FA9F
:102D580002F2C3F880211A6063681A7A2C4993F941
:102D680004301201294DCE18D2B286F8002303F19F
:102D7800C00240F8234055F8226026F4803645F812
:102D8800226055F82220BFF35F8F012203F01F0550
:102D98005B099B0003F1604303F56143AA40C3F854
:102DA80080211A606368002693F90320DB791144B7
:102DB8001B01DBB281F80033114B40F8224023603D
:102DC800FAE640F27A56304603B0BDE8F08F0E2698
:102DD800304603B0BDE8F08FAA7A012A3FF4C3AEAB
:102DE8000626E9E6B82608214FF0100CFDE6102269
:102DF80080E70027BA46019741E741F0B1060AE7A4
:102E080049505352004008401026002000600040FE
:102E180000E100E004A011401278012A7FF4A3AE7B
:102E2800DEE79B7902F160411B011248DBB201F534
:102E3800614181F80033104B02F1C00140F8224093
:102E480053F8215025F4803543F8215053F82130A8
:102E5800BFF35F8F012153099B0002F01F0203F1AA
:102E6800604303F5614301FA02F2C3F880211A6056
:102E7800636847E7102600200060004010B4EFF3B5
:102E88000383103B214A5BB203F1C00152F82100D1
:102E980020F4803042F8210052F821201C4A52F8D0
:102EA8002330D3E906218A421CD018699C6838B3BC
:102EB80093F820C0BCF10F0F0AD9616840F82210BE
:102EC800D96901328A429A610CD05DF8044B704787
:102ED800BCF1070F16D821798154D96901328A4289
:102EE8009A61F2D15B6893F90330012203F01F0065
:102EF80008495B09824041F823205DF8044B70477C
:102F08006068DEE7A48820F81240DAE70060004035
:102F18001026002000E100E0EFF30383103B254A70
:102F28005BB203F1C00152F8210020F4803042F86E
:102F3800210052F82110204951F8230041680B6AFA
:102F480013B15B78012B01D0FFF790BD10B4C469B1
:102F580004F1FF3C446964450FD00A694AB191F90C
:102F68000320164902F01F0C03FA0CF3520941F82A
:102F780022305DF8044BFFF779BD91F9031001F198
:102F8800C00C52F82C4024F4803442F82C4052F8FB
:102F98002C20BFF35F8F4A09920001F01F0102F154
:102FA800604203FA01F102F56142C2F88011116032
:102FB800DFE700BF006000401026002000E100E0CD
:102FC80030B4EFF30382103A344953B203F1C0002E
:102FD80051F8204002F0FF0224F4803441F82040E8
:102FE80051F820102E4951F823008168C9788907C3
:102FF80005D54168497A012901D030BC70470121C3
:10300800284C5B0902F01F02203301FA02F244F84F
:103018002320BFF34F8FBFF36F8F436893F90230BC
:10302800002B32DB5A0903F01F0301FA03F32032A5
:1030380044F82230BFF34F8FBFF36F8FD0E90124DC
:10304800237892F9022023F04003002A237018DB2A
:10305800124B02F1C00453F8245025F4803543F88C
:10306800245053F82430BFF35F8F53099B0002F0BC
:103078001F0203F16043914003F56143C3F88011D7
:103088001960012130BCFFF725BD8268012130BCE1
:10309800137823F040031370FFF71CBD0060004055
:1030A8001026002000E100E070B5EFF30383364AF4
:1030B800103B5CB252F82460736893F90230002B1D
:1030C80049DB012031495A0903F01F03203200FA75
:1030D80003F341F82230BFF34F8FBFF36F8FD6E968
:1030E800013293F902301178002B21F04001117060
:1030F80019DB274A03F1C00152F8215025F4803525
:1031080042F8215052F82120BFF35F8F03F01F02CD
:103118005B099B0003F16043904003F56143C3F8EA
:1031280080011860B2680021D378D1701A07DDB227
:1031380024D4EB0715D405F01405142D19D0144A1E
:1031480004F1C00352F8231021F4803142F823100F
:1031580052F8233070BDB268137823F0400313701F
:10316800E1E70421304605F01405FFF7B3FC142D00
:10317800E5D108213046FFF7ADFCE0E705213046F0
:10318800FFF7A8FCD5E700BF1026002000E100E00B
:1031980000600040F0B5846A85B005460F46944645
:1031A8006E46B4B194E80F0086E80F00EB6920463C
:1031B8001B7884F804C02360EB6AC4E902736B6A65
:1031C8009847AC6A1CB196E80F0084E80F0005B078
:1031D800F0BD3446EAE700BFF0B5EFF30383103BD8
:1031E8003C4A5BB203F1C00152F8210020F4803060
:1031F80042F8210052F82120374A52F82300C369C7
:103208001B699BB1036903B1F0BD046A0021A3786F
:10321800426A03F07F0343F00403A370C160002AED
:10322800F2D0BDE8F0408022FFF7B4BF0369046A1A
:10323800002BEBD005782DB3E18AC1F30421A94214
:1032480041D290F802E0254F0EF00306CEF3010EAE
:103258000CE092F800C084F80FC00131A3EB0E0314
:103268007244A942C0E903231FD2F3B1022EC268F7
:10327800EFD1B2F800C04CEA070C1FFA8CFCA4F896
:103288000EC0EAE790F802E0C2680EF003010229D6
:1032980014D01178E1700EF0030EA3EB0E03724404
:1032A800C0E90323002BAFD1AFE7227902F07D02FA
:1032B80042F002022271002BA6D1A6E7118841F440
:1032C8007E41E181E7E7237903F07D0343F00203C0
:1032D8002371F0BD006000401026002000FEFFFFB3
:1032E80010B582B0EFF30383103B274A5BB203F1BA
:1032F800C00152F8210020F4803042F8210052F831
:103308002120224A52F823402078236AA8B9A278BB
:1033180002F00302022A13D05979A369C9B20191B4
:10332800ABB9636A23B120460422FFF733FF207844
:1033380040B3236ADA8AD20622D0DA8AD1061FD0AD
:10334800198AA369C1F308010191002BE9D0A27879
:1033580001A902F00302606900F052FCD4E90521DA
:10336800A37803F003031A44C91AC4E9052129B94B
:10337800636A1BB101222046FFF70CFF2078D7E7CC
:10338800BE221A7102B010BD006000401026002055
:1033980010B5EFF303830E4A103B5CB252F82400D9
:1033A800D0E90821937803F07B03937019B10222C6
:1033B8000021FFF7EFFE074A04F1C00352F823107B
:1033C80021F4803142F8231052F8233010BD00BF99
:1033D800102600200060004010B5EFF303831C4A5C
:1033E800103B5CB252F82400037843B9837803F0A9
:1033F8000303022B03D0036A5979C9B203E0036AB5
:10340800198AC1F3080193F804C01CF0100F0CF0DE
:10341800380206D093F81CC01CF0010F08BF42F018
:10342800400293F804C00CF0C70C83F804C0436A48
:103438000BB1FFF7AFFE074A04F1C00352F823109F
:1034480021F4803142F8231052F8233010BD00BF18
:1034580010260020006000402DE9F84F0388DBB1FA
:1034680082464FF0000B4FF00109DFF8D0800024AE
:10347800304D4FEACB07DAF8043035F8022BD9196A
:10348800898891420AD00134032CF4D1BAF800306B
:103498000BF1010B5B45EAD8BDE8F88FDB5909FA57
:1034A80004F603F0B853B3F1807FF6B298F8BB3452
:1034B80013D0334231D1204A04F1200612F81630D5
:1034C800DB09E0D012F81630012123F08003C82070
:1034D80002F8163000F0EAF9D5E7334211D0164A5F
:1034E80004F1200112F81130DB09CCD112F81130A7
:1034F800C82043F0800302F81130012100F0D6F90A
:10350800C1E7012000F0B0FA98F8BB34012033433A
:1035180088F8BB3400F078FAE1E7012000F0A4FA5B
:1035280098F8BB34012023EA060388F8BB3400F07E
:103538006BFAC0E7744B07000030084000E0014018
:1035480080B10A4B006898420ED15AB10B0A08485C
:103558001B0153FA81F150F821300020C3F34003D6
:1035680013707047012070470720704754524F501E
:1035780000080840C0B10D4B0068984210D1012ADC
:1035880010D80123C8B283409BB202B91B04090AB0
:10359800490101F1804101F5002100208B6070474D
:1035A80007207047032070470120704754524F503E
:1035B800F8B50446FFF750FFEFF31082012383F3B9
:1035C8001088234F3B681BB92249CB704023CB702E
:1035D8003B6801333B6082F3108823882BB3616812
:1035E8001D4C01EBC30E06E01B01083113448E4548
:1035F80044F8230019D008688A88C5034FEA1223C3
:10360800D2B2F1D502EB031C54F82C601B0108312F
:1036180020F4803526F4803613448E4544F82C6017
:1036280044F82C5044F82300E5D1EFF3108201232D
:1036380083F310883B6813B13B68013B3B603B68F0
:103648001BB980200349CB70C87082F31088F8BD7D
:103658000C260020000D08400008084098B191B1E0
:103668004A6808B503464AB1094A186890420CD01E
:1036780008461A60FFF79CFF002008BD0A88002A48
:10368800F2D0012008BD012070470E2008BD00BF00
:1036980054524F50064B074993F826001A6A51F8BE
:1036A8002030C2F302620449D3400B60704700BF68
:1036B80000E00140200400203C260020704700BFA5
:1036C8004AF2035001234049404A2DE9F041A1F84C
:1036D800FE03A2F80431B2F804319BB2002BFAD1F0
:1036E80001254FF400474FF0090E394C3948DFF8EF
:1036F800F8C0394E34496660E0606061A2F8005154
:10370800CCF80850CCF8005091F826202060A7602B
:103718002761086A54F82220304EC0F30260C24084
:10372800326081F8133481F8A2E091F880341BB933
:1037380091F881349A0741D0234D95F8803493B39A
:103748000022214B83F8812483F8802400231E4A19
:1037580082F8363092F83C30DB07FBD54FF0000C8E
:103768004FF0F10801254FF0F00E4FF425471C4BA0
:10377800136282F826C092F82610106A54F82110B5
:10378800184BC0F30260C140316083F80C8083F8A5
:1037980008C083F80CE082F8305082F85250A2F842
:1037A800FE73BDE8F0810121C82085F8801400F07F
:1037B8007DF895F88034012BFBD1C1E74FF47A707E
:1037C800FFF77CFFC2E700BF00E0014000C00140F6
:1037D80020040020002D310100127A003C26002030
:1037E80020110120002000400070004038B500255D
:1037F800284C0121C82084F8285000F057F884F894
:10380800245094F82430002BFBD194F8243021491B
:1038180043F0020384F8243091F82430C3F34000C5
:103828009B07F9D41B4A81F8220092F8223003F052
:10383800FF00002BF9D192F84030164960F3C71306
:1038480082F8403091F84030DB09FBD191F8420012
:10385800104A63F3C71081F8420092F84230DB093E
:10386800FBD192F844000B4963F3C71082F8440077
:1038780091F84430C3F3C014DB09F9D1012000F0FA
:10388800F3F8054B012083F8BB44BDE8384000F04D
:10389800BBB800BF0030084000E00140704700BFDF
:1038A800A0F101000028FBD1704700BF1F4B204A40
:1038B8001B6800FB01F1934213D302F1854202F524
:1038C800071203F5741302F6834203F6FF03A2FB03
:1038D80003231B0DA3FB01314FF0FF30F9B1FFF7B4
:1038E800DFBF4FF47A7210B4A1FB02C41148B0FBD9
:1038F800F3F34FF0FF3044B9BCFBF3FC4FEA9C00F4
:1039080088B15DF8044BFFF7CBBF9B00B1FBF3F127
:10391800A1FB0212002AF4D1084620B1F1E71846AB
:10392800002BDCD170475DF8044B70473C26002023
:1039380000127A0000CA9A3B70B500240B4B0C4E5B
:10394800B3F82021B3F84051ADB2154025FA04F37D
:10395800DB0704D556F82430E0B203B198470134A8
:10396800102CF3D1014BA3F8305170BD006000401A
:10397800CC25002030B5032085B000F075F800256F
:103988006FF0FF004FF0FF321B4B1C4C9864214630
:103998002B464FF0010ECDE90122039231F8020FB8
:1039A8000EFA03FC013310B1012522EA0C02082BA0
:1039B800F4D1F5B10192124B0F4903200A67C3F8FD
:1039C8008022029A4A67C3F88422039A8A67C3F856
:1039D800882200F019F800230A4834F8022F03F16E
:1039E800C00101330AB140F82120082BF5D105B0F8
:1039F80030BD4FF0FF32DEE700800040624B070029
:103A080000E100E000600040EFF31081012383F340
:103A18001088124B33F8102092B22AB133F81020D4
:103A2800013A92B223F8102033F810309BB293B9C0
:103A38000B4A10B4B2F8FE330A4C9BB234F81000AB
:103A480043F4254323EA0003A2F8FE3381F31088E8
:103A58005DF8044B704781F31088704730260020CA
:103A680000E00140544C070030B4EFF3108101230B
:103A780083F310880E4A32F810309BB26BB90D4CA4
:103A88000D4DB4F8FE3335F810C09BB243EA0C0371
:103A980043F425439BB2A4F8FE3332F810300133C7
:103AA8009BB222F8103081F3108830BC704700BFF9
:103AB8003026002000E00140544C070000BE70474B
:103AC80008B500F035F8FEF7B9FEFEE7F8B5174F70
:103AD80005463E68A6B17C6806EB460604EB8606FA
:103AE80002E00C34B4420BD0637AAB42F9D1D4E98A
:103AF80000020021121A0C3400F07AF8B442F3D113
:103B0800BE6896B1FC6804EB061602E01034A642C3
:103B18000BD0637BAB42F9D1D4E90002A168121A39
:103B2800103400F06DF8A642F3D1F8BD7C4B0700C5
:103B38004FF47001274B284A70B50020C3F888104D
:103B48009A60FEF76FFEFFF7BBFD0120FEF76AFEE5
:103B5800224B83F30A880020FFF7B8FFFFF79AFD8E
:103B6800FFF744FE0320FFF77FFF00234FF6FF70A7
:103B78001B4903F1080201330C2B21F81200F8D17C
:103B880000240320FFF740FF0320FFF76DFF154BCC
:103B980003205C609C60DC601C61FFF735FF01203E
:103BA800FFF794FF104D114B5B1BA3424FEAA3068E
:103BB80005DD55F8043B01349847A642F9DC02209C
:103BC800FEF730FEFFF7D6FEBDE870400020FFF795
:103BD80065BE00BF00ED00E00000000020000020EE
:103BE800000D084000000E40B84C0700BC4C070010
:103BF80002440346934200D1704703F8011BF9E7DA
:103C08000A44431E914200D1704710B511F8014B88
:103C1800914203F8014FF9D110BD0000FFFFFFFFEB
:103C2800FFFFFFFFFFFFFFFFFFFFFFFFFFFFFFFF9C
:103C3800FFFFFFFFFFFFFFFFFFFFFFFFFFFFFFFF8C
:103C4800FFFFFFFFFFFFFFFFFFFFFFFFFFFFFFFF7C
:103C5800FFFFFFFFFFFFFFFFFFFFFFFFFFFFFFFF6C
:106C2800FFDFFFDFFFDFFFDFFFDFFFDFFFDFFFFF4C
:106C3800FFFFFFFFFFFFFFFFFFFFFFFFFFFFFFFF5C
:106C4800FFFFFFFFFFFFFFFFFFFFFFFFFFFFFFFF4C
:106C5800FFFFFFFFFFFFFFFFFFFFFFFFFFFFFFFF3C
:106C6800FFFFFFFFFFFFFFFFFFFFFFFFFFFFFFFF2C
:106C7800FFFFFFFFFFFFFFFFFFFFFFFFFFFFFFFF1C
:106C8800FFFFFFFFFFFFFFFFFFFFFFFFFFFFFFFF0C
:106C9800FFFFFFFFFFFFFFFFFFFFFFFFFFFFFFFFFC
:106CA800FFFFFFFFFFFFFFFFFFFFFFFFFFFFFFFFEC
:106CB800FFFFFFFFFFFFFFFFFFFFFFFFFFFFFFFFDC
:106CC800FFFFFFFFFFFFFFFFFFFFFFFFFFFFFFFFCC
:106CD800FFFFFFFFFFFFFFFFFFFFFFFFFFFFFFFFBC
:106CE800FFFFFFFFFFFFFFFFFFFFFFFFFFFFFFFFAC
:106CF800FFFFFFFFFFFFFFFFFFFFFFFFFFFFFFFF9C
:106D0800FFFFFFFFFFFFFFFFFFFFFFFFFFFFFFFF8B
:106D1800FFFFFFFFFFFFFFFFFFFFFFFFFFFFFFFF7B
:106D2800FFFFFFFFFFFFFFFFFFFFFFFFFFFFFFFF6B
:106D3800FFFFFFFFFFFFFFFFFFFFFFFFFFFFFFFF5B
:106D4800FFFFFFFFFFFFFFFFFFFFFFFFFFFFFFFF4B
:106D5800FFFFFFFFFFFFFFFFFFFFFFFFFFFFFFFF3B
:106D6800FFFFFFFFFFFFFFFFFFFFFFFFFFFFFFFF2B
:106D7800FFFFFFFFFFFFFFFFFFFFFFFFFFFFFFFF1B
:106D8800FFFFFFFFFFFFFFFFFFFFFFDFFFDFFFDF6B
:106D9800FFDFFFDFFFDFFFDFFFDFFFDFFFDFFFDFFB
:106DA800FFDFFFDFFFDFFFDFFFDFFFDFFFDFFFDFEB
:106DB800FFDFFFDFFFDFFFDFFFDFFFDFFFDFFFDFDB
:106DC800FFDFFFDFFFDFFFDFFFDFFFDFFFDFFFDFCB
:106DD800FFDFFFDFFFDFFFDFFFFFFFFFFFFFFFFF3B
:106DE800FFFFFFFFFFFFFFFFFFFFFFFFFFFFFFFFAB
:106DF800FFFFFFFFFFFFFFFFFFFFFFFFFFFFFFFF9B
:106E0800FFFFFFFFFFFFFFFFFFFFFFFFFFFFFFFF8A
:106E1800FFFFFFFFFFFFFFFFFFFFFFFFFFFFFFFF7A
:1070D800FFFFFFFFFFFFFFFFFFFFFFFFDEDB8C511E
:1070E80052AA52AA52AA52AA52AA52AA52AA52AAB8
:1070F80052AA52AA52AA52AA52AA52AA52AA52AAA8
:1071080052AA52AA52AA52AA52AA52AA52AA52AA97
:1071180052AA52AA52AA52AA52AA52AA52AA52AA87
:1071280052AA52AA52AA52AA52AA52AA52AABDD7DF
:10713800EF7DFFFFFFDFFFFFFFFFFFFFFFFFFFFF09
:10714800FFFFFFFFFFFFFFFFFFFFFFFFFFFFFFFF47
:10715800FFFFFFFFFFFFFFFFFFFFDEDBDEDBFFFFC1
:10716800FFFFFFFFFFFFFFFFFFFFFFFFFFFFFFFF27
:10717800FFFFFFFFFFFFDEDBDEDBEF7DFFFFFFFF33
:10718800FFFFFFFFDEDBDEDBE73CFFFFFFFFFFFF6C
:10719800FFFFFFFFFFFFFFFFFFFFFFFFFFFFFFFFF7
:1071A800E71CDEDBDEFBFFFFFFFFFFFFFFFFE73C27
:1071B800DEDBDEDBFFFFFFFFFFFFFFFFEF7DDEDB38
:1071C800DEDBFFFFFFFFFFFFFFFFFFFFFFFFFFFF0C
:1071D800FFFFFFFFFFFFFFFFFFFFFFFFFFFFFFFFB7
:1071E800FFFFFFFFFFFFFFFFDEDBDEDBF7BEFFFF7A
:1071F800FFFFFFFFFFFFDEDBDEDBEF7DFFFFFFFFB3
:10720800FFFFFFFFFFFFFFFFFFFFFFFFFFFFFFFF86
:10721800FFFFDEFBDEDBE71CFFFFFFFFFFFFFFFFDB
:10722800E71CDEDBDEFBFFFFFFFFFFFFFFFFFFFFCB
:10723800FFFFFFFFFFFFFFFFFFFFFFFFEF7DDEDB2D
:10724800DEDBFFFFFFFFFFFFFFFFFFFFFFFFFFFF8B
:10725800FFFFFFFFFFFFFFFFFFFFDEDBDEDBFFFFC0
:10726800FFFFFFFFFFFFFFFFDEDBDEDBF7BEFFFFF9
:10727800FFFFFFFFFFFFFFFFFFFFFFFFFFFFFFFF16
:10728800FFFFFFDFFFFFEF7DBDD752AA52AA52AA28
:1072980052AA52AA52AA52AA52AA52AA52AA52AA06
:1072A80052AA52AA52AA52AA52AA52AA52AA52AAF6
:1072B80052AA52AA52AA52AA52AA52AA52AA52AAE6
:1072C80052AA52AA52AA52AA52AA52AA52AA52AAD6
:1072D80052AA52AA52AA52AA8C51DEDBFFFFFFFF24
:1072E800FFFFFFFFFFFFFFFFFFFFFFFFFFFFFFFFA6
:1072F800FFFFFFFFFFFFFFFFFFFFFFFFFFFFFFFF96
:10730800FFFFFFFFFFFFFFFFFFFFFFFFFFFFFFFF85
:10731800FFFFFFFFFFFFFFFFFFFFFFFFFFFFFFFF75
:10732800FFFFFFFFFFFFFFFFFFFFFFFFFFFFFFFF65
:10733800FFFFFFFFFFFFFFFFFFFFFFFFFFFFFFFF55
:10734800FFFFFFFFFFFFFFFFFFFFFFFFFFFFFFFF45
:10735800FFFFFFFFFFFFFFFFFFFF8430000000007B
:107368000000000000000000000000000000000015
:107378000000000000000000000000000000000005
:1073880000000000000000000000000000000000F5
:1073980000000000000000000000000000000000E5
:1073A80000000000000000000000000000000000D5
:1073B80018E3B5B6FFFFFFFFFFFFFFFFFFFFFFFF6B
:1073C800FFFFFFFFFFFFFFFFFFFFFFFFFFFFFFFFC5
:1073D800FFFFFFFFFFFFDEDB39C70000000039C7F2
:1073E800DEDBFFFFFFFFFFFFFFFFFFFFFFFFFFFFEA
:1073F800FFFFF79E5AEB000000002104BDD7FFFFF6
:10740800F79E73AE0000000010A2AD55FFDFFFFF2E
:10741800FFFFFFFFFFFFFFFFFFFFFFFFFFDF9CD323
:107428000841000000008C51F7BEFFDFAD5510A2E7
:107438000000000073AEF79EFFFFBDD721040000D7
:1074480000005AEBF79EFFFFFFFFFFFFFFFFFFFF64
:10745800FFFFFFFFFFFFFFFFFFFFFFFFFFFFFFFF34
:10746800FFFFFFFFE73C4A49000000002965CE59AD
:10747800FFFFF79E5AEB000000002104BDD7FFDF95
:10748800FFFFFFFFFFFFFFFFFFFFFFFFFFFFF7BE4D
:107498008C510000000008419CD3FFDFFFDF9CD324
:1074A8000841000000008C51F7BEFFFFFFFFFFFFFF
:1074B800FFFFFFFFFFFFFFFFFFDFBDD72104000035
:1074C80000005AEBF79EFFFFFFFFFFFFFFFFFFFFE4
:1074D800FFFFFFFFFFFFDEDB39C70000000039C7F1
:1074E800DEDBFFDFE73C4A49000000002965CE5992
:1074F800FFFFFFFFFFFFFFFFFFFFFFFFFFFFFFFF94
:10750800FFFFFFFFB5B618E3000000000000000011
:107518000000000000000000000000000000000063
:107528000000000000000000000000000000000053
:107538000000000000000000000000000000000043
:107548000000000000000000000000000000000033
:107558000000000000000000000000008430FFFF71
:10756800FFFFFFFFFFFFFFFFFFFFFFFFFFFFFFFF23
:10757800FFFFFFFFFFFFFFFFFFFFFFFFFFFFFFFF13
:10758800FFFFFFFFFFFFFFFFFFFFFFFFFFFFFFFF03
:10759800FFFFFFFFFFFFFFFFFFFFFFFFFFFFFFFFF3
:1075A800FFFFFFFFFFFFFFFFFFFFFFFFFFFFFFFFE3
:1075B800FFFFFFFFFFFFFFFFFFFFFFFFFFFFFFFFD3
:1075C800FFFFFFFFFFFFFFFFFFFFFFFFFFFFFFFFC3
:1075D800FFFFFFFFFFFFE71C42280000000000003C
:1075E8000020002000200020002000200020002093
:1075F8000020002000200020002000200020002083
:107608000020002000200020002000200020002072
:107618000020002000200020002000200020002062
:107628000020002000200020002000200020000072
:10763800000000008410FFDFFFFFFFFFFFFFFFFFD8
:10764800FFFFFFFFFFFFFFFFFFFFFFFFFFFFFFFF42
:10765800FFFFFFFFFFFF21240000000000000000E3
:107668002124FFFFFFFFFFFFFFFFFFFFFFFFFFDFFB
:10767800FFFF5AEB00000020000000000000FFFFA1
:10768800841000000020000000000000D6BAFFFFB0
:10769800FFFFFFFFFFFFFFFFFFDFFFFFBDD700007A
:1076A8000020000000200000A534EF5D000000006D
:1076B8000000002000008410FFFF00000000000010
:1076C800002000005AEBFFFFFFDFFFFFFFFFFFFF77
:1076D800FFFFFFFFFFFFFFFFFFFFFFFFFFFFFFFFB2
:1076E800FFDFFFFF42080000002000000000084103
:1076F800FFFF630C00000020000000000000EF5DA9
:10770800FFFFFFFFFFFFFFFFFFFFFFDFFFFF9CF310
:1077180000000020000000200000CE59CE590000D3
:1077280000200000002000009CF3FFFFFFDFFFFFA8
:10773800FFFFFFFFFFFFFFFFEF5D000000000000FD
:10774800002000005AEBFFFFFFDFFFFFFFFFFFFFF6
:10775800FFFFFFFFFFFF21240000000000000000E2
:107768002104FFFF39E70000002000000000086145
:10777800FFFFFFFFFFFFFFFFFFFFFFFFFFFFFFFF11
:10778800FFDF84100000000000000020002000201F
:1077980000200020002000200020002000200020E1
:1077A80000200020002000200020002000200020D1
:1077B80000200020002000200020002000200020C1
:1077C80000200020002000200020002000200020B1
:1077D80000200020002000200000000000004228B7
:1077E800E71CFFFFFFFFFFFFFFFFFFFFFFFFFFFF9C
:1077F800FFFFFFFFFFFFFFFFFFFFFFFFFFFFFFFF91
:10780800FFFFFFFFFFFFFFFFFFFFFFFFFFFFFFFF80
:10781800FFFFFFFFFFFFFFFFFFFFFFFFFFFFFFFF70
:10782800FFFFFFFFFFFFFFFFFFFFFFFFFFFFFFFF60
:10783800FFFFFFFFFFFFFFFFFFFFFFFFFFFFFFFF50
:10784800FFFFFFFFFFFFFFFFFFFFFFFFFFFFFFFF40
:10785800FFFFFFFFFFFF2965000000200000000078
:1078680000000000000000000000000000000020F0
:107878000020002000200020002000200020002000
:1078880000200020002000200020002000200020F0
:1078980000200020002000200020002000200020E0
:1078A80000000000000000000000000000000000D0
:1078B8000000002000008410FFFFFFDFFFFFFFFF34
:1078C800FFFFFFFFFFFFFFFFFFFFFFFFFFFFFFFFC0
:1078D800FFFFFFFFFFFF2124000000000000000061
:1078E8002124FFFFFFFFFFFFFFFFFFFFFFFFFFDF79
:1078F800FFFF5AEB00000020000000000000FFFF1F
:10790800841000000020000000000000D6BAFFFF2D
:10791800FFFFFFFFFFFFFFFFFFDFFFFFBDD70000F7
:107928000020000000200000A534EF5D00000000EA
:107938000000002000008410FFFF0000000000008D
:10794800002000005AEBFFFFFFDFFFFFFFFFFFFFF4
:10795800FFFFFFFFFFFFFFFFFFFFFFFFFFFFFFFF2F
:10796800FFDFFFFF42080000002000000000084180
:10797800FFFF630C00000020000000000000EF5D26
:10798800FFFFFFFFFFFFFFFFFFFFFFDFFFFF9CF38E
:1079980000000020000000200000CE59CE59000051
:1079A80000200000002000009CF3FFFFFFDFFFFF26
:1079B800FFFFFFFFFFFFFFFFEF5D0000000000007B
:1079C800002000005AEBFFFFFFDFFFFFFFFFFFFF74
:1079D800FFFFFFFFFFFF2124000000000000000060
:1079E8002104FFFF39E700000020000000000861C3
:1079F800FFFFFFFFFFFFFFFFFFFFFFFFFFDFFFFFAF
:107A080084100000002000000000000000000000BA
:107A180000000000000000000020002000200020DE
:107A2800002000200020002000200020002000204E
:107A3800002000200020002000200020002000203E
:107A4800002000200020002000200000000000008E
:107A580000000000000000000000000000200000FE
:107A68002965FFFFFFFFFFFFFFFFFFFFFFFFFFFF8E
:107A7800FFFFFFFFFFFFFFFFFFFFFFFFFFFFFFFF0E
:107A8800FFFFFFFFFFFFFFFFFFFFFFFFFFFFFFFFFE
:107A9800FFFFFFFFFFFFFFFFFFFFFFFFFFFFFFFFEE
:107AA800FFFFFFFFFFFFFFFFFFFFFFFFFFFFFFFFDE
:107AB800FFFFFFFFFFFFFFFFFFFFFFFFFFFFFFFFCE
:107AC800FFFFFFFFFFFFFFFFFFFFFFFFFFFFFFFFBE
:107AD800FFDFFFFF7BEF0000002000000000000038
:107AE800000000000000000000000000000000008E
:107AF800000000000000000000000000000000007E
:107B0800000000000000000000000000000000006D
:107B1800000000000000000000000000000000005D
:107B2800000000000000000000000000000000004D
:107B38000000000000200841CE79FFFFFFFFFFFF93
:107B4800FFFFFFFFFFFFFFFFFFFFFFFFFFFFFFFF3D
:107B5800FFFFFFFFFFFFDEDB39C70000000039C76A
:107B6800DEDBFFFFFFFFFFFFFFFFFFFFFFFFFFFF62
:107B7800FFFFF79E5AEB000000002104BDD7FFFF6E
:107B8800F79E73AE0000000010A2AD55FFDFFFFFA7
:107B9800FFFFFFFFFFFFFFFFFFFFFFFFFFDF9CD39C
:107BA8000841000000008430F7BEFFDFAD5510A289
:107BB8000000000073AEF79EFFFFBDD718E300007A
:107BC80000005ACBF79EFFFFFFFFFFFFFFFFFFFFFD
:107BD800FFFFFFFFFFFFFFFFFFFFFFFFFFFFFFFFAD
:107BE800FFFFFFFFE73C4A49000000002965CE5926
:107BF800FFFFF79E5ACB0000000018E3BDD7FFDF58
:107C0800FFFFFFFFFFFFFFFFFFFFFFFFFFFFF7BEC5
:107C18008C510000000008419CD3FFDFFFDF9CD39C
:107C28000841000000008430F7BEFFFFFFFFFFFFA0
:107C3800FFFFFFFFFFFFFFFFFFDFBDD718E30000D7
:107C480000005ACBF79EFFFFFFFFFFFFFFFFFFFF7C
:107C5800FFFFFFFFFFFFDEDB39C70000000039C769
:107C6800DEDBFFDFE73C4228000000002945CE5953
:107C7800FFFFFFFFFFFFFFFFFFFFFFFFFFFFCE79C3
:107C88000841002000000000000000000000000083
:107C980000000000000000000000000000000000DC
:107CA80000000000000000000000000000000000CC
:107CB80000000000000000000000000000000000BC
:107CC80000000000000000000000000000000000AC
:107CD800000000000000000000000000000000207C
:107CE80000007BEFFFFFFFDFFFFFFFFFFFFFFFFF4E
:107CF800FFFFFFFFFFFFFFFFFFFFFFFFFFFFFFFF8C
:107D0800FFFFFFFFFFFFFFFFFFFFFFFFFFFFFFFF7B
:107D1800FFFFFFFFFFFFFFFFFFFFFFFFFFFFFFFF6B
:107D2800FFFFFFFFFFFFFFFFFFFFFFFFFFFFFFFF5B
:107D3800FFFFFFFFFFFFFFFFFFFFFFFFFFFFFFFF4B
:107D4800FFFFFFFFFFFFFFFFFFFFFFFFFFFFFFFF3B
:107D5800FFDFFFFF6B6D0000002000000000000047
:107D6800000000000000000000000000210452AAEA
:107D7800528A52AA52AA52AA52AA52AA52AA52AA3B
:107D880052AA52AA52AA52AA52AA52AA52AA52AA0B
:107D980052AA52AA52AA52AA52AA52AA528A52AA1B
:107DA80000000000000000000000000000000000CB
:107DB8000000000000200000CE59FFFFFFFFFFFF7A
:107DC800FFFFFFFFFFFFFFFFFFFFFFFFFFFFFFFFBB
:107DD800FFFFFFFFFFFFFFFFFFFFDEDBDEDBFFFF35
:107DE800FFFFFFFFFFFFFFFFFFFFFFFFFFFFFFFF9B
:107DF800FFFFFFFFFFFFDEDBDEDBEF7DFFFFFFFFA7
:107E0800FFFFFFFFDEDBDEDBE73CFFFFFFFFFFFFDF
:107E1800FFFFFFFFFFFFFFFFFFFFFFFFFFFFFFFF6A
:107E2800EF7DE71CEF5DFFFFFFFFFFFFFFFFE73C74
:107E3800DEDBDEDBFFFFFFFFFFFFFFFFFFDFE73CCF
:107E4800E73CFFFFFFFFFFFFFFFFFFFFFFFFFFFF15
:107E5800FFFFFFFFFFFFFFFFFFFFFFFFFFFFFFFF2A
:107E6800FFFFFFFFFFFFFFFFDEDBDEDBF7BEFFFFED
:107E7800FFFFFFFFFFFFE73CE73CFFDFFFFFFFFFE0
:107E8800FFFFFFFFFFFFFFFFFFFFFFFFFFFFFFFFFA
:107E9800FFFFDEFBDEDBE71CFFFFFFFFFFFFFFFF4F
:107EA800EF7DE71CEF5DFFFFFFFFFFFFFFFFFFFF19
:107EB800FFFFFFFFFFFFFFFFFFFFFFFFFFDFE73CC5
:107EC800E73CFFFFFFFFFFFFFFFFFFFFFFFFFFFF95
:107ED800FFFFFFFFFFFFFFFFFFFFDEDBDEDBFFFF34
:107EE800FFFFFFFFFFFFFFFFE73CE73CFFFFFFFF50
:107EF800FFFFFFFFFFFFFFFFFFFFFFFFFFFFCE5961
:107F08000000002000000000000000000000000049
:107F1800000000000000000052AA528A52AA52AA89
:107F280052AA52AA52AA52AA52AA52AA52AA52AA69
:107F380052AA52AA52AA52AA52AA52AA52AA52AA59
:107F480052AA52AA52AA528A52AA21040000000038
:107F580000000000000000000000000000000020F9
:107F680000006B6DFFFFFFDFFFFFFFFFFFFFFFFF5D
:107F7800FFFFFFFFFFFFFFFFFFFFFFFFFFFFFFFF09
:107F8800FFFFFFFFFFFFFFFFFFFFFFFFFFFFFFFFF9
:107F9800FFFFFFFFFFFFFFFFFFFFFFFFFFFFFFFFE9
:107FA800FFFFFFFFFFFFFFFFFFFFFFFFFFFFFFFFD9
:107FB800FFFFFFFFFFFFFFFFFFFFFFFFFFFFFFFFC9
:107FC800FFFFFFFFFFFFFFFFFFFFFFFFFFFFFFFFB9
:107FD800FFDFFFFF738E000000200000000000009C
:107FE80000000000002000002124BDD7EF5DFFFF46
:107FF800FFFFFFFFFFFFFFFFFFFFFFFFFFFFFFFF89
:10800800FFFFFFFFFFFFFFFFFFFFFFFFFFFFFFFF78
:10801800FFFFFFFFFFFFFFFFFFFFFFFFFFFFFFFF68
:10802800D69A949200200000000000000000000092
:108038000000000000200000CE59FFFFFFFFFFFFF7
:10804800FFFFFFFFFFFFFFFFFFDF738E31A63186C3
:1080580094B2FFFFFFFFFFFFFFFFFFFFFFFFFFFFE0
:10806800FFFFFFFFFFFFFFFFFFFFFFFFFFFFFFFF18
:10807800FFFFFFFFFFFFFFFFFFFFFFFFFFFFFFFF08
:10808800FFFFFFFFFFFFFFFFFFFFFFFFFFFFFFFFF8
:10809800D69A39C731A64228DEFBFFFFFFFFDEDB99
:1080A8004A6942084228CE79FFFFFFFFFFFFFFFF22
:1080B800FFFFFFFFFFFFFFFFFFFFEF7D632C39E7A7
:1080C80039E7AD55FFFFFFDFFFDF738E31A631863D
:1080D80094B2FFFFFFFFFFFFFFFFFFFFFFFFFFFF60
:1080E800FFFFFFFFFFFFFFFFFFFFFFFFFFFFFFFF98
:1080F800FFFFFFFFAD5539E739E7632CEF7DFFFF41
:10810800FFFFFFFFFFFFFFFFFFFFFFFFFFFFFFFF77
:10811800FFFFFFFFFFFFFFFFFFFFFFFFFFFFDEDBAC
:108128004A6942084228CE79FFFFFFFFEF5D528A75
:1081380031A63186BDF7FFFFFFFFEF7D632C39E7DE
:1081480039E7AD55FFFFFFFFFFFFFFFFFFFFFFFF11
:10815800FFFFFFFFFFFFFFFFFFFFFFFFFFFFFFFF27
:10816800FFFFFFFFFFFF94B239E739E773AEFFDF88
:10817800FFFFFFFFFFFFFFFFFFFFFFFFFFFFCE59DE
:1081880000000020000000000000000000000000C7
:10819800000000209492D69AFFFFFFFFFFFFFFFF29
:1081A800FFFFFFFFFFFFFFFFFFFFFFFFFFFFFFFFD7
:1081B800FFFFFFFFFFFFFFFFFFFFFFFFFFFFFFFFC7
:1081C800FFFFFFFFFFFFFFFFFFFFEF5DBDD721248C
:1081D8000000002000000000000000000000002057
:1081E8000000738EFFFFFFDFFFFFFFFFFFFFFFFFB2
:1081F800FFFFFFFFFFFFFFFFFFFFFFFFFFFFFFFF87
:10820800FFFFFFFFFFFFFFFFFFFFFFFFFFFFFFFF76
:10821800FFFFFFFFFFFFFFFFFFFFFFFFFFFFFFFF66
:10822800FFFFFFFFFFFFFFFFFFFFFFFFFFFFFFFF56
:10823800FFFFFFFFFFFFFFFFFFFFFFFFFFFFFFFF46
:10824800FFFFFFFFFFFFFFFFFFFFFFFFFFFFFFFF36
:10825800FFDFFFFF738E0000002000000000000019
:108268000000002000005ACBEF7DFFFFFFFFFFDF7B
:10827800FFDFFFDFFFDFFFDFFFDFFFDFFFDFFFDF06
:10828800FFDFFFDFFFDFFFDFFFDFFFDFFFDFFFDFF6
:10829800FFDFFFDFFFDFFFDFFFDFFFDFFFDFFFDFE6
:1082A800FFFFFFFFCE59210400000000000000007E
:1082B8000000000000200000CE59FFFFFFFFFFFF75
:1082C800FFFFFFFFFFFFFFFF420800000000000064
:1082D8000000738EFFFFFFFFFFFFFFFFFFFFFFFFA1
:1082E800FFFFFFFFFFFFFFFFFFFFFFFFFFFFFFFF96
:1082F800FFFFFFFFFFFFFFFFFFFFFFFFFFFFFFFF86
:10830800FFFFFFFFFFFFFFFFFFFFFFDFFFFFB5B628
:10831800086100000000000010A2DEDBDEDB10A216
:108328000000000000000841B5B6FFFFFFDFFFFFB7
:10833800FFFFFFFFFFFFFFFFF79E2945000000003A
:10834800000000008C71FFFF39E70000000000000A
:108358000000738EFFFFFFFFFFFFFFFFFFFFFFFF20
:10836800FFFFFFFFFFFFFFFFFFFFFFFFFFFFFFDF35
:10837800FFFF8C5100000000000000002945F79E17
:10838800FFFFFFFFFFFFFFFFFFFFFFFFFFFFFFFFF5
:10839800FFFFFFFFFFFFFFFFFFFFFFFFCE7910A2E8
:1083A8000000000000000841BDF7EF7D2104000037
:1083B800000000000000A534FFFF29450000000070
:1083C800000000008C51FFFFFFDFFFFFFFFFFFFFF2
:1083D800FFFFFFFFFFFFFFFFFFFFFFFFFFFFFFFFA5
:1083E800FFFFFFFF738E000000000000000042083E
:1083F800FFFFFFFFFFFFFFFFFFFFFFFFFFFFCE595C
:108408000000002000000000000000000000000044
:108418002104CE59FFFFFFFFFFDFFFDFFFDFFFDF94
:10842800FFDFFFDFFFDFFFDFFFDFFFDFFFDFFFDF54
:10843800FFDFFFDFFFDFFFDFFFDFFFDFFFDFFFDF44
:10844800FFDFFFDFFFDFFFDFFFDFFFFFFFFFEF7D66
:108458005ACB0000002000000000000000000020AF
:108468000000738EFFFFFFDFFFFFFFFFFFFFFFFF2F
:10847800FFFFFFFFFFFFFFFFFFFFFFFFFFFFFFFF04
:10848800FFFFFFFFFFFFFFFFFFFFFFFFFFFFFFFFF4
:10849800FFFFFFFFFFFFFFFFFFFFFFFFFFFFFFFFE4
:1084A800FFFFFFFFFFFFFFFFFFFFFFFFFFFFFFFFD4
:1084B800FFFFFFFFFFFFFFFFFFFFFFFFFFFFFFFFC4
:1084C800FFFFFFFFFFFFFFFFFFFFFFFFFFFFFFFFB4
:1084D800FFDFFFFF738E0000002000000000000097
:1084E800000000007BEFFFFFFFFFFFFFFFFFFFFF24
:1084F800FFFFFFFFFFFFFFFFFFFFFFFFFFFFFFFF84
:10850800FFFFFFFFFFFFFFFFFFFFFFFFFFFFFFFF73
:10851800FFFFFFFFFFFFFFFFFFFFFFFFFFFFFFFF63
:10852800FFFFFFDFFFFFEF7D31A600000020000006
:108538000000000000200000CE59FFFFFFFFFFFFF2
:10854800FFFFFFFFFFFFFFFF000000000841084199
:1085580000002945FFFFFFDFFFFFFFFFFFFFFFFFD1
:10856800FFFFFFFFFFFFFFFFFFFFFFFFFFFFFFFF13
:10857800FFFFFFFFFFFFFFFFFFFFFFFFFFFFFFFF03
:10858800FFFFFFFFFFFFFFFFFFFFFFDFFFFF8C7114
:1085980000000861002008610000C618C618000025
:1085A80008610020086100008C71FFFFFFDFFFFFFA
:1085B800FFFFFFFFFFFFFFFFE73C00000020002058
:1085C800086100004A49FFFF000000000841084117
:1085D80000002945FFFFFFDFFFFFFFFFFFFFFFFF51
:1085E800FFFFFFFFFFFFFFFFFFFFFFFFFFFFFFDFB3
:1085F800FFFF4A4900000861002000200000E73C16
:10860800FFFFFFFFFFFFFFFFFFFFFFFFFFFFFFFF72
:10861800FFFFFFFFFFFFFFFFFFDFFFFFAD7500005C
:1086280008610020086100009CD3E73C0000084175
:10863800002008610000738EFFFF0000002000206A
:10864800086100004A49FFFFFFDFFFFFFFFFFFFF50
:10865800FFFFFFFFFFFFFFFFFFFFFFFFFFFFFFFF22
:10866800FFDFFFFF29450000084108410000000026
:10867800FFFFFFFFFFFFFFFFFFFFFFFFFFFFCE59D9
:10868800000000200000000000000020000031A6CB
:10869800EF7DFFFFFFDFFFFFFFFFFFFFFFFFFFFF94
:1086A800FFFFFFFFFFFFFFFFFFFFFFFFFFFFFFFFD2
:1086B800FFFFFFFFFFFFFFFFFFFFFFFFFFFFFFFFC2
:1086C800FFFFFFFFFFFFFFFFFFFFFFFFFFFFFFFFB2
:1086D800FFFF7BEF0000000000000000000000200A
:1086E8000000738EFFFFFFDFFFFFFFFFFFFFFFFFAD
:1086F800FFFFFFFFFFFFFFFFFFFFFFFFFFFFFFFF82
:10870800FFFFFFFFFFFFFFFFFFFFFFFFFFFFFFFF71
:10871800FFFFFFFFFFFFFFFFFFFFFFFFFFFFFFFF61
:10872800FFFFFFFFFFFFFFFFFFFFFFFFFFFFFFFF51
:10873800FFFFFFFFFFFFFFFFFFFFFFFFFFFFFFFF41
:10874800FFFFFFFFFFFFFFFFFFFFFFFFFFFFFFFF31
:10875800FFDFFFFF738E0000002000000000000014
:1087680000004228F79EFFDFFFFFFFFFFFFFFFFF2C
:10877800FFFFFFFFFFFFFFFFFFDFFFFFFFFFFFFF21
:10878800FFFFFFFFFFFFFFFFFFFFFFFFFFFFFFFFF1
:10879800FFFFFFDFFFFFFFFFFFFFFFFFFFFFFFFF01
:1087A800FFFFFFFFFFDFFFFFCE5910820000000030
:1087B8000000000000200000CE59FFFFFFFFFFFF70
:1087C800FFFFFFFFFFFFFFFF8430000000000000F5
:1087D8000861AD75FFFFFFFFFFFFFFFFFFFFFFFF12
:1087E800FFFFFFFFFFFFFFFFFFFFFFFFFFFFFFFF91
:1087F800FFFFFFFFFFFFFFDFFFDFFFFFFFFFFFFFC1
:10880800FFFFFFFFFFFFFFFFFFFFFFFFFFFFDEDBB5
:1088180039E7000000000000528AEF5DEF5D528AE0
:1088280000000000000039E7DEDBFFFFFFFFFFFF6D
:10883800FFFFFFFFFFFFFFFFF7BE6B6D00000000AB
:10884800000018C3C618FFFF8410000000000000D5
:108858000861AD75FFFFFFFFFFFFFFFFFFFFFFFF91
:10886800FFFFFFFFFFFFFFFFFFFFFFFFFFFFFFFF10
:10887800FFFFC61818E30000000000006B6DF7BE8C
:10888800FFFFFFFFFFDFFFDFFFDFFFFFFFFFFFFF50
:10889800FFFFFFDFFFDFFFDFFFFFFFFFE73C4A6966
:1088A80000000000000039E7DEFBF7BE630C0000A3
:1088B800000000002965CE79FFFF6B6D0000000005
:1088C800000018E3C618FFFFFFFFFFFFFFDFFFDF11
:1088D800FFFFFFFFFFFFFFFFFFFFFFDFFFDFFFFFE0
:1088E800FFFFFFFFAD750861000000000000843045
:1088F800FFFFFFFFFFFFFFFFFFFFFFFFFFFFCE5957
:108908000000002000000000000000001082CE5986
:10891800FFFFFFDFFFFFFFFFFFFFFFFFFFFFFFFF7F
:10892800FFFFFFFFFFDFFFFFFFFFFFFFFFFFFFFF6F
:10893800FFFFFFFFFFFFFFFFFFFFFFFFFFFFFFDF5F
:10894800FFFFFFFFFFFFFFFFFFFFFFFFFFFFFFFF2F
:10895800FFDFF79E42280000000000000000002012
:108968000000738EFFFFFFDFFFFFFFFFFFFFFFFF2A
:10897800FFFFFFFFFFFFFFFFFFFFFFFFFFFFFFFFFF
:10898800FFFFFFFFFFFFFFFFFFFFFFFFFFFFFFFFEF
:10899800FFFFFFFFFFFFFFFFFFFFFFFFFFFFFFFFDF
:1089A800FFFFFFFFFFFFFFFFFFFFFFFFFFFFFFFFCF
:1089B800FFFFFFFFFFFFFFFFFFFFFFFFFFFFFFFFBF
:1089C800FFFFFFFFFFFFFFFFFFFFFFFFFFFFFFFFAF
:1089D800FFDFFFFF738E0000002000000000002072
:1089E80000007BCFFFFFFFDFFFFFFFFFFFFFFFFF61
:1089F800FFFFFFFFFFFFFFFFFFFFFFFFF79EF79E51
:108A0800F79EF79EF79EF79EF79EF79EF79EF79EB6
:108A1800F79EFFFFFFFFFFFFFFFFFFFFFFFFFFFFC7
:108A2800FFFFFFFFFFFFFFFFFFFF21040000000023
:108A38000000000000200000CE59FFFFFFFFFFFFED
:108A4800FFFFFFFFFFFFFFFFFFFFCE599CF39CF3E3
:108A5800E71CFFFFFFFFFFFFFFFFFFFFFFFFFFFF19
:108A6800FFFFFFFFFFFFFFFFFFFFFFFFFFFFFFFF0E
:108A7800FFFFFFFFFFFFFFFFFFFFFFFFFFFFFFFFFE
:108A8800FFFFFFFFFFFFFFFFFFFFFFFFFFFFFFFFEE
:108A9800FFFF8C718C519CD3FFFFFFFFFFFFFFFF8F
:108AA8009CD38C518C71FFFFFFFFFFFFFFFFFFFF7F
:108AB800FFFFFFFFFFFFFFFFFFFFFFFFBDF79CF377
:108AC8009CF3EF7DFFFFFFFFFFFFBDF78C518C513B
:108AD800DEDBFFFFFFFFFFFFFFFFFFFFFFFFFFFFE3
:108AE800FFFFFFFFFFFFFFFFFFFFFFFFFFFFFFFF8E
:108AF800FFFFFFFFEF5D8C518C51B596FFFFFFFF25
:108B0800FFFFFFFFFFFFFFFFFFFFFFFFFFFFFFFF6D
:108B1800FFFFFFFFFFFFFFFFFFFFFFFFFFFFFFFF5D
:108B2800AD559CF3A514FFFFFFFFFFFFFFFFA51442
:108B38008C518C51F7BEFFFFFFFFFFFFB5968C519C
:108B48008C51EF5DFFFFFFFFFFFFFFFFFFFFFFFF00
:108B5800FFFFFFFFFFFFFFFFFFFFFFFFFFFFFFFF1D
:108B6800FFFFFFFFFFFFDEDB8C518C51BDF7FFFFDE
:108B7800FFFFFFFFFFFFFFFFFFFFFFFFFFFFCE59D4
:108B88000000002000000000000000002104FFFF9A
:108B9800FFFFFFFFFFFFFFFFFFFFFFFFFFFFFFFFDD
:108BA800FFFFFFFFFFFFF79EF79EF79EF79EF79EDA
:108BB800F79EF79EF79EF79EF79EF79EFFFFFFFF33
:108BC800FFFFFFFFFFFFFFFFFFFFFFFFFFFFFFFFAD
:108BD800FFDFFFFF7BCF0000002000000000002027
:108BE8000000738EFFFFFFDFFFFFFFFFFFFFFFFFA8
:108BF800FFFFFFFFFFFFFFFFFFFFFFFFFFFFFFFF7D
:108C0800FFFFFFFFFFFFFFFFFFFFFFFFFFFFFFFF6C
:108C1800FFFFFFFFFFFFFFFFFFFFFFFFFFFFFFFF5C
:108C2800FFFFFFFFFFFFFFFFFFFFFFFFFFFFFFFF4C
:108C3800FFFFFFFFFFFFFFFFFFFFFFFFFFFFFFFF3C
:108C4800FFFFFFFFFFFFFFFFFFFFFFFFFFFFFFFF2C
:108C5800FFDFFFFF738E00000020000000000020EF
:108C680000006B6DFFFFFFDFFFFFFFFFFFFFFFFF50
:108C7800FFFFFFFFFFFFFFFFA5145AEB0861086124
:108C88000861086108610861086108610861086194
:108C980010828410CE59FFFFFFDFFFFFFFFFFFFFA9
:108CA800FFFFFFFFFFFFFFFFFFFF18E300000000CB
:108CB8000000000000200000CE59FFFFFFFFFFFF6B
:108CC800FFFFFFFFFFFFFFFFFFFFCE599CF39CF361
:108CD800E71CFFFFFFFFFFFFFFFFFFFFFFFFFFFF97
:108CE800FFFFFFFFFFFFFFFFFFFFFFFFFFFFFFFF8C
:108CF800FFFFFFFFEF5D8C518C51B596FFFFFFFF23
:108D0800FFFFFFFFFFFFFFFFFFFFFFFFFFFFFFFF6B
:108D1800FFFFFFFFFFFFFFFFFFFFFFFFFFFFFFFF5B
:108D2800FFFFFFFFFFFFFFFFFFFFFFFFFFFFFFFF4B
:108D3800FFFFFFFFFFFFFFFFFFFFFFFFBDF79CF3F4
:108D48009CF3EF7DFFFFFFFFFFFFFFFFFFFFFFFF2C
