:10000000200400202D29000081270000292900005C
:100010002929000029290000292900002929000098
:10002000000000000000000000000000292900007E
:1000300029290000000000002929000029290000CA
:10004000BD1F00005920000001210000E92100002F
:040050004001F0007B
:100054000348044B834202D0034B03B11847704753
:10006400040000200400002000000000064B0749A3
:10007400C91A891048BF0131491003D0044B0BB190
:1000840001481847704700BF040000200400002006
:100094000000000010B5064C237843B9FFF7D8FFE1
:1000A400044B13B10448AFF300800123237010BD47
:1000B4003C0400200000000084A2000108B5054BA8
:1000C4001BB105490548AFF30080BDE80840FFF7C0
:1000D400CDBF00BF000000004004002084A2000146
:1000E4002DE9F041D0E902850446A8EB05074068F4
:1000F40097422844154408D80E463A46A5EB08050D
:1001040002F0B2FC2A466068F11902F0ADFCBFF3BC
:100114005F8FE560BDE8F0812DE9F8434FF00009F9
:10012400064688461746D0E902243369151B9C42CB
:1001340003F1FF3125BF03F1FF339B180B1B1B1B7E
:10014400BD4228BF3D469D4228BF1D4670684146BA
:100154002A46204402F088FCB2682C44A24208BF1C
:100164000024A944A8447F1BBFF35F8FF460002FD1
:10017400DBD14846BDE8F883F8B5164CA822002127
:10018400204602F069FC4FF400660023032140205E
:10019400114A124F124D21616161A261E761266229
:1001A400A3626362E36222666566A0662367E36610
:1001B4006367BFF35F8F0B4B9C46A3F11000ACEB5E
:1001C400030213F9011D8342A154F8D1BFF35F8FD9
:1001D400F8BD00BF980C0020882A00009804002075
:1001E40058040020202B000038B5214B00EB4004BC
:1001F40003EBC40EDEF82C40013000EB4000012C70
:100204008C46154603EBC00015D0022C0FD034BB2E
:10021400DEF82830DEF8242093429CBFDEF820105C
:100224005B18013B9A1A95421CD9204638BDBDE89B
:100234003840FFF771BFDEF82830DEF82440A342CF
:100244009CBFDEF820105B18013B1C1B944228BFA6
:10025400144661462246FFF743FF204638BD00247A
:10026400204638BD2A466146FFF73AFF2C46DCE7B4
:10027400980C0020F8B50B4B04461B780D46532B05
:10028400164601D0FFF778FFEFF311874FF02001F6
:1002940081F31188324629462046FFF7A5FF87F3EC
:1002A4001188F8BD980C0020D0E9013210B504463D
:1002B400501C984207D8236899540246E168636841
:1002C4000131C4E902019A4200D010BD21682069BD
:1002D400FFF7D0FFA368984215BF4FF0FF33002308
:1002E400E360A36010BD00BF2DE9F84F91420F46B3
:1002F400DDE90A94154683461E4668D30B464FF043
:100304000108B3FBF5F39D4208F10108F9D9B045A2
:1003140038BFB04614F0010A02D1B9F1000F3DD143
:10032400DBF80C30002B29DB012402E005FB04F48C
:10033400013E012EFAD8B7FBF4F39D4205D805FB24
:1003440004F4B7FBF4F39D42F9D9224E06E0AC4223
:10035400B4FBF5F30CD31C46B7FBF3F3F156584644
:1003640004FB1377FFF7A0FFDBF80C30002BEEDA69
:10037400BAF1000F02D0B9F1000F09D1BDE8F88F2E
:1003840020215846FFF790FFDBF80C30002BF5DBFB
:10039400C14509F1FF39F3D8BDE8F88FA30711D49B
:1003A40020240CE021465846FFF77EFFDBF80C3092
:1003B40009F1FF39002BE1DBB9F1000FB2D0C145DF
:1003C400F0D8ADE7002E0CBF30242024F7E74FF01F
:1003D40001089CE7242B00002DE9F04F0023402462
:1003E4009BB00DF12809CDE9049480460C461746CC
:1003F400CDE90633089006E004A8FFF755FF079BF4
:10040400002BC0F2AE8014F9011B002900F0A1807A
:100414002529F1D10026234613F9011BA1F123025A
:100424000D2A08D8DFE802F0800707070707070747
:100434007C0784070778A1F13002D2B2092A4FF071
:10044400000501D90EE0013305EB850501EB4505F7
:1004540093F900101C46A1F13002D2B2092AA5F189
:100464003005F0D92E2900F080800022924694F9BC
:10047400001021F00403682B04F101045CD0252949
:10048400BAD05839CBB2202BB9D82029B7D801A378
:1004940053F821F0BD05000003040000030400002C
:1004A400030400000304000003040000030400002C
:1004B400030400000304000003040000030400001C
:1004C400D9050000610600000304000003040000D5
:1004D40003040000030400000304000003040000FC
:1004E40003040000030400000304000003040000EC
:1004F400030400004306000003040000030400009A
:100504000706000003040000ED05000003040000DA
:1005140003040000BD0500001C4646F002067AE70D
:100524001C4646F0040676E71C4646F0080672E7C9
:100534001C4646F001066EE714F9011B21F0040382
:10054400682B9CD114F9011B21F00403682B96D16C
:10055400F2E7079B002B04DD069C002C40F0B280E0
:10056400234418461BB0BDE8F08F94F901102A29E2
:1005740009D13B684FF0010A1A1D3A6094F9021040
:100584001A68023475E7A1F13003DBB2092B4FF08E
:10059400000204F1010400F2E18002EB820201EBAB
:1005A400420214F9011F303AA1F13003DBB2092BE6
:1005B400F3D94FF0010A5CE713461022386801684A
:1005C4000430CDE9005638600DEB0200FFF78CFED5
:1005D400079B15E73B6804A81A1D93F900103A60BD
:1005E400FFF762FE079B0BE7386813460168043087
:1005F400CDE900560A22386004A8FFF775FE079B70
:10060400FEE63B68191D39601D68002D00F08D80E1
:100614000132AE1815F9011B00293FF4F0AEBAF10E
:10062400000F02D0B5423FF4EAAE04A8FFF73CFE47
:10063400079B002BEEDA18461BB0BDE8F08F0823A9
:10064400102200253868016804303860CDE900358F
:100654000DEB0200FFF748FE079BD1E63B684FF025
:10066400010AD3F800B004333B608BEAEB73A3EBCD
:10067400EB73092B09DD4A481946A0FB03C3632920
:100684000AF1010A4FEAD303F6DC924538BF9246D9
:100694000DBB079900250B460029FFF662AFBBF19D
:1006A400000F46DB730752D406F00303022B57D026
:1006B400134659460A22CDE9005604A8FFF714FE52
:1006C400079B9DE62246494640460393FFF7D2FD29
:1006D400039B234445E7BBF1000F06F002031BDB39
:1006E400710719D4002B53D09AB1F3070FD510E03A
:1006F400202104A80392FFF7D7FD0799039A002944
:100704000B4605F1FF35FFF62CAF002DC4D0AA45EA
:10071400EED307990B46BFE7013D0BB1002AF8D091
:10072400F107F6D4002DF2D1B3E74FF0000A1D4DC6
:100734006EE72D2104A80392FFF7B6FD039ACBF1CF
:10074400000B079900290B46FFF60BAFACE72B21F2
:1007540004A80392FFF7A8FD039AF2E7924688E6FD
:10076400002AA5D1002DA3D0554517D9302104A8BE
:100774000392FFF799FD0799013D00290B46FFF607
:10078400F0AE039A002DEFD10029FFF6EAAE8FE711
:10079400F007BCD5079B002B8ADAE2E60B46F3E7A9
:1007A400CDCCCCCC942A00000EB400B582B003ABFF
:1007B40053F8041B01AA0193FFF70EFE02B05DF883
:1007C40004EB03B0704700BFF8B510B30A4601B399
:1007D4000024124E124D01460723124834702C7027
:1007E40001F0D6F9074690B9337863B90E4C07E0A7
:1007F400013C11D00121084601F07AFF337813B986
:100804002B78002BF4D02B78002B18BF12273846F6
:10081400F8BD03273846F8BD1427F8E7410D00203A
:10082400400D00205C0D0020A186010070B5054636
:100834000B46164640F203712A4613481D4601F042
:10084400BBFD044608B1204670BD024640F2064195
:100854000D4801F0B1FD044678B931462846FFF74A
:10086400B3FF0122044640F20641074801F0A4FD0B
:10087400002C08BF0446204670BD012240F2064108
:10088400014801F099FDDEE7540D0020F0B5FA2986
:100894000E460D4628BFFA26FFB049B101AB020A45
:1008A40003EB4601C0B21A70587002338B42FAD17E
:1008B400012240F20371194801F07EFD044610B193
:1008C40020467FB0F0BD024640F20641134801F0D5
:1008D40073FD044670B915B915E0ED1B13D0AE4293
:1008E400374628BF2F4601A87900FFF76DFF04465D
:1008F4000028F2D0012240F20641084801F05CFDD4
:1009040020467FB0F0BD012240F20641034801F0C9
:1009140053FD044620467FB0F0BD00BF540D0020B7
:100924002DE9F0412A2482B005460F46164640F2CE
:100934000371002252488DF80740984601F03CFDAF
:10094400044618B1204602B0BDE8F081024640F2E8
:1009540006414B4801F030FD0446002840F08380F6
:1009640001210DF10700FFF72FFF0446012240F299
:100974000641434801F020FD002CE3D100287CD13E
:1009840001222B0A10460DF107018DF80730FFF7FD
:100994004DFF04460028D5D101220DF10701104670
:1009A4008DF80750FFF742FF04460028CAD1012200
:1009B400330A10460DF107018DF80730FFF736FFB3
:1009C40004460028BED101220DF1070110468DF81E
:1009D4000760FFF72BFF04460028B3D12B23012225
:1009E4000DF107018DF80730FFF720FF04460028BA
:1009F400A8D101223B0A10460DF107018DF80730FA
:100A0400FFF714FF044600289CD101220DF10701D1
:100A140010468DF80770FFF709FF0446002891D1AE
:100A240001224FEA182310460DF107018DF8073013
:100A3400FFF7FCFE0446002884D101220DF10701D2
:100A440010468DF80780FFF7F1FE044600287FF476
:100A540079AF2C2301220DF107018DF80730FFF740
:100A6400E5FE04466EE7012240F20641044801F027
:100A7400A3FC204602B0BDE8F081044662E700BF53
:100A8400540D002010B51049104801F0E1F848B9A0
:100A9400012240F206410E4801F08EFC044650B992
:100AA400204610BD04460B4B0B4A0C490020FFF7AF
:100AB4007BFE204610BD0A4B074A08490020FFF779
:100AC40073FE204610BD00BF988302005C0D002019
:100AD400540D00209C2A0000482B0000CC2A000062
:100AE400E82A0000FFF770BE904213D8994210B56F
:100AF4009E460DD8084C2488A4B2944208D9074CC9
:100B04002488A4B29C4203D9BDE81040FFF708BF73
:100B1400032010BD032070470000002002000020C5
:100B240010B5012240F20641124801F045FC04468A
:100B340008B1204610BD024640F204710D4801F090
:100B44003BFC04460028F4D14FF47A71C82001F02C
:100B5400CFFD012240F20471064801F02DFC044649
:100B64000028E6D14FF47A71C82001F0C1FD204677
:100B740010BD00BF540D0020032801D90320704785
:100B8400362370B51249134A134C82B031F8105011
:100B940032F81060245C012200200DF107018DF869
:100BA4000730FFF743FE88B94FF47A71012001F052
:100BB4009FFD01220DF1070110468DF80740FFF754
:100BC40035FE18B9054A064B15801E8002B070BD6B
:100BD4003C2B0000342B0000442B000000000020BC
:100BE4000200002030B583B0FFF74CFF044610B17B
:100BF400204603B030BD012240F20471E04801F008
:100C0400DBFB04460028F3D1FFF78AFF04460028E3
:100C1400EED101250DF107012A468DF80750FFF7A3
:100C240005FE04460028E3D14FF47A71084601F02A
:100C34005FFDCB2320462A460DF107018DF80730CE
:100C4400FFF7F4FD04460028D2D139232A4628466A
:100C54000DF107018DF80730FFF7E8FD0446002881
:100C6400C6D12C232A4628460DF107018DF80730FA
:100C7400FFF7DCFD04460028BAD18DF807002A46A8
:100C840028460DF10701FFF7D1FD04460028AFD136
:100C940034232A4628460DF107018DF80730FFF763
:100CA400C5FD04460028A3D102232A4628460DF197
:100CB40007018DF80730FFF7B9FD0446002897D1E6
:100CC400CF232A4600200DF107018DF80730FFF7E6
:100CD400ADFD044600288BD18DF807002A4628462E
:100CE4000DF10701FFF7A2FD0446002880D1C123BE
:100CF4002A4628460DF107018DF80730FFF796FDC7
:100D0400044600287FF474AF30232A4628460DF1A8
:100D140007018DF80730FFF789FD044600287FF4AA
:100D240067AFE8232A460DF107018DF80730FFF776
:100D34007DFD044600287FF45BAF85232A462846C0
:100D44000DF107018DF80730FFF770FD0446002808
:100D54007FF44EAF8DF807002A4628460DF10701AF
:100D6400FFF764FD044600287FF442AF78232A4647
:100D740028460DF107018DF80730FFF757FD0446AB
:100D840000287FF435AFEA232A460DF107018DF8D8
:100D94000730FFF74BFD044600287FF429AF8DF898
:100DA40007002A4628460DF10701FFF73FFD0446D8
:100DB40000287FF41DAF00232A4628460DF10701C1
:100DC4008DF80730FFF732FD044600287FF410AF9A
:100DD400ED232A460DF107018DF80730FFF726FDB4
:100DE400044600287FF404AF64232A4628460DF104
:100DF40007018DF80730FFF719FD044600287FF43A
:100E0400F7AE03232A4628460DF107018DF8073073
:100E1400FFF70CFD044600287FF4EAAE12232A46AD
:100E240028460DF107018DF80730FFF7FFFC044653
:100E340000287FF4DDAE81232A4628460DF1070100
:100E44008DF80730FFF7F2FC044600287FF4D0AE9B
:100E5400F7232A460DF107018DF80730FFF7E6FC6A
:100E6400044600287FF4C4AE20232A4628460DF108
:100E740007018DF80730FFF7D9FC044600287FF4FA
:100E8400B7AEC0232A460DF107018DF80730FFF7EE
:100E9400CDFC044600287FF4ABAE23232A46284623
:100EA4000DF107018DF80730FFF7C0FC0446002858
:100EB4007FF49EAEC1232A4600200DF107018DF870
:100EC4000730FFF7B3FC044600287FF491AE1023EB
:100ED4002A4628460DF107018DF80730FFF7A6FCD6
:100EE400044600287FF484AEC5232A460DF1070189
:100EF4008DF80730FFF79AFC044600287FF478AE9B
:100F04003E232A4628460DF107018DF80730FFF7E6
:100F14008DFC044600287FF46BAE28232A4628461D
:100F24000DF107018DF80730FFF780FC0446002817
:100F34007FF45EAEC7232A460DF107018DF8073012
:100F4400FFF774FC044600287FF452AE86232A4639
:100F540028460DF107018DF80730FFF767FC0446BA
:100F640000287FF445AE36232A460DF107018DF89B
:100F74000730FFF75BFC044600287FF439AE01E03C
:100F8400540D002048232A4628460DF107018DF808
:100F94000730FFF74BFC044600287FF429AE3A23C0
:100FA4002A460DF107018DF80730FFF73FFC044690
:100FB40000287FF41DAE55232A4628460DF107016B
:100FC4008DF80730FFF732FC044600287FF410AE9A
:100FD400B1232A460DF107018DF80730FFF726FCEF
:100FE400044600287FF404AE8DF807002A462846FC
:100FF4000DF10701FFF71AFC044600287FF4F8AD51
:1010040018232A4628460DF107018DF80730FFF70B
:101014000DFC044600287FF4EBADB6232A460DF1FF
:1010240007018DF80730FFF701FC044600287FF420
:10103400DFAD08232A4628460DF107018DF8073055
:10104400FFF7F4FB044600287FF4D2AD82232A463E
:1010540028460DF107018DF80730FFF7E7FB04463A
:1010640000287FF4C5AD27232A4628460DF1070141
:101074008DF80730FFF7DAFB044600287FF4B8AD9B
:10108400F2232A460DF107018DF80730FFF7CEFB56
:10109400044600287FF4ACAD8DF807002A462846A4
:1010A4000DF10701FFF7C2FB044600287FF4A0AD51
:1010B40026232A4600200DF107018DF80730FFF79B
:1010C400B5FB044600287FF493AD2A4628460DF16B
:1010D40007018DF80750FFF7A9FB044600287FF4A9
:1010E40087ADE0232A460DF107018DF80730FFF79D
:1010F4009DFB044600287FF47BAD0F232A46284637
:101104000DF107018DF80730FFF790FB0446002826
:101114007FF46EAD31232A4628460DF107018DF880
:101124000730FFF783FB044600287FF461AD2B23CF
:101134002A4628460DF107018DF80730FFF776FBA4
:10114400044600287FF454AD0C232A4628460DF1AA
:1011540007018DF80730FFF769FB044600287FF488
:1011640047AD0E232A4628460DF107018DF80730B6
:10117400FFF75CFB044600287FF43AAD08232A46B7
:1011840028460DF107018DF80730FFF74FFB0446A1
:1011940000287FF42DAD4E232A4628460DF1070181
:1011A4008DF80730FFF742FB044600287FF420AD9A
:1011B400F1232A4628460DF107018DF80730FFF781
:1011C40035FB044600287FF413AD37232A4628460E
:1011D4000DF107018DF80730FFF728FB04460028BE
:1011E4007FF406AD07232A4628460DEB03018DF84C
:1011F4000730FFF71BFB044600287FF4F9AC1023EB
:101204002A4628460DF107018DF80730FFF70EFB3B
:10121400044600287FF4ECAC03232A4628460DF14B
:1012240007018DF80730FFF701FB044600287FF41F
:10123400DFAC0E232A4628460DF107018DF807304E
:10124400FFF7F4FA044600287FF4D2AC09232A46B7
:1012540028460DF107018DF80730FFF7E7FA044639
:1012640000287FF4C5AC8DF807002A4628460DF106
:101274000701FFF7DBFA044600287FF4B9ACE12349
:101284002A460DF107018DF80730FFF7CFFA04461F
:1012940000287FF4ADAC8DF807002A4628460DF1EE
:1012A4000701FFF7C3FA044600287FF4A1AC0E231C
:1012B4002A4628460DF107018DF80730FFF7B6FAE4
:1012C400044600287FF494AC14232A4628460DF1E2
:1012D40007018DF80730FFF7A9FA044600287FF4C8
:1012E40087AC03232A4628460DF107018DF8073001
:1012F400FFF79CFA044600287FF47AAC11232A46AF
:1013040028460DF107018DF80730FFF78FFA0446E0
:1013140000287FF46DAC07232A4628460DEB030111
:101324008DF80730FFF782FA044600287FF460AC9A
:1013340031232A4628460DF107018DF80730FFF7BF
:1013440075FA044600287FF453ACC1232A46284684
:101354000DF107018DF80730FFF768FA04460028FD
:101364007FF446AC48232A4628460DF107018DF840
:101374000730FFF75BFA044600287FF439AC0823F2
:101384002A4628460DF107018DF80730FFF74EFA7B
:10139400044600287FF42CAC0F232A4628460DF17E
:1013A40007018DF80730FFF741FA044600287FF45F
:1013B4001FAC0C232A4628460DF107018DF807308F
:1013C400FFF734FA044600287FF412AC31232A468E
:1013D40028460DF107018DF80730FFF727FA044678
:1013E40000287FF405AC36232A4628460DF1070170
:1013F4008DF80730FFF71AFA044600287FF4F8AB9B
:101404000F232A4628460DF107018DF80730FFF710
:101414000DFA044600287FF4EBAB11232A460DF1A4
:1014240007018DF80730FFF701FA044600287FF41E
:10143400DFAB4FF47A71782001F05AF92923204662
:101444002A460DF107018DF80730FFF7EFF904463E
:1014540000287FF4CDAB03B0BDE83040FFF78CBB70
:10146400F8B5194EB6F800C01FFA8CFC844528D98B
:10147400164F1D463B889BB28B4222D9144602B3B9
:1014840033881B1A9BB2934202D23488241AA4B222
:10149400421E224492B2824213D333889BB29A42B0
:1014A4000FD23B889BB299420BD20B46FFF738FA16
:1014B40040B9204634B121462846BDE8F840FFF73C
:1014C400E5B90320F8BD00BF0000002002000020A1
:1014D400F8B5194EB6F800C01FFA8CFC844528D91B
:1014E400164F1D463B889BB28B4222D9144602B349
:1014F4003B885B1A9BB2934202D23C88641AA4B222
:101504004A1E224493B28B4213D3328892B2904241
:101514000FD23A8892B293420BD20246FFF700FAF6
:1015240040B9204634B121462846BDE8F840FFF7CB
:10153400ADB90320F8BD00BF000000200200002068
:1015440010B10379012B03D00122034B1A707047A9
:10155400024A1370704700BF400D0020410D002067
:101564002DE9F0471C468242904638BF80468242AD
:10157400154628BF05468C42264628BF0E4608F16C
:10158400010ABDF82070AAEB050A1FFA8AFA8946F7
:101594003B46524631462846FFF762FFB8B94C45F0
:1015A40038BF4C46A64206D052463B462146284602
:1015B400FFF756FF58B90134A41BA4B23B46224698
:1015C40031462846FFF784FF08B9454501D1BDE8F7
:1015D400F0873B46224631464046BDE8F047FFF7D8
:1015E40077BF00BF2DE9F0410546002849D00846E1
:1015F40003295AD8DFE801F015021502F0274FF449
:10160400A076FFF7B9FA044640B97B1E721E014664
:101614009BB292B2FFF768FA044630B12046BDE8A7
:10162400F0814FF4A077F026EBE7012240F203713A
:101634001F4800F0C1FE04460028EFD1024640F2E4
:1016440006411B4800F0B8FE804630BB4FF4163705
:1016540001E0BF1B19D0B7F5FA7F3E4628BF4FF40F
:10166400FA7605EB08003146FFF73CFAB04404462D
:101674000028EED0012240F206410D4800F09CFE05
:10168400CCE701242046BDE8F0810122BDE8F04109
:1016940040F20641064800F08FBE012240F20641A6
:1016A400034800F089FE4446B8E70324B6E700BFC8
:1016B400540D0020F0B51D4B83B0002832D003C870
:1016C40083E803000023012119481A4A1A4F1B4ECC
:1016D4003B701B4C33701B4D0370DFF878C01370E4
:1016E400194A1A488CF8003021702B701370FFF7D8
:1016F40079FF18B10023237003B0F0BD4FF6E076F4
:101704002B78134A03EB830302EB430132F81300F3
:101714000096CB888A884988FFF722FF0028E9D100
:1017240003B0F0BDC3E90000CCE700BF440D0020C6
:10173400500D00204F0D0020520D0020510D0020AF
:10174400420D00204C0D00204D0D0020982B000070
:101754005C2B00004E0D00202DE9F04F684B83B048
:101764001B78CBB1674A137803F0FF01002B30D10B
:10177400654A137803F0FF009BB9644A137803F0B9
:10178400FF01002B46D1624B1A78002A5ED1002457
:10179400204603B0BDE8F08F0724204603B0BDE81F
:1017A400F08F5C4F5C4E3B7835781170002BEED097
:1017B400002D00F09380594A1368002B00F09E809E
:1017C40028465168984704460028E1D13D7030709E
:1017D400DEE70023504C524D4E4E012151482370F8
:1017E400137033702B70FFF7FDFE04460028CFD131
:1017F4004FF6E0742B784C4A03EB830302EB43016E
:1018040032F813000094CB888A884988FFF7A8FE31
:101814000446BDE73F4D10702B78002BB7D1404BE9
:10182400414A1B783D4903EB830302EB43030A68F7
:101834001E7A002A62D03046496890470446002840
:10184400A6D12A78344B2E701A70A1E7314A344D50
:1018540012782E781970002A99D1334F06EB86023C
:1018640007EB420337F8128040F6A502B3F8029062
:10187400B3F804A0B3F806B000925B46524649465A
:101884004046FFF76DFE0446002881D12A78274B95
:101894000132A3FB02139B0803EB4303A2EB4303B4
:1018A4004FF6E0722B7003EB830307EB430137F829
:1018B40013000092CB888A884988FFF751FE0446BA
:1018C40000283FF465AF4FF6E0732E705246009344
:1018D40049465B464046FFF743FE59E7012111485C
:1018E4003D703570FFF77EFE044600287FF450AF4C
:1018F4000B4B4FF6E0740C4A1B787DE7062447E750
:10190400420D00204F0D0020500D0020510D0020ED
:10191400520D00204E0D00204D0D0020440D0020DE
:101924004C0D0020982B00005C2B0000ABAAAAAA47
:1019340008B5FFF757F900B108BDFFF7BBFE002853
:10194400FAD104E04FF47A710A2000F0D1FEFFF7D7
:1019540003FF0028F6D00628F4D008BDFFF7E8BF3F
:10196400022800D070470249024800F099BD00BF28
:10197400CC830200540D002008B5FFF7EFFF0020D0
:1019840008BD00BF2DE9F04184B09DF828700028FF
:1019940000F0CB8090461D4602687A4B04469A427A
:1019A40040F0C7800E46002900F0BB80002D00F0F7
:1019B400BC806268536963B19A6818686946D369E0
:1019C4009847002840F0B280029BAB42C0F0AD8043
:1019D400626813695BB19A6818686946D369984765
:1019E400002840F0A380029BAB42C0F09E80062FEB
:1019F40040F29B800F2F06D97B1C9B0740F09580FB
:101A04001B2F00F09280A268137813F0400340F07B
:101A14009480C4E90533636884F820705869C4E984
:101A24000368E56118B343680F2F1968A56100F2D4
:101A34008680FB1F18BF01234A881B0322F44052EF
:101A440043F0080322F00C0213434B80ABB2CB816A
:101A5400C1F80880B8F1000F7CD0836800685B6827
:101A64009847002862D1636894F82070A268D3F87C
:101A740010C0BCF1000F2CD0DCF804100F2F096843
:101A840065615ED8072F94BF00200120CF78000144
:101A940027F03C0740F008003843C870587A1F6AA2
:101AA400ABB218B917B1387B012861D0CB814E6035
:101AB400002E56D01378DCF8085023F02003DCF80D
:101AC40000006D681370A84780BBA26894F820706A
:101AD4006368D17A0F2FC8B2118A89B233D901371A
:101AE40020F04000BF08053F40F020005D7A21F45B
:101AF40070611B6A41EA072155B94BB11B7B012B6D
:101B040006D1E369012B14BF41F0800121F080016B
:101B140089B2D07211821378002043F060031370ED
:101B240004E0B8F1000F7FF441AF012004B0BDE838
:101B3400F081072004B0BDE8F0810820F6E7022315
:101B44007AE70220A2E7072F94BF40F0400000F09C
:101B54009F00CBE78B7868F383038B700A4B8B6011
:101B64007BE7CB7866F38303CB70084B4B60A1E72C
:101B7400E06901289AD0581E013D83B26561CB818A
:101B840095E700BF49505352900D00208C0D002062
:101B940010B594461C4682B0002263460094FFF7B9
:101BA400F1FE02B010BD00BF42684369517A126A67
:101BB40019B912B1127B012A24D0C269511E99426B
:101BC4000FD09A420CD08168C26832B190F820C01C
:101BD400BCF10F0F0DD952F823204A600133436141
:101BE400704781680A8A22F080021204120C0A8269
:101BF400EAE7BCF1070F95BFD25C32F813200A71F3
:101C04008A80EBE78268D2789206E9D5D5E700BFEF
:101C140030B5836A85B004468C4601ADABB193E818
:101C2400070085E8070062681846117883F804C045
:101C3400E26A19609A60636A9847A36A1BB195E8DF
:101C4400070083E8070005B030BD2B46EBE700BF73
:101C54002DE9F04F83B000284BD0B84B02680446FE
:101C64009A4200F052810D46002942D08B69002B24
:101C74003FD00A6A002A3CD00B78012B00F23F8146
:101C840091F90310002934DB95F90410002930DBA5
:101C9400697A012900F03E8119B9117B012900F00C
:101CA4005981DFF8AC822F691B02984467B14FF069
:101CB4000062796838680B681A60C3F80880BB68EA
:101CC4001B6898470646A8B96B69BBB1D3E90112F2
:101CD4004FF4002618680B6812681E60C3F804806D
:101CE4009047064650B12FB1BB6838681B6A9847C5
:101CF40000E00126304603B0BDE8F08F0022D5E9AC
:101D04000613C4E90A2365606162287800F580033C
:101D140003F58D531B02A3606F7A002F00F000813E
:101D24001146B02694466B7B95F80BE02A6A1B0398
:101D3400AD7A43EA4E032B431578002D40F0FB8027
:101D440001218140890704D0B7FA87F1490943EAA0
:101D5400C11392F801E090784FEA4E1126EACE16AC
:101D640041EA4E0123F070053143D3781679984047
:101D74001B011EB1022E0CBF3026202692F805E06E
:101D8400BEF1000F06D0BEF1010F14BF4CF0010CE0
:101D94004CF0030C92F808E092F806800EF0030E63
:101DA40043EA8E032B43002F40F0C180957A92F8CA
:101DB40009A0D77A43F460430195EFF310894FF0FB
:101DC400010E8EF3108865682D78C5F113050EFA9F
:101DD40005FE5B4DD5F804B02BEA0E0BC5F804B034
:101DE4006D6889F310884FF0000EA568C9B2C0B2BF
:101DF40095F8039085F803E029706870AE70D17986
:101E04009BB2A97201995FFA8CFC85F80CA06973E6
:101E1400AF7385F80FC02B82636885F82080597AE8
:101E2400002940F08280127B012A0CBF122210226A
:101E340085F8212093F90220002A80F290804148FD
:101E440093F90120002A26DB5B7902F160411B0132
:101E5400DBB201F5614181F800333B4B02F1C00173
:101E640040F8224053F8215025F4803543F821509E
:101E740053F82130BFF35F8F012153099B0002F017
:101E84001F0203F1604303F5614301FA02F2C3F850
:101E940080211A6063681A7A2C4993F9043012017C
:101EA400294DCE18D2B286F8002303F1C00240F8BF
:101EB400234055F8226026F4803645F8226055F810
:101EC4002220BFF35F8F012203F01F055B099B00F3
:101ED40003F1604303F56143AA40C3F880211A600B
:101EE4006368002693F90320DB7911441B01DBB2FC
:101EF40081F80033114B40F822402360FAE640F2A7
:101F04007A56304603B0BDE8F08F0E26304603B053
:101F1400BDE8F08FAA7A012A3FF4C3AE0626E9E6AB
:101F2400B82608214FF0100CFDE6102280E70027A8
:101F3400BA46019741E741F0B1060AE749505352C6
:101F440000400840D80D00200060004000E100E09F
:101F540004A011401278012A7FF4A3AEDEE79B7936
:101F640002F160411B011248DBB201F5614181F8C5
:101F74000033104B02F1C00140F8224053F82150C5
:101F840025F4803543F8215053F82130BFF35F8F97
:101F9400012153099B0002F01F0203F1604303F582
:101FA400614301FA02F2C3F880211A60636847E7CB
:101FB400D80D00200060004010B4EFF30383103B01
:101FC400214A5BB203F1C00152F8210020F48030B1
:101FD40042F8210052F821201C4A52F82330D3E958
:101FE40006218A421CD018699C6838B393F820C033
:101FF400BCF10F0F0AD9616840F82210D969013287
:102004008A429A610CD05DF8044B7047BCF1070F0B
:1020140016D821798154D96901328A429A61F2D160
:102024005B6893F90330012203F01F0008495B0940
:10203400824041F823205DF8044B70476068DEE776
:10204400A48820F81240DAE700600040D80D002090
:1020540000E100E0EFF30383103B254A5BB203F198
:10206400C00152F8210020F4803042F8210052F8D7
:102074002110204951F8230041680B6A13B15B78A1
:10208400012B01D0FFF790BD10B4C46904F1FF3CEB
:10209400446964450FD00A694AB191F9032016498D
:1020A40002F01F0C03FA0CF3520941F822305DF8D8
:1020B400044BFFF779BD91F9031001F1C00C52F8FC
:1020C4002C4024F4803442F82C4052F82C20BFF3E6
:1020D4005F8F4A09920001F01F0102F1604203FA86
:1020E40001F102F56142C2F880111160DFE700BF1F
:1020F40000600040D80D002000E100E030B4EFF3B0
:102104000382103A344953B203F1C00051F820401D
:1021140002F0FF0224F4803441F8204051F82010EA
:102124002E4951F823008168C978890705D541688B
:10213400497A012901D030BC70470121284C5B0940
:1021440002F01F02203301FA02F244F82320BFF305
:102154004F8FBFF36F8F436893F90230002B32DB4C
:102164005A0903F01F0301FA03F3203244F8223022
:10217400BFF34F8FBFF36F8FD0E90124237892F917
:10218400022023F04003002A237018DB124B02F1D3
:10219400C00453F8245025F4803543F8245053F8F0
:1021A4002430BFF35F8F53099B0002F01F0203F139
:1021B4006043914003F56143C3F880111960012124
:1021C40030BCFFF725BD8268012130BC137823F0B1
:1021D40040031370FFF71CBD00600040D80D0020C1
:1021E40000E100E070B5EFF30383364A103B5CB2C4
:1021F40052F82460736893F90230002B49DB012004
:1022040031495A0903F01F03203200FA03F341F85D
:102214002230BFF34F8FBFF36F8FD6E9013293F9AA
:1022240002301178002B21F04001117019DB274A8C
:1022340003F1C00152F8215025F4803542F82150B1
:1022440052F82120BFF35F8F03F01F025B099B004C
:1022540003F16043904003F56143C3F880011860C3
:10226400B2680021D378D1701A07DDB224D4EB0709
:1022740015D405F01405142D19D0144A04F1C00323
:1022840052F8231021F4803142F8231052F82330FD
:1022940070BDB268137823F040031370E1E70421A2
:1022A400304605F01405FFF7B3FC142DE5D10821E1
:1022B4003046FFF7ADFCE0E705213046FFF7A8FC08
:1022C400D5E700BFD80D002000E100E00060004029
:1022D4002DE9F84F0388DBB182464FF0000B4FF035
:1022E4000109DFF8D0800024304D4FEACB07DAF83B
:1022F400043035F8022BD919898891420AD0013467
:10230400032CF4D1BAF800300BF1010B5B45EAD889
:10231400BDE8F88FDB5909FA04F603F0B853B3F1BA
:10232400807FF6B298F8BB3413D0334231D1204ABF
:1023340004F1200612F81630DB09E0D012F816304A
:10234400012123F08003C82002F8163000F0D0F9F0
:10235400D5E7334211D0164A04F1200112F81130A6
:10236400DB09CCD112F81130C82043F0800302F805
:102374001130012100F0BCF9C1E7012000F0A8FAF6
:1023840098F8BB340120334388F8BB3400F070FA6A
:10239400E1E7012000F09CFA98F8BB34012023EA1D
:1023A400060388F8BB3400F063FAC0E73086020005
:1023B4000030084000E00140C0B10D4B0068984275
:1023C40010D1012A10D80123C8B283409BB202B9AC
:1023D4001B04090A490101F1804101F50021002093
:1023E4008B607047072070470320704701207047B7
:1023F40054524F50F8B50446FFF76AFFEFF31082CA
:10240400012383F31088234F3B681BB92249CB7007
:102414004023CB703B6801333B6082F310882388F0
:102424002BB361681D4C01EBC30E06E01B010831A0
:1024340013448E4544F8230019D008688A88C503DC
:102444004FEA1223D2B2F1D502EB031C54F82C60EC
:102454001B01083120F4803526F4803613448E4560
:1024640044F82C6044F82C5044F82300E5D1EFF3F1
:102474001082012383F310883B6813B13B68013B4E
:102484003B603B681BB980200349CB70C87082F362
:102494001088F8BDD40D0020000D08400008084045
:1024A40098B191B14A6808B503464AB1094A186817
:1024B40090420CD008461A60FFF79CFF002008BD2C
:1024C4000A88002AF2D0012008BD012070470E209E
:1024D40008BD00BF54524F50064B074993F82600DD
:1024E4001A6A51F82030C2F302620449D3400B60E7
:1024F400704700BF00E0014020040020F40D0020DC
:10250400704700BF4AF2035001234049404A2DE975
:10251400F041A1F8FE03A2F80431B2F804319BB2F1
:10252400002BFAD101254FF400474FF0090E394C26
:102534003948DFF8F8C0394E34496660E0606061BC
:10254400A2F80051CCF80850CCF8005091F826209D
:102554002060A7602761086A54F82220304EC0F337
:102564000260C240326081F8133481F8A2E091F82D
:1025740080341BB991F881349A0741D0234D95F8E2
:10258400803493B30022214B83F8812483F8802480
:1025940000231E4A82F8363092F83C30DB07FBD524
:1025A4004FF0000C4FF0F10801254FF0F00E4FF4FE
:1025B40025471C4B136282F826C092F82610106A35
:1025C40054F82110184BC0F30260C140316083F805
:1025D4000C8083F808C083F80CE082F8305082F84D
:1025E4005250A2F8FE73BDE8F0810121C82085F89D
:1025F400801400F07DF895F88034012BFBD1C1E7FD
:102604004FF47A70FFF77CFFC2E700BF00E001409F
:1026140000C0014020040020002D310100127A0086
:10262400F40D002020110120002000400070004023
:1026340038B50025284C0121C82084F8285000F022
:1026440057F884F8245094F82430002BFBD194F8E4
:102654002430214943F0020384F8243091F82430D3
:10266400C3F340009B07F9D41B4A81F8220092F877
:10267400223003F0FF00002BF9D192F840301649C4
:1026840060F3C71382F8403091F84030DB09FBD186
:1026940091F84200104A63F3C71081F8420092F89F
:1026A4004230DB09FBD192F844000B4963F3C710B5
:1026B40082F8440091F84430C3F3C014DB09F9D123
:1026C400012000F005F9054B012083F8BB44BDE867
:1026D400384000F0CDB800BF0030084000E00140B1
:1026E400704700BFA0F101000028FBD1704700BF74
:1026F4001F4B204A1B6800FB01F1934213D302F1E4
:10270400854202F5071203F5741302F6834203F6B9
:10271400FF03A2FB03231B0DA3FB01314FF0FF308A
:10272400F9B1FFF7DFBF4FF47A7210B4A1FB02C412
:102734001148B0FBF3F34FF0FF3044B9BCFBF3FC9A
:102744004FEA9C0088B15DF8044BFFF7CBBF9B00B8
:10275400B1FBF3F1A1FB0212002AF4D1084620B127
:10276400F1E71846002BDCD170475DF8044B704745
:10277400F40D002000127A0000CA9A3B70B50024C0
:102784000B4B0C4EB3F82021B3F84051ADB21540B9
:1027940025FA04F3DB0704D556F82430E0B203B17C
:1027A40098470134102CF3D1014BA3F8305170BD7C
:1027B40000600040940D002070B5032084B000F048
:1027C40087F86FF0FF054FF0FF31254A254C138839
:1027D4005088002BA5640BBF002601260B466FF022
:1027E4000103CDE90111039138B3918823F0020369
:1027F40059B3D28823F0040322BB019319491A4A1E
:102804000B67C2F88032029B03204B67C2F8843204
:10281400039B164C8B67C2F8883200F029F800231A
:102824000F4931F8022B03F1C00001330AB144F817
:102834002020042BF5D104B070BD90880028D8D195
:10284400D28842B123F00803D7E7D288002AD4D033
:1028540023F00803D1E7002ECFD10B46CEE700BF0B
:10286400288602000080004000E100E00060004093
:10287400EFF31081012383F31088124B33F81020F7
:1028840092B22AB133F81020013A92B223F8102000
:1028940033F810309BB293B90B4A10B4B2F8FE333C
:1028A4000A4C9BB234F8100043F4254323EA000396
:1028B400A2F8FE3381F310885DF8044B704781F36E
:1028C40010887047E80D002000E0014010870200E6
:1028D40030B4EFF31081012383F310880E4A32F8E9
:1028E40010309BB26BB90D4C0D4DB4F8FE3335F876
:1028F40010C09BB243EA0C0343F425439BB2A4F8F3
:10290400FE3332F8103001339BB222F8103081F3D9
:10291400108830BC704700BFE80D002000E0014083
:102924001087020000BE704708B500F035F8FFF7C5
:1029340023F8FEE7F8B5174F05463E68A6B17C6854
:1029440006EB460604EB860602E00C34B4420BD0D8
:10295400637AAB42F9D1D4E900020021121A0C3493
:1029640000F07AF8B442F3D1BE6896B1FC6804EB87
:10297400061602E01034A6420BD0637BAB42F9D1B9
:10298400D4E90002A168121A103400F06DF8A642CE
:10299400F3D1F8BD388602004FF47001274B284A62
:1029A40070B50020C3F888109A60FEF7D9FFFFF7CE
:1029B400A9FD0120FEF7D4FF224B83F30A880020EF
:1029C400FFF7B8FFFFF788FDFFF732FE0320FFF79C
:1029D4007FFF00234FF6FF701B4903F10802013308
:1029E4000C2B21F81200F8D100240320FFF740FF3C
:1029F4000320FFF76DFF154B03205C609C60DC60D7
:102A04001C61FFF735FF0120FFF794FF104D114BB8
:102A14005B1BA3424FEAA30605DD55F8043B0134D2
:102A24009847A642F9DC0220FEF79AFFFFF7C4FE9E
:102A3400BDE870400020FFF753BE00BF00ED00E08A
:102A44000000000020000020000D084000000E409F
:102A5400748702007887020002440346934200D13F
:102A6400704703F8011BF9E70A44431E914200D161
:102A7400704710B511F8014B914203F8014FF9D199
:102A840010BD00005465726D696E616C0000000039
:102A9400284E554C4C2900002A2A20525F53504995
:102AA4005F4F70656E2041504920666F722053500D
:102AB40049204D6173746572206661696C65642098
:102AC4002A2A200D0A0000005B4552525D20496EFF
:102AD4002046756E6374696F6E3A20257328292C1D
:102AE400202573002A2A204C434420435320696E36
:102AF400697469616C697A6174696F6E2066616971
:102B04006C6564202A2A0D0A000000000000000001
:102B140000005454522052454747455300000000DA
:102B240030313233343536373839414243444546FF
:102B34004001F0004001F000F0004001F0004001CD
:102B4400482888E8494C49393334315F5350495F48
:102B5400496E69740000000008001E0067007100DF
:102B6400010070001E00CF0071000200D8001E009A
:102B7400370171000300080075006700C8000400F5
:102B840070007500CF00C8000500D800750037013B
:102B9400C800060012711271127112711271127151
:102BA4001271127112711271127112711271127109
:102BB40012711271127112711271127112711271F9
:102BC40012711271127112711271127112711271E9
:102BD40012711271127112711271127112711271D9
:103FA400127112711271FFFFFFFFFFFFFFFFFFFF8E
:103FB400FFFFFFFFFFFFFFFFFFFFFFFFFFFFFFFF0D
:103FC40012711271127112711271127112711271D5
:103FD40012711271127112711271127112711271C5
:103FE40012711271127112711271127112711271B5
:1041E4001271262F262F262F12711271127112713D
:1041F4001271127112716C76DF3DF7DFD6DD4BD58B
:10420400127153F5FFFF4BB43B54EF9EAE1A12717B
:104214001271127112711271127112711271127182
:10422400127112711271FFFFFFFFFFFFFFFFFFFF0B
:10423400FFFFFFFFFFFFFFFFFFFFFFFFFFFFFFFF8A
:104244001271127112711271127112711271127152
:10425400127112714BD5CEDCF7DFFFDFE75E7CF81D
:1042640012711271FFFFFFFFDF3D127112711A917B
:10427400E77EFFFFF7BF1271127112713353FFFF14
:10428400FFFFB61B127112711271FFFFFFFFFFFFD8
:10429400F7DFD71D64561271F7BFFFFFFFFFFFFF63
:1042A400FFFFFFFFFFFF7CD71271127112711271B1
:1042B4001271FFFFFFFFFFFFF7DFD71D6456127176
:1042C4001271FFFFFFFFFFFFFFFFFFFF9DBA127197
:1042D4001271FFFFFFFF22D212711271127112715B
:1042E40012713353FFFFFFFFB61B1271CEBCFFFFE9
:1042F4008518127112718D58FFFFC69C12711271CC
:104304001271127112711271127112711271127191
:104314001271127112711271127112711271127181
:104324001271127112711271127112711271127171
:104334001271127112711271127112711271127161
:104344001271127112711271127112711271127151
:104354001271127112711271127112711271127141
:104364001271127112711271127112711271127131
:104374001271127112711271127112711271127121
:104384001271127112711271127112711271127111
:104394001271127112711271127112711271127101
:1043A40012711271127112711271127112711271F1
:1043B40012711271127112711271127112711271E1
:1043C40012711271127112711271127112711271D1
:1043D40012711271127112711271127112711271C1
:1043E4001271127112711271127112715416B67C1B
:1043F400BEBD7CF8127112715416B67CBEBD7CF839
:10440400127112711271127112714394CEFECEFEAA
:10441400BEBD7D39127112715416B67CBEBD7CF8D6
:104424001271127112711271127112711271127170
:104434001271127112711271127112711271127160
:104444001271127112711271127112711271127150
:104454001271127112711271127112711271262F6E
:10446400262F262F262F262F262F262F1271127144
:10447400127112714BB4FFFF7CF81AB2ADFAF7BF98
:1044840022F253F5FFFF74B7EF9EAE1B1271127147
:104494001271127112711271127112711271127100
:1044A40012711271127112711271127112711271F0
:1044B40012711271127112711271127112711271E0
:1044C40012711271127112711271127112711271D0
:1044D40012711A92F7BFDF3D2AF322D26C97853806
:1044E40012711271FFFFFFFFFFFF643612716C97A8
:1044F400FFFFFFFFF7BF1271127112719559FFFF91
:10450400FFFFFFDF22D212711271FFFFFFFF22D2E1
:104514003B53FFDFFFDF22D21271127153F5FFFF0D
:10452400CEDC127112711271127112711271127148
:104534001271FFFFFFFF22D23B53FFDFFFDF22D2C6
:104544001271FFFFFFFF22D21271127112711271E8
:104554001271FFFFFFFF22D21271127112711271D8
:1045640012719559FFFFFFFFFFDF22D23333FFDFC4
:10457400FFDF33333B54FFDFF7BF33131271127184
:10458400127112711271127112711271127112710F
:1045940012711271127112711271127112711271FF
:1045A40012711271127112711271127112711271EF
:1045B40012711271127112711271127112711271DF
:1045C40012711271127112711271127112711271CF
:1045D40012711271127112711271127112711271BF
:1045E40012711271127112711271127112711271AF
:1045F400127112711271127112711271127112719F
:10460400127112711271127112711271127112718E
:10461400127112711271127112711271127112717E
:10462400127112711271127112711271127112716E
:10463400127112711271127112711271127112715E
:10464400127112711271127112711271127112714E
:10465400127112711271127112711271127112713E
:10466400127112711271127112712B13C6FE6C97B2
:104674003B74CEFE5C362B13C6FE6C973B74CEFEA9
:104684005C361271127112711271127112711271FF
:104694006CB7CEFE4BF52B13C6FE6C973B74CEFE67
:1046A4005C361271127112711271127112711271DF
:1046B40012711271127112711271127112711271DE
:1046C40012711271127112711271127112711271CE
:1046D4001271127112711271127112711271262FEC
:1046E400262F262F262F262F262F262F12711271C2
:1046F400127112718D59FFFF129112714394FFFFD1
:104704005C3653F5FFFFFFFFB65B12711271127135
:10471400127112711271127112711271127112717D
:10472400127112711271127112711271127112716D
:10473400127112711271127112711271127112715D
:10474400127112711271127112711271127112714D
:1047540012713B53FFFFDF1D1AB2127112711271F5
:1047640012711271FFFFFFDFD6FDCEDC1271DF1D67
:10477400CEBCFFFFF7BF127112711271E77EFFDF2B
:104784009DB9FFFF74B712711271FFFFFFFF22D2B0
:104794001271E75EFFFF43741271127153F5FFFF4C
:1047A400CEDC1271127112711271127112711271C6
:1047B4001271FFFFFFFF22D21271E75EFFFF437405
:1047C4001271FFFFFFFF22D2127112711271127166
:1047D4001271FFFFFFFF22D2127112711271127156
:1047E4001271E77EFFDF9DB9FFFF74B712717CF889
:1047F400FFFFC6BCCEDCFFFF74B7127112711271D9
:10480400127112711271127112711271127112718C
:10481400127112711271127112711271127112717C
:10482400127112711271127112711271127112716C
:10483400127112711271127112711271127112715C
:10484400127112711271127112711271127112714C
:10485400127112711271127112711271127112713C
:10486400127112711271127112711271127112712C
:10487400127112711271127112711271127112711C
:10488400127112711271127112711271127112710C
:1048940012711271127112711271127112711271FC
:1048A40012711271127112711271127112711271EC
:1048B40012711271127112711271127112711271DC
:1048C40012711271127112711271127112711271CC
:1048D40012711271127112711271127112711271BC
:1048E400127112711271127112716477CEFE333328
:1048F4001271BE9D95BA6477CEFE33331271BE9D9C
:1049040095BA12711271CEFE7D3912711271127143
:104914006C97CEFE4BF56477CEFE33331271BE9D99
:1049240095BA12711271127112711271127112719F
:10493400127112711271127112711271127112715B
:10494400127112711271127112711271127112714B
:10495400127112711271127112711271262F262F97
:10496400262F262F262F262F262F262F262F12716D
:10497400127112718D59FFFF129112714394FFFF4E
:104984005C3653F5FFFFF7BFE75E2B13127112710C
:1049940012711271127112711271127112711271FB
:1049A40012711271127112711271127112711271EB
:1049B40012711271127112711271127112711271DB
:1049C40012711271127112711271127112711271CB
:1049D40012711A92EF7EFFFFFFDFC6BC853822D228
:1049E40012711271FFFFFFDF6456FFFF9D99FFFFF5
:1049F4005C15FFFFF7BF1271127153F5FFFFB63B51
:104A04003B53FFFFCEDC12711271FFFFFFFF22D276
:104A14003B53FFDFE75E1A921271127153F5FFFFE9
:104A2400CEDC127112711271127112711271127143
:104A34001271FFFFFFFF22D23B53FFDFE75E1A92A2
:104A44001271FFFFFFFFFFFFFFFFFFFF6C76127184
:104A54001271FFFFFFFF22D21271127112711271D3
:104A640053F5FFFFB63B3B53FFFFCEDC12711271CF
:104A7400CEDCFFFFFFFFC69C12711271127112711E
:104A8400127112711271127112711271127112710A
:104A940012711271127112711271127112711271FA
:104AA40012711271127112711271127112711271EA
:104AB40012711271127112711271127112711271DA
:104AC40012711271127112711271127112711271CA
:104AD40012711271127112711271127112711271BA
:104AE40012711271127112711271127112711271AA
:104AF400127112711271127112711271127112719A
:104B04001271127112711271127112711271127189
:104B14001271127112711271127112711271127179
:104B24001271127112711271127112711271127169
:104B34001271127112711271127112711271127159
:104B44001271127112711271127112711271127149
:104B54001271127112711271127112711271127139
:104B64001271127112711271127174D8CEFE2B135C
:104B74001271B67CA61B74D8CEFE2B131271B67CB0
:104B8400A61B12711271CEFE7D39127112714394FB
:104B9400C6FE9DDB127174D8CEFE2B131271B67C47
:104BA400A61B1271127112711271127112711271AB
:104BB40012711271127112711271127112711271D9
:104BC40012711271127112711271127112711271C9
:104BD400127112711271127112711271262F262F15
:104BE400262F262F262F262F262F262F262F1271EB
:104BF400127112714BB4FFFF7CD71AB2ADFAF7BF32
:104C040022F253F5FFFF5C36DF1DDF3D2AF31271FC
:104C14001271127112711271127112711271127178
:104C2400127112711271FFFFFFFFFFFFFFFFFFFF01
:104C3400FFFFFFFFFFFFFFFFFFFFFFFFFFFFFFFF80
:104C44001271127112711271127112711271127148
:104C5400127112713333A5DAE75EFFFFFFFFD6FD51
:104C640012711271FFFFFFDF1271E75EFFFFD6FDC5
:104C74001A92FFFFF7BF12711271AE1AFFFF64564A
:104C84001271D6FDFFFF33331271FFFFFFFFFFFFE9
:104C9400FFFFF7BF43B412711271127153F5FFFF96
:104CA400CEDC1271127112711271127112711271C1
:104CB4001271FFFFFFFFFFFFFFFFF7BF43B4127145
:104CC4001271FFFFFFFF22D2127112711271127161
:104CD4001271FFFFFFFF22D2127112711271127151
:104CE400AE1AFFFF64561271D6FDFFFF3333127103
:104CF4003B74FFFFFFFF3333127112711271127193
:104D04001271127112711271127112711271127187
:104D14001271127112711271127112711271127177
:104D24001271127112711271127112711271127167
:104D34001271127112711271127112711271127157
:104D44001271127112711271127112711271127147
:104D54001271127112711271127112711271127137
:104D64001271127112711271127112711271127127
:104D74001271127112711271127112711271127117
:104D84001271127112711271127112711271127107
:104D940012711271127112711271127112711271F7
:104DA40012711271127112711271127112711271E7
:104DB40012711271127112711271127112711271D7
:104DC40012711271127112711271127112711271C7
:104DD40012711271127112711271127112711271B7
:104DE400127112711271127112716477CEFE333323
:104DF4001271BE9D95BA6477CEFE33331271BE9D97
:104E040095BA127112711271127112712AF3BEBD28
:104E1400A61B1A9212716477CEFE33331271BE9DB3
:104E240095BA12711271127112711271127112719A
:104E34001271127112711271127112711271127156
:104E44001271127112711271127112711271127146
:104E5400127112711271127112711271262F262F92
:104E6400262F262F262F262F262F262F262F127168
:104E74001271127112716C76DF3DF7DFD6DD4BD5FE
:104E8400127153F5FFFF4BB422F2DF1DDF3D2AF20E
:104E940012711271127112711271127112711271F6
:104EA400127112711271FFFFFFFFFFFFFFFFFFFF7F
:104EB400FFFFFFFFFFFFFFFFFFFFFFFFFFFFFFFFFE
:104EC40012711271127112711271127112711271C6
:104ED400127112711271127112714394FFFFFFFF6C
:104EE40022B21271FFFFFFDF127174B7FFFF645625
:104EF4001A92FFFFF7BF12711AB2F7DFFFFFFFFF2D
:104F0400FFFFFFFFFFFF8D591271FFFFFFFF2AF222
:104F14006456FFFFE75E1AB21271127153F5FFFF78
:104F2400CEDC12711271127112711271127112713E
:104F34001271FFFFFFFF2AF26456FFFFE75E1AB209
:104F44001271FFFFFFFF22D21271127112711271DE
:104F54001271FFFFFFFF22D21271127112711AB285
:104F6400F7DFFFFFFFFFFFFFFFFFFFFF8D59127108
:104F74001AB2FFFFFFFF12711271127112711271D6
:104F84001271127112711271127112711271127105
:104F940012711271127112711271127112711271F5
:104FA40012711271127112711271127112711271E5
:104FB40012711271127112711271127112711271D5
:104FC40012711271127112711271127112711271C5
:104FD40012711271127112711271127112711271B5
:104FE40012711271127112711271127112711271A5
:104FF4001271127112711271127112711271127195
:105004001271127112711271127112711271127184
:105014001271127112711271127112711271127174
:105024001271127112711271127112711271127164
:105034001271127112711271127112711271127154
:105044001271127112711271127112711271127144
:105054001271127112711271127112711271127134
:10506400127112711271127112712B13C6FE6C97A8
:105074003B74CEFE5C562B13C6FE6C973B74CEFE7F
:105084005C5612711271CEFE7D391A92AE3CB69DF9
:1050940022F2127112712B13C6FE6C973B74CEFE72
:1050A4005C561271127112711271127112711271B5
:1050B40012711271127112711271127112711271D4
:1050C40012711271127112711271127112711271C4
:1050D4001271127112711271127112711271262FE2
:1050E400262F262F262F262F262F262F12711271B8
:1050F4001271127112711271127112711271127194
:105104001271127112711271127112711271127183
:105114001271127112711271127112711271127173
:105124001271127112711271127112711271127163
:105134001271127112711271127112711271127153
:105144001271127112711271127112711271127143
:1051540012713333B63B4BB51AB23B54F7DFE75EFB
:1051640012711271FFFFFFDF12711271127112714D
:105174001A92FFFFF7BF12717497FFFF8D381271F7
:1051840012711A92FFDFE75E1271FFFFFFFF22D256
:105194001271B65BFFFF8D381271127153F5FFFF68
:1051A400CEDC1271127112711271127112711271BC
:1051B4001271FFFFFFFF22D21271B65BFFFF8D3821
:1051C4001271FFFFFFFF22D212711271127112715C
:1051D4001271FFFFFFFF22D21271127112717497C4
:1051E400FFFF8D38127112711A92FFDFE75E1271A0
:1051F4001AB2FFFFFFFF1271127112711271127154
:105204001271127112711271127112711271127182
:105214001271127112711271127112711271127172
:105224001271127112711271127112711271127162
:105234001271127112711271127112711271127152
:105244001271127112711271127112711271127142
:105254001271127112711271127112711271127132
:105264001271127112711271127112711271127122
:105274001271127112711271127112711271127112
:105284001271127112711271127112711271127102
:1052940012711271127112711271127112711271F2
:1052A40012711271127112711271127112711271E2
:1052B40012711271127112711271127112711271D2
:1052C40012711271127112711271127112711271C2
:1052D40012711271127112711271127112711271B2
:1052E4001271127112711271127112715416B67C0C
:1052F400BEBD7D18127112715416B67CBEBD7D18E8
:10530400127112711271CEFE7D3943B5CEFECEFEFE
:10531400CEFECEFE6C9712715416B67CBEBD7D18BF
:105324001271127112711271127112711271127161
:105334001271127112711271127112711271127151
:105344001271127112711271127112711271127141
:105354001271127112711271127112711271262F5F
:10536400262F262F262F262F262F262F1271127135
:105374001271127112711271127112711271127111
:105384001271127112711271127112711271127101
:1053940012711271127112711271127112711271F1
:1053A40012711271127112711271127112711271E1
:1053B40012711271127112711271127112711271D1
:1053C40012711271127112711271127112711271C1
:1053D400127122D2C69CEF7EFFDFF7BFC69C4394B6
:1053E40012711271FFFFFFDF1271127112711271CB
:1053F4001A92FFFFF7BF1271CEBCFFFF4BD512719B
:1054040012711271C69CFFFF53F5FFFFFFFF22D2FA
:1054140012714394FFFFF7BF22B2127153F5FFFFDD
:10542400CEDC127112711271127112711271127139
:105434001271FFFFFFFF22D212714394FFFFF7BFE7
:1054440022B2FFFFFFFFFFFFFFFFFFFFBE5B1271F2
:105454001271FFFFFFFFFFFFFFFFFFFFBE5BCEBC2C
:10546400FFFF4BD5127112711271C69CFFFF53F5E9
:105474001AB2FFFFFFFF12711271127112711271D1
:105484001271127112711271127112711271127100
:1054940012711271127112711271127112711271F0
:1054A40012711271127112711271127112711271E0
:1054B40012711271127112711271127112711271D0
:1054C40012711271127112711271127112711271C0
:1054D40012711271127112711271127112711271B0
:1054E40012711271127112711271127112711271A0
:1054F4001271127112711271127112711271127190
:10550400127112711271127112711271127112717F
:10551400127112711271127112711271127112716F
:10552400127112711271127112711271127112715F
:10553400127112711271127112711271127112714F
:10554400127112711271127112711271127112713F
:10555400127112711271127112711271127112712F
:10556400127112711271127112711271127112711F
:10557400127112711271127112711271127112710F
:1055840012711271127112711271127112711271FF
:1055940012711271127112711271127112711271EF
:1055A40012711271127112711271127112711271DF
:1055B40012711271127112711271127112711271CF
:1055C40012711271127112711271127112711271BF
:1055D40012711271127112711271127112711271AF
:1055E4001271262F262F262F127112711271127129
:1055F400127112711271127112711271127112718F
:10560400127112711271127112711271127112717E
:10561400127112711271127112711271127112716E
:10562400127112711271127112711271127112715E
:1058A400127112711271FFFFFFFFFFFFFFFFFFFF75
:1058B400FFFFFFFFFFFFFFFFFFFFFFFFFFFFFFFFF4
:1058C40012711271127112711271127112711271BC
:1058D40012711271127112711271127112711271AC
:1058E400127112711271127112711271127112719C
:105B2400127112711271FFFFFFFFFFFFFFFFFFFFF2
:105B3400FFFFFFFFFFFFFFFFFFFFFFFFFFFFFFFF71
:105B44001271127112711271127112711271127139
:105B54001271127112711271127112711271127129
:105B64001271127112711271127112711271127119
:106F14001271127108A508A508A508A508A508A559
:106F240008A508A508A508A508A508A508A508A5F5
:106F340008A508A508A508A508A508A508A508A5E5
:106F440008A508A508A508A508A508A508A508A5D5
:106F540008A508A508A508A508A508A508A508A5C5
:107C54004C164C164C164C164C1608A508A508A52F
:107C640008A508A508A508A508A508A508A508A5A8
:107C740008A508A508A508A508A508A508A508A598
:107C84004C164C164C164C164C164C164C164C16E0
:107C94004C164C164C164C164C164C164C164C16D0
:107CA4004C164C164C164C164C164C164C164C16C0
:107CB4004C164C164C164C164C164C164C164C16B0
:107CC4004C164C164C164C164C164C164C164C16A0
:107CD4004C164C164C164C164C164C164C164C1690
:107CE4004C164C164C164C164C164C164C164C1680
:107CF4004C164C164C164C164C164C164C164C1670
:107D04004C164C164C164C164C164C164C164C165F
:107D14004C164C164C164C164C164C164C164C164F
:107D24004C164C164C164C164C1608A508A508A55E
:107D340008A508A508A508A508A508A508A508A5D7
:107D440008A508A508A508A508A508A508A508A5C7
:107D540035BC35BC35BC35BC35BC35BC35BC35BC97
:107D640035BC35BC35BC35BC35BC35BC35BC35BC87
:107D740035BC35BC35BC35BC35BC35BC35BC35BC77
:107D840035BC35BC35BC35BC35BC35BC35BC35BC67
:107D940035BC35BC35BC35BC35BC35BC35BC35BC57
:107DA40035BC35BC35BC35BC35BC35BC35BC35BC47
:107DB40035BC35BC35BC35BC35BC35BC35BC35BC37
:107DC40035BC35BC35BC35BC35BC35BC35BC35BC27
:107DD40035BC35BC35BC35BC35BC35BC35BC35BC17
:107DE40035BC35BC35BC35BC35BC35BC35BC35BC07
:107DF40035BC35BC35BC35BC35BC08A508A508A5C3
:107E040008A508A508A508A508A508A508A508A506
:107E140008A508A508A508A508A508A508A508A5F6
:107E240008A508A508A508A508A508A508A54C1631
:107E3400116A116A116A116A116A116A116A116A66
:107E4400116A116A116A116A116A116A116A116A56
:107E5400116A116A116A116A116A116A116A116A46
:107E6400116A116A116A116A116A116A116A116A36
:107E7400116A116A116A116A116A116A116A116A26
:107E8400116A116A116A116A116A116A116A116A16
:107E9400116A116A116A116A116A116A116A116A06
:107EA400116A116A116A116A116A116A116A116AF6
:107EB400116A116A116A116A116A116A116A116AE6
:107EC400116A116A116A116A116A116A116A116AD6
:107ED400116A116A116A116A116A4C1608A508A57B
:107EE40008A508A508A508A508A508A508A508A526
:107EF40008A508A508A508A508A508A508A54C1661
:107F0400116A116A116A116A116A116A116A116A95
:107F1400116A116A116A116A116A116A116A116A85
:107F2400116A116A116A116A116A116A116A116A75
:107F3400116A116A116A116A116A116A116A116A65
:107F4400116A116A116A116A116A116A116A116A55
:107F5400116A116A116A116A116A116A116A116A45
:107F6400116A116A116A116A116A116A116A116A35
:107F7400116A116A116A116A116A116A116A116A25
:107F8400116A116A116A116A116A116A116A116A15
:107F9400116A116A116A116A116A116A116A116A05
:107FA400116A116A116A116A116A4C1608A508A5AA
:107FB40008A508A508A508A508A508A508A508A555
:107FC40008A508A508A508A508A508A508A535BC01
:107FD40035BC35BC35BC35BC35BC35BC35BC35BC15
:107FE40035BC35BC35BC35BC35BC35BC35BC35BC05
:107FF40035BC35BC35BC35BC35BC35BC35BC35BCF5
:1080040035BC35BC35BC35BC35BC35BC35BC35BCE4
:1080140035BC35BC35BC35BC35BC35BC35BC35BCD4
:1080240035BC35BC35BC35BC35BC35BC35BC35BCC4
:1080340035BC35BC35BC35BC35BC35BC35BC35BCB4
:1080440035BC35BC35BC35BC35BC35BC35BC35BCA4
:1080540035BC35BC35BC35BC35BC35BC35BC35BC94
:1080640035BC35BC35BC35BC35BC35BC35BC35BC84
:1080740035BC35BC35BC35BC35BC35BC08A508A5FC
:1080840008A508A508A508A508A508A508A508A584
:1080940008A508A508A508A508A508A508A508A574
:1080A40008A508A508A508A508A508A54C16116AE1
:1080B400116A116A116A116A116A116A116A116AE4
:1080C400116A116A116A116A116A116A116A116AD4
:1080D400116A116A116A116A116A116A116A116AC4
:1080E400116A116A116A116A116A116A116A116AB4
:1080F400116A116A116A116A116A116A116A116AA4
:10810400116A116A116A116A116A116A116A116A93
:10811400116A116A116A116A116A116A116A116A83
:10812400116A116A116A116A116A116A116A116A73
:10813400116A116A116A116A116A116A116A116A63
:10814400116A116A116A116A116A116A116A116A53
:10815400116A116A116A116A116A116A4C1608A52A
:1081640008A508A508A508A508A508A508A508A5A3
:1081740008A508A508A508A508A508A54C16116A10
:10818400116A116A116A116A116A116A116A116A13
:10819400116A116A116A116A116A116A116A116A03
:1081A400116A116A116A116A116A116A116A116AF3
:1081B400116A116A116A116A116A116A116A116AE3
:1081C400116A116A116A116A116A116A116A116AD3
:1081D400116A116A116A116A116A116A116A116AC3
:1081E400116A116A116A116A116A116A116A116AB3
:1081F400116A116A116A116A116A116A116A116AA3
:10820400116A116A116A116A116A116A116A116A92
:10821400116A116A116A116A116A116A116A116A82
:10822400116A116A116A116A116A116A4C1608A559
:1082340008A508A508A508A508A508A508A508A5D2
:1082440008A508A508A508A508A508A535BC35BC3A
:10825400127012701270127012701270127012700A
:1082640012701270127012701270127012701270FA
:1082740012701270127012701270127012701270EA
:1082840012701270127012701270127012701270DA
:1082940012701270127012701270127012701270CA
:1082A40012701270127012701270127012701270BA
:1082B40012701270127012701270127012701270AA
:1082C400127012701270127012701270127012709A
:1082D400127012701270127012701270127012708A
:1082E400127012701270127012701270127012707A
:1082F4001270127012701270127035BC35BC08A561
:1083040008A508A508A508A508A508A508A508A501
:1083140008A508A508A508A508A508A508A508A5F1
:1083240008A508A508A508A508A54C16116A116A90
:10833400116A116A116A116A116A116A116A116A61
:10834400116A116A116A116A116A116A116A116A51
:10835400116A116A116A116A116A116A116A116A41
:10836400116A116A116A116A116A116A116A116A31
:10837400116A116A116A116A116A116A116A116A21
:10838400116A116A116A116A116A116A116A116A11
:10839400116A116A116A116A116A116A116A116A01
:1083A400116A116A116A116A116A116A116A116AF1
:1083B400116A116A116A116A116A116A116A116AE1
:1083C400116A116A116A116A116A116A116A116AD1
:1083D400116A116A116A116A116A116A116A4C16DA
:1083E40008A508A508A508A508A508A508A508A521
:1083F40008A508A508A508A508A54C16116A116AC0
:10840400116A116A116A116A116A116A116A116A90
:10841400116A116A116A116A116A116A116A116A80
:10842400116A116A116A116A116A116A116A116A70
:10843400116A116A116A116A116A116A116A116A60
:10844400116A116A116A116A116A116A116A116A50
:10845400116A116A116A116A116A116A116A116A40
:10846400116A116A116A116A116A116A116A116A30
:10847400116A116A116A116A116A116A116A116A20
:10848400116A116A116A116A116A116A116A116A10
:10849400116A116A116A116A116A116A116A116A00
:1084A400116A116A116A116A116A116A116A4C1609
:1084B40008A508A508A508A508A508A508A508A550
:1084C40008A508A508A508A508A535BC35BC1270E3
:1084D4001270127012701270127012701270127088
:1084E4001270127012701270127012701270127078
:1084F4001270127012701270127012701270127068
:108504001270127012701270127012701270127057
:108514001270127012701270127012701270127047
:108524001270127012701270127012701270127037
:108534001270127012701270127012701270127027
:108544001270127012701270127012701270127017
:108554001270127012701270127012701270127007
:1085640012701270127012701270127012701270F7
:1085740012701270127012701270127035BC35BC09
:1085840008A508A508A508A508A508A508A508A57F
:1085940008A508A508A508A508A508A508A508A56F
:1085A40008A508A508A508A54C16116A116A116A40
:1085B400116A116A116A116A116A116A116A116ADF
:1085C400116A116A116A116A116A116A116A116ACF
:1085D400116A116A116A116A116A116A116A116ABF
:1085E400116A116A116A116A116A116A116A116AAF
:1085F400116A116A116A116A116A116A116A116A9F
:10860400116A116A116A116A116A116A116A116A8E
:10861400116A116A116A116A116A116A116A116A7E
:10862400116A116A116A116A116A116A116A116A6E
:10863400116A116A116A116A116A116A116A116A5E
:10864400116A116A116A116A116A116A116A116A4E
:10865400116A116A116A116A116A116A116A116A3E
:108664004C1608A508A508A508A508A508A508A5E9
:1086740008A508A508A508A54C16116A116A116A6F
:10868400116A116A116A116A116A116A116A116A0E
:10869400116A116A116A116A116A116A116A116AFE
:1086A400116A116A116A116A116A116A116A116AEE
:1086B400116A116A116A116A116A116A116A116ADE
:1086C400116A116A116A116A116A116A116A116ACE
:1086D400116A116A116A116A116A116A116A116ABE
:1086E400116A116A116A116A116A116A116A116AAE
:1086F400116A116A116A116A116A116A116A116A9E
:10870400116A116A116A116A116A116A116A116A8D
:10871400116A116A116A116A116A116A116A116A7D
:10872400116A116A116A116A116A116A116A116A6D
:108734004C1608A508A508A508A508A508A508A518
:1087440008A508A508A508A535BC35BC127012708B
:108754001270127012701270127012701270127005
:1087640012701270127012701270127012701270F5
:1087740012701270127012701270127012701270E5
:1087840012701270127012701270127012701270D5
:1087940012701270127012701270127012701270C5
:1087A40012701270127012701270127012701270B5
:1087B40012701270127012701270127012701270A5
:1087C4001270127012701270127012701270127095
:1087D4001270127012701270127012701270127085
:1087E4001270127012701270127012701270127075
:1087F400127012701270127012701270127035BCF6
:1088040035BC08A508A508A508A508A508A508A5B8
:1088140008A508A508A508A508A508A508A508A5EC
:1088240008A508A508A508A54C16116A116A116ABD
:10883400116A116A116A116A116A116A116A116A5C
:10884400116A116A116A116A116A116A116A116A4C
:10885400116A116A116A116A116A116A116A116A3C
:10886400116A116A116A116A116A116A116A116A2C
:10887400116A116A116A116A116A116A116A116A1C
:10888400116A116A116A116A116A116A116A116A0C
:10889400116A116A116A116A116A116A116A116AFC
:1088A400116A116A116A116A116A116A116A116AEC
:1088B400116A116A116A116A116A116A116A116ADC
:1088C400116A116A116A116A116A116A116A116ACC
:1088D400116A116A116A116A116A116A116A116ABC
:1088E4004C1608A508A508A508A508A508A508A567
:1088F40008A508A508A508A54C16116A116A116AED
:10890400116A116A116A116A116A116A116A116A8B
:10891400116A116A116A116A116A116A116A116A7B
:10892400116A116A116A116A116A116A116A116A6B
:10893400116A116A116A116A116A116A116A116A5B
:10894400116A116A116A116A116A116A116A116A4B
:10895400116A116A116A116A116A116A116A116A3B
:10896400116A116A116A116A116A116A116A116A2B
:10897400116A116A116A116A116A116A116A116A1B
:10898400116A116A116A116A116A116A116A116A0B
:10899400116A116A116A116A116A116A116A116AFB
:1089A400116A116A116A116A116A116A116A116AEB
:1089B4004C1608A508A508A508A508A508A508A596
:1089C40008A508A508A508A535BC35BC1270127009
:1089D4001270127012701270127012701270127083
:1089E4001270127012701270127012701270127073
:1089F4001270127012701270127012701270127063
:108A04001270127012701270127012701270127052
:108A14001270127012701270127012701270127042
:108A24001270127012701270127012701270127032
:108A34001270127012701270127012701270127022
:108A44001270127012701270127012701270127012
:108A54001270127012701270127012701270127002
:108A640012701270127012701270127012701270F2
:108A7400127012701270127012701270127035BC73
:108A840035BC08A508A508A508A508A508A508A536
:108A940008A508A508A508A508A508A508A508A56A
:108AA40008A508A508A508A54C16116A116A116A3B
:108AB400116A116A116A116A116A116A116A116ADA
:108AC400116A116A116A116A116A116A116A116ACA
:108AD400116A116A116A116A116A116A116A116ABA
:108AE400116A116A116A116A116A116A116A116AAA
:108AF400116A116A116A116A116A116A116A116A9A
:108B0400116A116A116A116A116A116A116A116A89
:108B1400116A116A116A116A116A116A116A116A79
:108B2400116A116A116A116A116A116A116A116A69
:108B3400116A116A116A116A116A116A116A116A59
:108B4400116A116A116A116A116A116A116A116A49
:108B5400116A116A116A116A116A116A116A116A39
:108B64004C1608A508A508A508A508A508A508A5E4
:108B740008A508A508A508A54C16116A116A116A6A
:108B8400116A116A116A116A116A116A116A116A09
:108B9400116A116A116A116A116A116A116A116AF9
:108BA400116A116A116A116A116A116A116A116AE9
:108BB400116A116A116A116A116A116A116A116AD9
:108BC400116A116A116A116A116A116A116A116AC9
:108BD400116A116A116A116A116A116A116A116AB9
:108BE400116A116A116A116A116A116A116A116AA9
:108BF400116A116A116A116A116A116A116A116A99
:108C0400116A116A116A116A116A116A116A116A88
:108C1400116A116A116A116A116A116A116A116A78
:108C2400116A116A116A116A116A116A116A116A68
:108C34004C1608A508A508A508A508A508A508A513
:108C440008A508A508A508A535BC35BC1270127086
:108C54001270127012701270127012701270127000
:108C640012701270127012701270127012701270F0
:108C740012701270127012701270127012701270E0
:108C840012701270127012701270127012701270D0
:108C940012701270127012701270127012701270C0
:108CA40012701270127012701270127012701270B0
:108CB40012701270127012701270127012701270A0
:108CC4001270127012701270127012701270127090
:108CD4001270127012701270127012701270127080
:108CE4001270127012701270127012701270127070
:108CF400127012701270127012701270127035BCF1
:108D040035BC08A508A508A508A508A508A508A5B3
:108D140008A508A508A508A508A508A508A508A5E7
:108D240008A508A508A508A54C16116A116A116AB8
:108D3400116A116A116A116A116A116A116A116A57
:108D4400116A116A116A116A116A116A116A116A47
:108D5400116A116A116A116A116A116A116A116A37
:108D6400116A116A116A116A116A116A116A116A27
:108D7400116A116A116A116A116A116A116A116A17
:108D8400116A116A116A116A116A116A116A116A07
:108D9400116A116A116A116A116A116A116A116AF7
:108DA400116A116A116A116A116A116A116A116AE7
:108DB400116A116A116A116A116A116A116A116AD7
:108DC400116A116A116A116A116A116A116A116AC7
:108DD400116A116A116A116A116A116A116A116AB7
:108DE4004C1608A508A508A508A508A508A508A562
:108DF40008A508A508A508A54C16116A116A116AE8
:108E0400116A116A116A116A116A116A116A116A86
:108E1400116A116A116A116A116A116A116A116A76
:108E2400116A116A116A116A116A116A116A116A66
:108E3400116A116A116A116A116A116A116A116A56
:108E4400116A116A116A116A116A116A116A116A46
:108E5400116A116A116A116A116A116A116A116A36
:108E6400116A116A116A116A116A116A116A116A26
:108E7400116A116A116A116A116A116A116A116A16
:108E8400116A116A116A116A116A116A116A116A06
:108E9400116A116A116A116A116A116A116A116AF6
:108EA400116A116A116A116A116A116A116A116AE6
:108EB4004C1608A508A508A508A508A508A508A591
:108EC40008A508A508A508A535BC35BC1270127004
:108ED400127012701270127012701270127012707E
:108EE400127012701270127012701270127012706E
:108EF400127012701270127012701270127012705E
:108F0400127012701270127012701270127012704D
:108F1400127012701270127012701270127012703D
:108F2400127012701270127012701270127012702D
:108F3400127012701270127012701270127012701D
:108F4400127012701270127012701270127012700D
:108F540012701270127012701270127012701270FD
:108F640012701270127012701270127012701270ED
:108F7400127012701270127012701270127035BC6E
:108F840035BC08A508A508A508A508A508A508A531
:108F940008A508A508A508A508A508A508A508A565
:108FA40008A508A508A508A54C16116A116A116A36
:108FB400116A116A116A116A116A116A116A116AD5
:108FC400116A116A116A116A116A116A116A116AC5
:108FD400116A116A116A116A116A116A116A116AB5
:108FE400116A116A116A116A116A116A116A116AA5
:108FF400116A116A116A116A116A116A116A116A95
:10900400116A116A116A116A116A116A116A116A84
:10901400116A116A116A116A116A116A116A116A74
:10902400116A116A116A116A116A116A116A116A64
:10903400116A116A116A116A116A116A116A116A54
:10904400116A116A116A116A116A116A116A116A44
:10905400116A116A116A116A116A116A116A116A34
:109064004C1608A508A508A508A508A508A508A5DF
:1090740008A508A508A508A54C16116A116A116A65
:10908400116A116A116A116A116A116A116A116A04
:10909400116A116A116A116A116A116A116A116AF4
:1090A400116A116A116A116A116A116A116A116AE4
:1090B400116A116A116A116A116A116A116A116AD4
:1090C400116A116A116A116A116A116A116A116AC4
:1090D400116A116A116A116A116A116A116A116AB4
:1090E400116A116A116A116A116A116A116A116AA4
:1090F400116A116A116A116A116A116A116A116A94
:10910400116A116A116A116A116A116A116A116A83
:10911400116A116A116A116A116A116A116A116A73
:10912400116A116A116A116A116A116A116A116A63
:109134004C1608A508A508A508A508A508A508A50E
:1091440008A508A508A508A535BC35BC1270127081
:1091540012701270127012701270127012701270FB
:1091640012701270127012701270127012701270EB
:1091740012701270127012701270127012701270DB
:1091840012701270127012701270127012701270CB
:1091940012701270127012701270127012701270BB
:1091A40012701270127012701270127012701270AB
:1091B400127012701270127012701270127012709B
:1091C400127012701270127012701270127012708B
:1091D400127012701270127012701270127012707B
:1091E400127012701270127012701270127012706B
:1091F400127012701270127012701270127035BCEC
:1092040035BC08A508A508A508A508A508A508A5AE
:1092140008A508A508A508A508A508A508A508A5E2
:1092240008A508A508A508A54C16116A116A116AB3
:10923400116A116A116A116A116A116A116A116A52
:10924400116A116A116A116A116A116A116A116A42
:10925400116A116A116A116A116A116A116A116A32
:10926400116A116A116A116A116A116A116A116A22
:10927400116A116A116A116A116A116A116A116A12
:10928400116A116A116A116A116A116A116A116A02
:10929400116A116A116A116A116A116A116A116AF2
:1092A400116A116A116A116A116A116A116A116AE2
:1092B400116A116A116A116A116A116A116A116AD2
:1092C400116A116A116A116A116A116A116A116AC2
:1092D400116A116A116A116A116A116A116A116AB2
:1092E4004C1608A508A508A508A508A508A508A55D
:1092F40008A508A508A508A54C16116A116A116AE3
:10930400116A116A116A116A116A116A116A116A81
:10931400116A116A116A116A116A116A116A116A71
:10932400116A116A116A116A116A116A116A116A61
:10933400116A116A116A116A116A116A116A116A51
:10934400116A116A116A116A116A116A116A116A41
:10935400116A116A116A116A116A116A116A116A31
:10936400116A116A116A116A116A116A116A116A21
:10937400116A116A116A116A116A116A116A116A11
:10938400116A116A116A116A116A116A116A116A01
:10939400116A116A116A116A116A116A116A116AF1
:1093A400116A116A116A116A116A116A116A116AE1
:1093B4004C1608A508A508A508A508A508A508A58C
:1093C40008A508A508A508A535BC35BC12701270FF
:1093D4001270127012701270127012701270127079
:1093E4001270127012701270127012701270127069
:1093F4001270127012701270127012701270127059
:109404001270127012701270127012701270127048
:109414001270127012701270127012701270127038
:109424001270127012701270127012701270127028
:109434001270127012701270127012701270127018
:109444001270127012701270127012701270127008
:1094540012701270127012701270127012701270F8
:1094640012701270127012701270127012701270E8
:10947400127012701270127012701270127035BC69
:1094840035BC08A508A508A508A508A508A508A52C
:1094940008A508A508A508A508A508A508A508A560
:1094A40008A508A508A508A54C16116A116A116A31
:1094B400116A116A116A116A116A116A116A116AD0
:1094C400116A116A116A116A116A116A116A116AC0
:1094D400116A116A116A116A116A116A116A116AB0
:1094E400116A116A116A116A116A116A116A116AA0
:1094F400116A116A116A116A116A116A116A116A90
:10950400116A116A116A116A116A116A116A116A7F
:10951400116A116A116A116A116A116A116A116A6F
:10952400116A116A116A116A116A116A116A116A5F
:10953400116A116A116A116A116A116A116A116A4F
:10954400116A116A116A116A116A116A116A116A3F
:10955400116A116A116A116A116A116A116A116A2F
:109564004C1608A508A508A508A508A508A508A5DA
:1095740008A508A508A508A54C16116A116A116A60
:10958400116A116A116A116A116A116A116A116AFF
:10959400116A116A116A116A116A116A116A116AEF
:1095A400116A116A116A116A116A116A116A116ADF
:1095B400116A116A116A116A116A116A116A116ACF
